:020000040800F2
:100000000000022015750008196F00081B6F00081A
:100010001D6F00081F6F0008216F0008000000001E
:10002000000000000000000000000000236F000836
:10003000256F000800000000276F0008296F0008E6
:100040006575000865750008657500086575000828
:100050006575000865750008657500086575000818
:100060006575000865750008657500086575000808
:1000700065750008657500086575000865750008F8
:1000800065750008657500086575000865750008E8
:1000900065750008657500086575000865750008D8
:1000A00065750008657500086575000865750008C8
:1000B00065750008657500086575000865750008B8
:1000C00065750008657500086575000865750008A8
:1000D0006575000865750008657500086575000898
:1000E0006575000865750008657500086575000888
:1000F0006575000865750008657500086575000878
:100100006575000865750008657500086575000867
:100110006575000865750008657500086575000857
:100120006575000865750008657500086575000847
:100130006575000865750008657500086575000837
:10014000657500086575000865750008356F00085D
:100150006575000865750008657500086575000817
:100160006575000865750008657500086575000807
:1001700065750008657500086575000800000000D9
:080180006575000865750008B3
:1001900010B5054C237833B9044B13B10448AFF3C1
:1001A00000800123237010BDC0010020000000006A
:1001B000447E000808B5034B1BB103490348AFF365
:1001C000008008BD00000000C4010020447E00083B
:1001D00053B94AB9002908BF00281CBF4FF0FF31AE
:1001E0004FF0FF3000F072B9ADF1080C6DE904CEAC
:1001F00000F006F8DDF804E0DDE9022304B0704702
:100200002DE9F047089E04468846002B4BD18A42D0
:10021000154667D9B2FA82F24AB1C2F1200701FA53
:1002200002F320FA07F7954047EA030894404FEAA3
:10023000154E230CB8FBFEF71FFA85FC0EFB178842
:1002400043EA084307FB0CF1994209D9EB1807F17F
:10025000FF3080F01B81994240F21881023F2B440D
:100260005B1AA4B2B3FBFEF00EFB103344EA034466
:1002700000FB0CFCA44509D92C1900F1FF3380F0D8
:100280000781A44540F2048102382C4440EA07402B
:10029000A4EB0C0400271EB1D4400023C6E90043A0
:1002A0003946BDE8F0878B4209D9002E00F0EB807B
:1002B0000027C6E9000138463946BDE8F087B3FAA1
:1002C00083F7002F47D18B4202D3824200F2FA809B
:1002D000841A61EB030301209846002EE0D0C6E9A2
:1002E0000048DDE702B9FFDEB2FA82F2002A40F0F0
:1002F0008F80491B4FEA154E1FFA85F80127B1FB85
:10030000FEFC230C0EFB1C1143EA014308FB0CF11D
:10031000994207D9EB180CF1FF3002D2994200F252
:10032000CD808446591AA3B2B1FBFEF00EFB101427
:1003300043EA044408FB00F8A04507D92C1900F152
:10034000FF3302D2A04500F2B6801846A4EB0804A1
:1003500040EA0C409FE7C7F1200CBB4022FA0CFE9C
:100360004EEA030E01FA07F420FA0CF521FA0CF319
:100370004FEA1E482543B3FBF8F92C0C08FB193350
:100380001FFA8EFA44EA034309FB0AF49C4202FA7C
:1003900007F200FA07F10BD91EEB030309F1FF3056
:1003A00080F087809C4240F28480A9F10209734466
:1003B0001B1BADB2B3FBF8F008FB103345EA034456
:1003C00000FB0AFAA24508D91EEB040400F1FF3332
:1003D0006BD2A24569D90238744440EA0940A0FBB7
:1003E0000289A4EB0A044C45C2464B4654D351D073
:1003F000002E69D0B1EB0A0564EB030404FA0CFC8F
:10040000FD40FC404CEA0505C6E90054002747E7DB
:10041000C2F1200320FA03F7954001FA02F021FA15
:1004200003F34FEA154E3843010CB3FBFEF71FFAF6
:1004300085F80EFB173341EA034107FB08F38B42B3
:1004400004FA02F407D9691807F1FF3C2FD28B4256
:100450002DD9023F2944CB1A81B2B3FBFEF00EFB2B
:10046000103341EA034100FB08F38B4207D96918B6
:1004700000F1FF3C17D28B4215D902382944C91A22
:1004800040EA07473BE73746304609E70746E7E6D5
:100490001846FBE64145ABD2B8EB020A69EB0E0207
:1004A00001381346A4E76046E9E7184695E7674632
:1004B000D1E781467CE702382C4447E7ACF1020CD7
:1004C0002B442FE7384608E73746E9E6704700BF78
:1004D000034613F8012B002AFBD1181A0138704784
:1004E00001F0FF01102A2BDB10F0070F08D010F8E5
:1004F000013B013A8B422DD010F0070F42B3F6D1E9
:10050000F0B441EA012141EA014122F007047FF001
:1005100000070023F0E80256083C85EA010586EA58
:10052000010685FA47F5A3FA87F586FA47F6A5FA94
:1005300087F68EB9EED1F0BC01F0FF0102F00702A0
:1005400032B110F8013B013A83EA010313B1F8D14B
:100550000020704701387047002D06BF354603382C
:10056000073815F0010F07D1013015F4807F02BF65
:10057000013015F4C03F0130F0BC0138704700BFB6
:1005800010B5044602F0BEF8064BA3FB003080090C
:1005900000F03AFB002221464FF0FF3000F0F4FA61
:1005A000002010BDD34D621008B50B4B1A6842F401
:1005B00000721A601A6842F480621A601A6842F483
:1005C00080721A60032000F0CDFA0020FFF7D8FFF8
:1005D00006F0D2FB002008BD003C0240024A13682E
:1005E00001331360704700BFD8750020014B1868B5
:1005F000704700BFD875002010B582B00190FFF79A
:10060000F5FF0446FFF7F2FF001B019B9842F9D368
:1006100002B010BD4C4B5A6822F440325A605A68FE
:1006200041680A435A600268536823F48073536038
:1006300002685368016943EA012353600268536802
:1006400023F0407353600268536881680B43536022
:100650000268936823F40063936002689368C1683A
:100660000B439360826A394B9A4249D0026893687F
:1006700023F07063936002689368816A0B43936010
:100680000268936823F04053936002689368C16ADC
:100690000B4393600268936823F00203936002683F
:1006A0009368816943EA41039360036A002B32D166
:1006B0000268536823F4006353600268D36A23F42A
:1006C0007003D3620168CB6AC269013A43EA0253FC
:1006D000CB620268936823F40073936002689368A6
:1006E000016B43EA412393600268936823F48063BB
:1006F000936002689368416943EA8123936070477D
:100700000268936823F0706393600268936823F033
:1007100040539360BEE70268536843F4006353603C
:100720000268536823F460435360436A013B4FF40B
:10073000604292FAA2F2B2FA82F2934001684A68E9
:1007400013434B60B9E700BF002301400100000FD5
:10075000704730B310B50446036C43B1236C13F0FB
:10076000100F0AD00120002384F83C3010BD4364F0
:1007700080F83C30FFF7ECFFF0E7236C23F488535C
:1007800023F0020343F0020323642046FFF742FFF5
:1007900000206064236C23F0030343F0010323640F
:1007A000E1E701207047000030B583B000230193DA
:1007B00090F83C30012B00F08180012380F83C3020
:1007C0000468A36813F0010F13D1A36843F0010379
:1007D000A3603F4B1C683F4BA3FB0434A40C04EB09
:1007E0004404019402E0019C013C0194019C002C12
:1007F000F9D103689C6814F0010F61D0046C24F4F3
:10080000E06424F0010444F4807404645B6813F42D
:10081000806F05D0036C23F4405343F4805303648A
:10082000036C13F4805F36D0436C23F006034364FB
:1008300013460446002280F83C20826B2648D06391
:10084000A26B26481064A26B2548906422686FF062
:10085000020010602568686840F080606860256864
:10086000A86840F48070A86020680A4600F14C0136
:10087000A06B00F00AFA1B4B5B6813F01F0F0DD141
:1008800023689A6812F0405F1DD19A6842F0804256
:100890009A60002015E000234364C9E72368124AE8
:1008A000934201D000200CE09A6812F0405F0CD116
:1008B0009A6842F080429A60002002E0022000E044
:1008C000002003B030BD0020FBE70020F9E700BFA7
:1008D0001001002083DE1B434D090008B109000808
:1008E000BD090008002301400020014090F83C3081
:1008F000012B28D010B50446012380F83C30026853
:10090000936823F00103936003689A6812F0010F63
:1009100004D00020002384F83C3010BD9A6822F4F3
:1009200080729A60806B00F0D7F92268536823F0D8
:1009300080635360236C23F4885323F0010343F056
:1009400001032364E6E702207047704708B5836B14
:100950001A6C12F0500F03D09B6B9B6C984708BD2C
:100960001A6C42F400721A641A68916811F0405FC0
:1009700019D19969B9B9D16A11F4700F03D091688E
:1009800011F4806F0FD1516821F0200151601A6C71
:1009900022F480721A641A6C12F4805F03D11A6C0C
:1009A00042F001021A641846FFF7CFFFD7E77047FD
:1009B00008B5806BFFF7FBFF08BD704708B5806B7B
:1009C00040230364436C43F004034364FFF7F5FFE3
:1009D00008BD000030B482B00023019390F83C3091
:1009E000012B00F0B780012380F83C300B68092B05
:1009F0003ED90568EA689BB203EB43031E3B07241C
:100A000004FA03F322EA0303EB600568EA688C68E2
:100A10000B8803EB43031E3B04FA03F31343EB6021
:100A20004B68062B3AD805686A6B03EB8303053BDA
:100A30001F2404FA03F322EA03036B6305686A6B5D
:100A40004B6803EB8303053B0C8804FA03F3134361
:100A50006B630268404B9A4250D002683E4B9A4208
:100A600055D0002380F83C30184602B030BC7047A7
:100A700005682A699BB203EB4303072404FA03F3D6
:100A800022EA03032B6105682A698C680B8803EB53
:100A9000430304FA03F313432B61C1E70C2B16D86D
:100AA00005682A6B03EB8303233B1F2404FA03F33B
:100AB00022EA03032B6305682A6B4B6803EB83036D
:100AC000233B0C8804FA03F313432B63C1E7056847
:100AD000EA6A03EB8303413B1F2404FA03F322EA8F
:100AE0000303EB620568EA6A4B6803EB8303413B4F
:100AF0000C8804FA03F31343EB62AAE70B68122B8A
:100B0000ABD1164A536843F480035360A5E70B68E2
:100B1000103B012BA5D8114A536843F400035360DE
:100B20000B68102B9DD10E4B1B6802F1467202F52B
:100B30002E3202F28332A2FB03239B0C03EB8303CE
:100B40005A00019202E0019B013B0193019B002BA3
:100B5000F9D186E7022088E7002001400023014008
:100B600010010020074AD36823F4E0631B041B0C28
:100B7000000200F4E060184340F0BF6040F4003031
:100B8000D060704700ED00E030B4174BDB68C3F372
:100B90000223C3F10704042C28BF04241D1D062DC5
:100BA00018D9033B4FF0FF3505FA04F421EA04019C
:100BB000994005FA03F322EA0303194300280BDBEB
:100BC0000901C9B200F1604000F5614080F80013EE
:100BD00030BC70470023E5E700F00F000901C9B2FF
:100BE000024B1954F4E700BF00ED00E014ED00E003
:100BF00000F01F02400901239340024A42F82030CE
:100C0000704700BF00E100E00138B0F1807F0AD2F8
:100C1000064B5860064AF02182F8231000209860A5
:100C200007221A6070470120704700BF10E000E003
:100C300000ED00E0042805D0054A136823F0040302
:100C400013607047024A136843F00403136070474F
:100C500010E000E0704708B5FFF7FCFF08BD30B4B6
:100C600005682C6824F480242C6004686360836821
:100C7000402B05D0036899600368DA6030BC704788
:100C800003689A600368D960F8E738B590F8344093
:100C9000012C1FD00446012084F83400022084F87F
:100CA00035002568286820F0010028602046FFF7FD
:100CB000D6FF2268136843F01E031360226853694D
:100CC00043F0800353612268136843F0010313600B
:100CD000002038BD0220FCE738B5044602681368DE
:100CE00023F001031360FFF781FC054623681B68AE
:100CF00013F0010F10D0FFF779FC401BB0F57A7F9D
:100D0000F4D9E36C43F02003E364002384F8343027
:100D1000032084F8350005E0002084F83400012326
:100D200084F8353038BD000000230F2B00F2DD8041
:100D3000F0B482B039E0082200E00022B2403A4329
:100D400002346A4E46F82420694A1468EA4302EAEB
:100D500004064F6817F4803F01D045EA0406644C4E
:100D60002660646802EA04064F6817F4003F01D069
:100D700045EA04065E4C6660A46802EA04064F6811
:100D800017F4801F01D045EA0406594CA660E468B8
:100D900022404E6816F4001F01D045EA0402544C6C
:100DA000E26001330F2B00F29D8001229A400C6813
:100DB00004EA0205AA42F4D14C68022C01D0122C9C
:100DC00010D1DE08083650F826C003F00704A7004B
:100DD0000F24BC402CEA040C0C69BC4044EA0C040F
:100DE00040F8264004685F000326BE40F64306EA4A
:100DF000040C4C6804F00304BC4044EA0C04046096
:100E00004C6804F1FF3CBCF1010F03D9112C01D057
:100E1000122C10D1846806EA040CCC68BC4044EA69
:100E20000C048460446824EA02024C68C4F3001491
:100E30009C4014434460C26816408A68BA403243FA
:100E4000C2604A6812F0805FABD000220192294A4A
:100E5000546C44F480445464526C02F48042019215
:100E6000019A9C08A61C214A52F8267003F003023E
:100E700096000F22B24027EA02071F4A90423FF431
:100E80005CAF02F5806290421ED002F58062904213
:100E90001CD002F5806290421AD002F58062904226
:100EA00018D002F58062904216D002F5806290421E
:100EB00014D002F58062904212D002F58062904216
:100EC0003FF439AF092239E7012237E7022235E73B
:100ED000032233E7042231E705222FE706222DE71C
:100EE00007222BE702B0F0BC704770470038014082
:100EF000003C0140003802400000024012B90904E1
:100F00008161704781617047002800F0828010B5D0
:100F1000044690F83D30002B41D0242384F83D3026
:100F20002268136823F00103136001F0F1FB3A4BD0
:100F3000A3FB00239B0C226853606168374A9142EF
:100F400032D80133226813626368344A934235D839
:100F50005B00B0FBF3F0C0F30B03032B00D80420BD
:100F60002368D861E369216A22680B43136023690F
:100F7000E16822680B4393606369A16922680B43AF
:100F8000D3602268136843F00103136000202064DB
:100F9000202384F83D30206384F83E0010BD80F8A3
:100FA0003C3005F033FFB8E74FF4967202FB03F3D1
:100FB0001B4AA2FB03239B090133C3E7A16889B93C
:100FC00003EB4302B0FBF2F2C2F30B02B2FA82F27D
:100FD0005209E2B991B903EB4303B0FBF3F040F4DB
:100FE0000040BDE703EB830202EB8202B0FBF2F2AA
:100FF000C2F30B02B2FA82F25209EAE703EB83036F
:1010000003EB8303B0FBF3F040F44040A8E701207A
:10101000A6E70120704700BF83DE1B43A0860100C6
:10102000D34D6210704708B5436A9A1C4262026849
:101030001B88D360438D013B9BB24385438D9BB29C
:1010400003B108BD0268536823F0A0031B041B0C06
:101050005360012380F84130FFF7E4FFF1E7704768
:1010600008B50368DA68C36A991CC1621A80438EA6
:10107000013B9BB24386438E9BB203B108BD02681D
:10108000536823F060031B041B0C5360012380F89A
:101090004130FFF7E4FFF1E770470000002800F05F
:1010A000BB8070B50446022580F841505B4B43631A
:1010B00005F0D6FE2268D36923F47B6323F00F0387
:1010C000D36123681D622368DD696369022B5BD0ED
:1010D000E368002B3ED02026A368202B00D87600A2
:1010E000012001F0DFFB2369B3F5007F34D0B0FBB2
:1010F000F6F000EB800043006269B3FBF2F30533C6
:10110000474AA2FB0323DB0803F001029B1AC3F347
:101110004F0311029A1EFD2A38D822690A4321681A
:1011200013430B626268A168E068238B03439BB2A0
:101130000B439BB213439BB243F400631D432368EC
:10114000DD61236A012B2AD000206064012384F82A
:10115000413070BD1026BFE7E36853B1B600B0FB65
:10116000F6F000EB800043006269B3FBF2F3053355
:10117000C6E7F600B0FBF6F000EB800043006269C2
:10118000B3FBF2F30533BBE70021C3E7636C43F025
:10119000100363642046FFF77FFF0120D9E7214B4E
:1011A00063632268204B9A421ED04FF04022D369DD
:1011B00023F47B6323F00F03D36122681A4B9A4216
:1011C00014D04FF0402302221A622268164B9A4232
:1011D0000FD04FF04022D0696168B1F5007F0AD08E
:1011E000C1B94FF4807608E0104AE0E7A3F58063C8
:1011F000E9E70E4AEFE74FF48076A168E568238BB4
:101200002B439BB20B439BB2334343F40063034332
:10121000D36199E70026F0E70120704731120008FA
:10122000CDCCCCCC4D140008003800400034004038
:1012300010B584B0044602689368039390F8413077
:10124000DBB2042B06D094F84130DBB2032B2ED056
:1012500004B010BD039B13F0010F03D0536813F0CB
:10126000400F21D1039B13F0400FECD023685A6844
:1012700012F0200FE7D05A6822F060021204120C1C
:101280005A60002301932368DA6801929B680193F6
:10129000019B012384F84130636C43F002036364D3
:1012A0002046FFF7F9FECEE7FFF7DAFEDAE7039B09
:1012B00013F0020F04D023685B6813F0800F1FD176
:1012C000039B13F0080FC3D023685A6812F0200F55
:1012D000BED05A6822F0A0021204120C5A600023F9
:1012E000029323689B680293029B012384F8413098
:1012F000636C43F0040363642046FFF7CDFEA7E769
:101300002046FFF790FEDBE77047000008B5E9B91B
:10131000436A9A1C426202681B88D360438D013B7A
:101320009BB24385438D9BB24BB90268536823F04F
:10133000A0031B041B0C5360438E9BB203B108BD7A
:10134000012380F84130FFF7DFFFF8E7436A9A1C7A
:1013500042621A880168134B99421ED04FF0402315
:10136000DA60438D013B9BB24385438D9BB2002BDA
:10137000E5D102680B4B9A4212D04FF040225368DD
:1013800023F0A0035360438E9BB2002BD7D10123DF
:1013900080F84130FFF7B8FFD1E7A3F58063DFE7BE
:1013A000014AECE7003800400034004008B5E9B9D4
:1013B0000368DA68C36A991CC1621A80438E013BD4
:1013C0009BB24386438E9BB24BB90268536823F0AD
:1013D00060031B041B0C5360438D9BB203B108BD1B
:1013E000012380F84130FFF78FFFF8E70268154BC3
:1013F0009A4222D04FF04023DA68C36A991CC16236
:101400001A80438E013B9BB24386438E9BB2002BD6
:10141000E5D102680B4B9A4212D04FF0402253683C
:1014200023F060035360438D9BB2002BD7D101237F
:1014300080F84130FFF768FFD1E7A3F58063DBE771
:10144000014AECE7003800400034004010B584B099
:10145000044603689A6803927C4A93425DD04FF039
:1014600040218A680292DA6902F44072B2F5007F84
:1014700004D0DA6912F4407F40F08180039A12F0C0
:10148000020F03D05B6813F0800F48D1029B13F06A
:10149000010F09D022686D4B9A4245D04FF040238E
:1014A0005B6813F0400F42D1029B13F0400F09D04C
:1014B0002268664B9A423FD04FF040235A6812F0A0
:1014C000200F3CD1039B13F0080F24D023685A68E7
:1014D00012F0200F1FD05A6822F0A0021204120C42
:1014E0005A602268594B9A4247D04FF040225368C5
:1014F00023F0600353600023019323689B680193EA
:10150000019B012384F84130636C43F0040363645E
:101510002046FFF7C1FD04B010BD4D49A1E70021F1
:101520002046FFF7F3FEB1E7A3F58063B8E701219A
:101530002046FFF73BFFB7E7A3F58063BEE75A6895
:1015400022F060025A602268536823F0A0031B0453
:101550001B0C5360002300932368DA6800929B6899
:101560000093009B012384F84130636C43F0020335
:1015700063642046FFF790FDA4E7354AB7E7029B76
:1015800013F0020F03D04B6813F0800F4FD1039B71
:1015900013F0010F04D023685B6813F0400F4BD1A8
:1015A000039B13F0400F1ED023685A6812F0200FDF
:1015B00019D05A6822F060021204120C5A60226894
:1015C000224B9A423DD04FF04022536823F0A003B3
:1015D0005360012384F84130636C43F00203636479
:1015E0002046FFF759FD029B13F0080F93D02268A5
:1015F000164B9A4227D04FF040235A6812F0200F22
:1016000089D05A6822F0A0025A602268536823F0F9
:1016100060031B041B0C5360012384F84130636C8E
:1016200043F0040363642046FFF736FD73E70121AE
:101630002046FFF76BFEAAE700212046FFF7B6FE23
:10164000AEE7034AC1E7A3F58063D6E70038004060
:1016500000340040704708B310B50446437BCBB15B
:1016600002236373236845F255521A602268536857
:1016700023F0070361680B4353602268936823F4E7
:101680007F6323F00F03A1680B439360012363730F
:10169000002010BD0373FFF7DDFFE1E70120704775
:1016A000037B012B0FD00223437303684CF6CC421B
:1016B0001A6003684AF6AA221A60012343730023C2
:1016C0000373184670470220704738B5037B012B1F
:1016D0001FD004460123037302234373FEF786FFE2
:1016E00005462368DA6812F0020F0AD0FEF77EFF83
:1016F000401BB0F57A7FF4D9032060730023237375
:1017000006E04AF6AA221A600123637300202073C0
:1017100038BD0220FCE72DE9F04383B007460D46B3
:10172000D0F80080CA00521A93000344DE6C1A6D90
:10173000B61A1B6C9E4200D91E4606F103094FEAF9
:10174000990915E006F103094FEA9909EB005B1BC3
:101750009C003C44616C3B7C0093B3B2EAB24046CF
:1017600002F064F8636C33446364236D334423658F
:10177000414608EB451303F510639B699BB24B454B
:1017800012D9EA00521B93003B441A6DDB6C9A425B
:101790000AD24BB19E1AC5EBC50293003B441B6CA9
:1017A0009E42CFD91E46CDE73EB90123AB40D1F8CA
:1017B000345825EA0305C1F83458002003B0BDE8C9
:1017C000F08300286BD0F0B58BB00446032380F87B
:1017D000B93305F081FC206801F074FC254655F80A
:1017E000107B6E460FCD0FC60FCD0FC695E80300D8
:1017F00086E80300231D0ECB384601F01FFC0021B4
:10180000206801F065FC002210E0D100891A8B00ED
:101810002344012183F8391083F83820DA87002126
:1018200083F83B1019645964D96401320E2AECD94B
:10183000002218E0D100891A8B002344002183F88C
:10184000F91183F8F821DA8783F8FB11C3F8001245
:10185000C3F80412C3F80C12236802F1400003EB32
:101860008003596001320E2AE4D9254655F8107BD1
:101870006E460FCD0FC60FCD0FC695E8030086E864
:101880000300231D0ECB384601F038FC012384F8F9
:10189000B933206802F075F800200BB0F0BD0120CC
:1018A000704790F8B833012B0ED010B504460123D1
:1018B00080F8B833006802F058F8206801F0FCFBAB
:1018C000002084F8B80310BD022070472DE9F047CE
:1018D00004460568284602F08FF808B1BDE8F08795
:1018E0000646206802F059F80028F7D0206802F078
:1018F00054F810F0020F04D02268536903F0020379
:101900005361206802F049F810F4002F75D1374672
:10191000206802F042F810F4802F40F0D280206856
:1019200002F03BF80028C0F23E81206802F035F852
:1019300010F4006F0AD0D5F8083813F0010F40F00A
:1019400041812268536903F400635361206802F007
:1019500024F810F4805F40F03981206802F01DF80F
:1019600010F4005F40F08281206802F016F810F059
:10197000100F14D02268936923F0100393612E6A2C
:1019800006F00F08C6F34343022B00F00382062B38
:1019900000F021822268936943F01003936120686C
:1019A00001F0FBFF10F0080F40F02982206801F0E1
:1019B000F4FF10F4801F40F02B82206801F0EDFF4F
:1019C00010F4001F40F02E82206801F0E6FF10F0B6
:1019D000804F40F03182206801F0DFFF10F0040FEB
:1019E0003FF47CAF23685D6815F0040F40F02D8252
:1019F000226853682B43536070E7206801F0D1FFE1
:101A00008046374621E0F900C91B8A002244D2F8FB
:101A100000121B69C3F31203C91AC2F81012D2F8DC
:101A20000012D2F804320B44C2F8043228E019F054
:101A3000080F3DD119F0100F04D005EB4713102209
:101A4000C3F8082B01374FEA5808B8F1000F3FF4EC
:101A50005FAF18F0010FF5D05FFA87FA51462068A2
:101A600001F0AFFF814610F0010FE0D005EB471306
:101A70000122C3F8082B03F530632269012AC2D082
:101A80005146204605F078FB2369012BCFD1002F6A
:101A9000CDD1C7EBC70293002344D3F80C32002BFF
:101AA000C5D104F56F720121206801F0C5FFBEE7C2
:101AB000204605F059FB05EB47130822C3F8082B15
:101AC000B8E7206801F075FF804637462EE0FA003F
:101AD000D21B93002344196C5A6C0A445A6446E0A2
:101AE00019F0080F04D005EB47130822C3F80829A2
:101AF00019F0100F04D005EB47131022C3F8082982
:101B000019F0400F04D005EB47134022C3F8082911
:101B100019F0020F04D005EB47130222C3F808297D
:101B200019F0800F3AD101374FEA5808B8F1000F89
:101B30003FF4F5AE18F0010FF5D05FFA87FA514681
:101B4000206801F047FF814610F0010FC8D0012244
:101B500002FA07F0D5F8343823EA0003C5F8343820
:101B600005EB4713C3F8082923699342AFD05146C8
:101B7000204605F00DFB2369012BB1D1002FAFD119
:101B8000C7EBC70293002344DB6C002BA8D104F5FC
:101B90006F720121206801F04FFFA1E7394620460E
:101BA000FFF7B9FDBFE7D5F8043823F00103C5F806
:101BB0000438204605F026FB2268536903F00043F1
:101BC0005361B2E6204605F005FBBAE6A94605F5E5
:101BD0000068D8F8043023F00103C8F8043010215D
:101BE000206801F033FB07E009EB4613FF22C3F83E
:101BF0000829C3F8082B01366368B342F4D84FF0C4
:101C0000FF33C8F81830D8F81C3043F00113C8F877
:101C10001C30236BEBB1D8F8843043F00B03C8F8C9
:101C20008430D8F8443043F00B03C8F84430D5F87A
:101C3000003823F4FE63C5F8003804F56F72217C88
:101C4000206801F0F9FE2268536903F48053536160
:101C500083E6D8F8143043F00B03C8F81430D8F8F2
:101C6000103043F00B03C8F81030E0E7206801F0B3
:101C7000C7FE2268D36823F47053D360206801F054
:101C800012FB90B90023E3604FF400736361226894
:101C9000D36843F41053D360204605F08AFA2268D3
:101CA000536903F4005353615EE60323E36040236A
:101CB000636100F027FD674B0344674A934205D8F0
:101CC0002268D36843F47053D360E5E7634B034461
:101CD000634A934205D82268D36843F46053D360C3
:101CE000DAE7A0F57403A3F510535E4A934205D8D2
:101CF0002268D36843F45053D360CDE7A0F18373D7
:101D0000A3F5E743584A934205D82268D36843F4C1
:101D10004053D360C0E7554B0344554A934205D81E
:101D20002268D36843F43053D360B5E7514B034482
:101D3000514A934205D82268D36843F42053D360B4
:101D4000AAE74E4B03444E4A934205D82268D36813
:101D500043F41053D3609FE7A0F1B773A3F5585332
:101D6000484A934205D82268D36843F40053D360AD
:101D700092E7454B0344454A934205D82268D3680D
:101D800043F4E053D36087E72268D36843F4C05339
:101D9000D36081E747F6F0731E423FF4FBAD36098E
:101DA0004FEAC80AAAEB08034FEA8309A144C6F325
:101DB0000A02D9F80412284601F04CFDC6F30A06BF
:101DC000D9F804323344C9F80432D9F810321E4429
:101DD000C9F81062DEE5082204F56F71284601F0AB
:101DE00039FDC6F30A164FEAC803A3EB08018A00BF
:101DF0002244D2F810321E44C2F81062CAE52046CE
:101E000005F0D1F92268536903F008035361CDE569
:101E1000F9B2204605F002FA2268536903F48013F0
:101E20005361CAE5F9B2204605F0F2F92268536918
:101E300003F400135361C7E5204605F0F5F9226865
:101E4000536903F080435361C5E5204605F0F2F97C
:101E5000CEE500BF405327FFFF340C00401E1BFFA0
:101E60003F420F007F4F12001FD6130060B6E5FE01
:101E70005FE3160000D3CEFE3F771B00C05BB3FECE
:101E8000BF9121001F753800E05459FEDF9C4100CE
:101E900090F8B833012B0BD010B50446012380F81D
:101EA000B833006801F051FD002084F8B80310BD7C
:101EB0000220704770B54DB2002D22DB01F07F0685
:101EC000C6EBC606B40004F5FC74044401F07F01BF
:101ED0002170ED0F6570A260E37005B1E180022B07
:101EE00017D090F8B833012B16D00546012380F89F
:101EF000B8332146006801F0F6F9002085F8B803F0
:101F000070BD01F07F06C6EBC606B4003834044449
:101F1000DCE700232371E4E70220F1E710B54AB2C1
:101F2000002A1CDB01F07F04C4EBC404A30003F50A
:101F3000FC73034401F07F011970D20F5A7090F8BE
:101F4000B823012A13D00446012280F8B823194689
:101F5000006801F011FA002084F8B80310BD01F008
:101F60007F04C4EBC404A30038330344E2E7022037
:101F7000F4E770B501F07F06F500A91B8C0004F5AD
:101F8000FC740119AD1BAC000444C4F80422C4F86D
:101F90000C320023C4F8103284F8F93184F8F86167
:101FA0000369012B06D066B1DAB2006801F05CFA71
:101FB000002070BDC6EBC605AC000444C4F808227E
:101FC000F1E7DAB2006801F081FBF1E701F00F01FF
:101FD000C1EBC1018B001844B0F81002704770B516
:101FE00001F07F06F500A91B8C0038340119AD1BE8
:101FF000AC0004446264E36400232365012384F895
:10200000393084F838600369012B06D05EB1DAB24A
:10201000006801F029FA002070BDC6EBC605AC00CF
:102020000444A264F2E7DAB2006801F04FFBF2E781
:1020300038B54AB2002A1DDBC1EBC104A30003F589
:10204000FC73034401249C7001F07F041C70D20FC8
:102050005A7090F8B823012A1BD00546012280F857
:10206000B8231946006801F009FC5CB1002085F82E
:10207000B80338BD01F07F04C4EBC404A3003833B7
:102080000344DFE705F56F72297C286801F0D4FC72
:10209000ECE70220EDE710B54AB2002A1CDBC1EBE9
:1020A000C104A30003F5FC73034400249C7001F0F9
:1020B0007F011970D20F5A7090F8B823012A13D0FB
:1020C0000446012280F8B8231946006801F008FC94
:1020D000002084F8B80310BD01F07F04C4EBC404F1
:1020E000A30038330344E0E70220F4E730B4046887
:1020F000606A29B10D46A36A00EB134000230CE08F
:1021000040EA0240A06212E003F1400104EB8101C9
:10211000496800EB11400133DBB2691E8B42F3DBEF
:1021200040EA024005F13F0104EB810148600020D4
:1021300030BC70470368596200207047002800F0E7
:10214000BB8170B582B00446036813F0010F3BD029
:10215000A74B9B6803F00C03042B2CD0A44B9B686B
:1021600003F00C03082B21D06368B3F5803F4FD0F8
:10217000B3F5A02F52D09E4B1A6822F480321A6019
:102180001A6822F480221A606368002B50D0FEF790
:102190002DFA0546964B1B6813F4003F14D1FEF749
:1021A00025FA401B6428F5D903208AE1904B5B682F
:1021B00013F4800FD8D08E4B1B6813F4003F03D06C
:1021C0006368002B00F07A81236813F0020F55D06A
:1021D000874B9B6813F00C0F3ED0854B9B6803F038
:1021E0000C03082B33D0E368002B68D0814B01220D
:1021F0001A60FEF7FBF905467D4B1B6813F0020FD2
:1022000054D1FEF7F3F9401B0228F5D9032058E119
:10221000774A136843F480331360B5E7744B1A6848
:1022200042F480221A601A6842F480321A60ABE7E6
:10223000FEF7DCF905466E4B1B6813F4003FC3D074
:10224000FEF7D4F9401B6428F5D9032039E1684B27
:102250005B6813F4800FC6D1654B1B6813F0020F47
:1022600004D0E368012B01D001202AE1604A136801
:1022700023F0F803216943EAC1031360236813F0D4
:10228000080F40D0636963B35B4B01221A60FEF70D
:10229000ADF90546564B5B6F13F0020F33D1FEF7D5
:1022A000A5F9401B0228F5D903200AE1504A13681A
:1022B00023F0F803216943EAC1031360DEE74D4BC5
:1022C00000221A60FEF792F90546494B1B6813F08D
:1022D000020FD3D0FEF78AF9401B0228F5D903205C
:1022E000EFE0454B00221A60FEF780F90546404BAF
:1022F0005B6F13F0020F06D0FEF778F9401B02283F
:10230000F5D90320DDE0236813F0040F79D0384BB2
:102310001B6C13F0805F33D100230193344B1A6C94
:1023200042F080521A641B6C03F080530193019BAE
:102330000125324B1B6813F4807F23D0A368012B47
:1023400034D0052B38D02A4B1A6F22F001021A67BD
:102350001A6F22F004021A67A368002B36D0FEF72A
:1023600045F90646224B1B6F13F0020F48D1FEF7CA
:102370003DF9801B41F288339842F3D90320A0E055
:102380000025D6E71D4A136843F480731360FEF7F7
:102390002DF90646194B1B6813F4807FCED1FEF74A
:1023A00025F9801B0228F5D903208AE0104A136F13
:1023B00043F001031367CFE70D4B1A6F42F004029D
:1023C0001A671A6F42F001021A67C5E7FEF70EF9A5
:1023D0000646074B1B6F13F0020F11D0FEF706F9EC
:1023E000801B41F288339842F3D9032069E000BF93
:1023F0000038024000004742800E47420070004013
:10240000E5B9A369002B5BD0304A926802F00C0258
:10241000082A58D0022B17D02D4B00221A60FEF745
:10242000E5F80446294B1B6813F0007F42D0FEF705
:10243000DDF8001B0228F5D9032042E0234A136C83
:1024400023F080531364DCE7214B00221A60FEF76F
:10245000CDF805461D4B1B6813F0007F06D0FEF734
:10246000C5F8401B0228F5D903202AE0E369226A57
:102470001343626A43EA8213A26A5208013A43EAAA
:102480000243E26A43EA0263104A5360104B01229E
:102490001A60FEF7ABF804460C4B1B6813F0007F84
:1024A00006D1FEF7A3F8001B0228F5D9032008E0A7
:1024B000002006E0002004E001207047012000E039
:1024C000002002B070BD0120FBE700BF00380240D1
:1024D00060004742324B9B6803F00C03042B5CD036
:1024E000082B01D02F4870472DE9F04B2C4B5A6830
:1024F00002F03F025B6813F4800F2BD0284B5B681F
:10250000C3F388131E4600275C010025E41A65EB1F
:102510000705A90141EA9461A001001B61EB0501D7
:10252000CB0043EA5073C400A01943EB07014B02F0
:1025300043EAD0534402204619460023FDF748FEE3
:10254000174B5B68C3F3014301335B00B0FBF3F04F
:10255000BDE8F08B124B5B68C3F388131E4600275F
:102560005C010025E41A65EB0705A90141EA9461C5
:10257000A001001B61EB0501CB0043EA5073C400CE
:10258000A01943EB07018B0243EA905384022046D3
:1025900019460023FDF71CFED2E70348704700BF31
:1025A000003802400024F40000127A00002800F0F5
:1025B0009D8070B504464F4B1B6803F00F038B42A0
:1025C00009D2CBB24B4A1370136803F00F038B424E
:1025D00001D0012070BD236813F0020F17D013F053
:1025E000040F04D0444A936843F4E0539360236893
:1025F00013F0080F04D0404A936843F4604393609B
:102600003D4A936823F0F003A068034393600D46AE
:10261000236813F0010F32D06368012B21D09A1E7A
:10262000012A25D9344A126812F0020F60D03249CB
:102630008A6822F0030213438B60FDF7D7FF06463A
:102640002D4B9B6803F00C036268B3EB820F16D02E
:10265000FDF7CCFF801B41F288339842F0D903206C
:10266000B8E7254A126812F4003FE0D10120B1E733
:10267000214A126812F0007FD9D10120AAE71D4B30
:102680001B6803F00F03AB4209D9EAB2194B1A7069
:102690001B6803F00F03AB4201D001209AE72368C7
:1026A00013F0040F06D0144A936823F4E053E16852
:1026B0000B439360236813F0080F07D00E4A93680A
:1026C00023F46043216943EAC1039360FFF702FFEB
:1026D000094B9B68C3F30313084AD35CD840084BEB
:1026E00018600020FDF74CFF002073E701207047C1
:1026F00001206FE7003C024000380240808600085D
:1027000010010020014B1868704700BF1001002025
:1027100008B5FFF7F7FF044B9B68C3F38223034A16
:10272000D35CD84008BD00BF003802409086000846
:1027300008B5FFF7E7FF044B9B68C3F34233034A36
:10274000D35CD84008BD00BF003802409086000826
:1027500030B583B00446036813F0050F06D1236833
:1027600013F0020F2ED1002003B030BD494B0022E0
:102770001A60FDF73BFF0546474B1B6813F0006FDF
:1027800006D0FDF733FF401B0228F5D90320EBE705
:102790006268A3681B0743EA82133F4AC2F8843089
:1027A0003C4B01221A60FDF721FF05463A4B1B689E
:1027B00013F0006FD3D1FDF719FF401B0228F5D9A4
:1027C0000320D1E700230193334B1A6C42F080526F
:1027D0001A641B6C03F080530193019B2F4A13680A
:1027E00043F480731360FDF701FF05462B4B1B6814
:1027F00013F4807F06D1FDF7F9FE401B0228F5D9BE
:102800000320B1E7244B1B6F13F4407312D0E2682E
:1028100002F440729A420DD01F4B1A6F22F440729C
:102820001F4901200860002008601A671B6F13F021
:10283000010F13D1E36803F44072B2F5407F1ED05C
:10284000154A936823F4F813936013490B6FE268F9
:10285000C2F30B0213430B67002085E7FDF7C6FEAA
:1028600005460D4B1B6F13F0020FE3D1FDF7BEFEC3
:10287000401B41F288339842F3D9032074E706499C
:102880008A6822F4F81223F0704323F44073134350
:102890008B60DAE768004742003802400070004071
:1028A000400E474201282AD1174B9B6813F40003BE
:1028B00003D0012B25D115487047134B5B6813F4E7
:1028C000800F14D0104B5B6803F03F031048B0FB3F
:1028D000F3F00D4AD2F88430C3F3881300FB03F001
:1028E000D2F88430C3F30273B0FBF3F07047064BA9
:1028F0005B6803F03F030748B0FBF3F0E9E7002013
:1029000070470020704700BF003802400080BB00C5
:1029100000127A000024F400F8B505460F4616466A
:102920001C462B689B683B40B34238D0B4F1FF3F54
:10293000F7D02CB1FDF75AFE069BC01AA042F0D387
:102940002A68536823F0E00353606B68B3F5827F15
:102950000BD0AB6AB3F5005F14D0012385F851307A
:10296000002385F8503003201AE0AB68B3F5004F20
:1029700002D0B3F5806FECD12A68136823F04003CE
:102980001360E6E72A68136823F400531B041B0C4A
:1029900013602A68136843F400531360DDE70020D6
:1029A000F8BD10B582B0044600920B46002280218B
:1029B000FFF7B2FF034610B9184602B010BD636DB1
:1029C00043F0200363650323F6E7002841D010B5E8
:1029D000044690F85130002B32D0022384F8513055
:1029E0002268136823F0400313606368A2681343EE
:1029F000E26813432269134362691343A26902F434
:102A000000721343E2691343226A1343A16A2268E6
:102A10000B431360638B03F00403616A22680B436A
:102A20005360A36AB3F5005F0FD02268D36923F423
:102A30000063D36100206065012384F8513010BD2C
:102A400080F8503004F040FAC7E72368E26A1A6160
:102A5000EBE7012070472DE9F04385B099460C9DC6
:102A60000023ADF80E3090F85030012B00F01981A2
:102A700004460E461746012380F85030FDF7B6FD98
:102A8000804694F85130DBB2012B19D06368B3F55E
:102A9000827F0AD00226012384F85130002384F873
:102AA0005030304605B0BDE8F083A368002B40F0FD
:102AB000F08094F85130DBB2042B01D00226EAE713
:102AC000002E00F0E880002F00F0E780B9F1000F41
:102AD00000F0E58094F85130DBB2012B1FD00023C9
:102AE0006365A763A4F83E90A4F83C902663A4F81D
:102AF0003690A4F8349023646364A36AB3F5005F4E
:102B000011D023681A6812F0400F03D11A6842F0FE
:102B100040021A60E368B3F5006F60D120E005233E
:102B200084F85130DBE72268136823F400531B0458
:102B30001B0C13602268136843F400531360E0E732
:102B4000E38F53B123689A6812F0010F05D0DB6858
:102B500027F8023BE38F013BE387B5F1FF3F1ED12E
:102B6000E38E13B9E28F002A5BD0002BE8D02368F4
:102B70009A6812F0020FE3D036F8022BDA60E38E87
:102B8000013B9BB2E386002BDAD1A36AB3F5005F69
:102B9000D6D12268136843F480531360D0E7FDF761
:102BA00025FDA0EB0800A842DAD3032673E72268CC
:102BB000136843F4805313600E4600E00E46E38F23
:102BC00053B123689A6812F0010F05D0DB683B709F
:102BD000E38F013BE3870137B5F1FF3F19D1E38E66
:102BE0000BB9E28FEAB1002BE9D023689A6812F0A2
:102BF000020FE4D0711C32781A73E38E013B9BB252
:102C0000E386002BDAD1A36AB3F5005FCFD00E467E
:102C1000D5E7FDF7EBFCA0EB0800A842DFD30326C5
:102C200039E7A36AB3F5005F1AD023689A6812F0F7
:102C3000100F2CD0626D42F0020262654FF6EF7207
:102C40009A600126424629462046FFF7AAFE002840
:102C50003FF421AF636D43F02003636501261AE75B
:102C6000CDF800802B46012211462046FFF754FE86
:102C700028B1636D43F00203636503260BE7236805
:102C8000DB689BB2ADF80E30BDF80E30CDE7002604
:102C9000D8E70226FFE60126FDE60126FBE601262F
:102CA000F9E60226FDE600002DE9F8430446016836
:102CB0000A6922F44052C36813430B610168CA6871
:102CC00022F4164222F00C02836800690343606913
:102CD0000343E06903431343CB6021684A6922F44C
:102CE0004072A36913434B61E369B3F5004F60D0B1
:102CF0002368B84A934200F0148102F5806293423F
:102D000000F00F81FFF704FD00EB800000EB800076
:102D10006568AD00B0FBF5F5AF4FA7FB05356D0954
:102D20002E01FFF7F5FC00EB800000EB80006568EA
:102D3000AD00B0FBF5F9FFF7EBFC00EB800000EB1A
:102D400080006568AD00B0FBF5F5A7FB05356D09A2
:102D50004FF0640808FB15952D013235A7FB0535AA
:102D60006D0905F0F0053544FFF7D2FC00EB80005B
:102D700000EB80006668B600B0FBF6F6FFF7C8FC13
:102D800000EB800000EB800063689B00B0FBF3F079
:102D9000A7FB0030400908FB10684FEA081808F14B
:102DA0003208A7FB0837C7F3431723682F449F60F7
:102DB0000DE12368874A93425BD002F5806293421B
:102DC00057D0FFF7A5FC00EB800000EB80006568A2
:102DD0006D00B0FBF5F5804FA7FB05356D092E01A1
:102DE000FFF796FC00EB800000EB800065686D004B
:102DF000B0FBF5F9FFF78CFC00EB800000EB8000E6
:102E000065686D00B0FBF5F5A7FB05356D094FF062
:102E1000640808FB1595ED003235A7FB05356D09F3
:102E20006D0005F4F8753544FFF772FC00EB800087
:102E300000EB800066687600B0FBF6F6FFF768FCF2
:102E400000EB800000EB800063685B00B0FBF3F3F5
:102E5000A7FB03235B0908FB13684FEAC80808F1C6
:102E60003208A7FB0837C7F3421723682F449F6037
:102E7000ADE0FFF75DFC00EB800000EB80006568D3
:102E80006D00B0FBF5F5544FA7FB05356D092E011C
:102E9000FFF74EFC00EB800000EB800065686D00E2
:102EA000B0FBF5F9FFF744FC00EB800000EB80007D
:102EB00065686D00B0FBF5F5A7FB05356D094FF0B2
:102EC000640808FB1595ED003235A7FB05356D0943
:102ED0006D0005F4F8753544FFF72AFC00EB80001F
:102EE00000EB800066687600B0FBF6F6FFF720FC8A
:102EF00000EB800000EB800063685B00B0FBF3F345
:102F0000A7FB03235B0908FB13684FEAC80808F115
:102F10003208A7FB0837C7F3421723682F449F6086
:102F200055E0FFF705FC00EB800000EB80006568D2
:102F3000AD00B0FBF5F5284FA7FB05356D092E0157
:102F4000FFF7F6FB00EB800000EB80006568AD004A
:102F5000B0FBF5F9FFF7ECFB00EB800000EB800025
:102F60006568AD00B0FBF5F5A7FB05356D094FF0C1
:102F7000640808FB15952D013235A7FB05356D0951
:102F800005F0F0053544FFF7D3FB00EB800000EBC4
:102F900080006668B600B0FBF6F6FFF7C9FB00EBF1
:102FA000800000EB800063689B00B0FBF3F0A7FBA0
:102FB0000030400908FB10684FEA081808F1320891
:102FC000A7FB0837C7F3431723682F449F60BDE86A
:102FD000F88300BF001001401F85EB51704758B3C4
:102FE00010B5044690F839300BB3242384F83930F7
:102FF0002268D36823F40053D3602046FFF754FEC1
:103000002268136923F4904313612268536923F003
:103010002A0353612268D36843F40053D36000202D
:10302000E063202384F8393084F83A3010BD80F80A
:103030003830FFF7D3FFD8E70120704784B010B5D0
:10304000044603A880E80E00089B012B20D1A36B47
:1030500023F48033A363E36823F4840323F0400361
:10306000E360E36823F44013E3600F9B012B0AD075
:10307000204600F005FD069B012B14D00020BDE882
:10308000104004B07047E36843F48013E360EFE757
:10309000E36843F04003E360204600F0F1FC4FF4A6
:1030A0008033A363E7E7A36843F00603A360A36844
:1030B00043F02003A360E1E7836843F001038360EA
:1030C00000207047836823F001038360002070476D
:1030D00008B5C36823F0C043C360012909D019B9FA
:1030E000C36843F08043C3603220FDF785FA0020B7
:1030F00008BDC36843F00053C360F5E784B0F8B57A
:10310000044607A880E80E00119FBFB9A36B43F4E3
:103110000013A36325460023C4F8003E04F50066AF
:10312000D4F80038C4F800380C9B012B10D1099B4F
:103130004BB90021204600F0AFF80DE0A36B43F43B
:103140000023A363E6E70121204600F0A5F803E091
:103150000321204600F0A0F81021204600F076F868
:10316000204600F087F80023336173614FF0FF328F
:10317000B261F36108E04FF09040C2F8000900220C
:103180000A61FF228A600133079999420BD905EB46
:10319000431202F51061D2F800090028EBDB002091
:1031A000C2F80009EBE7002308E04FF0904CC2F8AA
:1031B00000CB00220261FF228260013399420DD9C7
:1031C00005EB431202F53060D2F800CBBCF1000FE2
:1031D000EBDB4FF0000CC2F800CBEAE7336923F4D5
:1031E000807333610A9B012B1AD00022A2616FF019
:1031F000804262611BB9A36943F01003A361A26915
:10320000104B1343A3610D9B1BB1A36943F008034B
:10321000A361012F0ED00020BDE8F84004B0704734
:10322000094A3263326B42F4803242F00302326365
:10323000326BDAE7A36943F0804343F00403A361F0
:10324000E9E700BF00383C8000018000890141F0BF
:103250002001016100230133054A934205D8026928
:1032600012F0200FF7D1002070470320704700BFF5
:10327000400D03001023036100230133054A9342EC
:1032800005D8026912F0100FF7D100207047032013
:10329000704700BF400D0300D0F800381943C0F854
:1032A000001800207047D0F8083800F5006013F0CF
:1032B000060F10D0836803F00603022B0DD083683D
:1032C00003F00603062B0AD0836803F00603042BE1
:1032D00007D000207047002070470320704703206C
:1032E00070470220704730B44B78012B22D0D0F8C1
:1032F0001C380D780122AA4043EA0243C0F81C386A
:103300000B7800EB4310D0F8003B13F4004F0ED1C4
:10331000D0F8003B8A68C2F30A02C97842EA8142C7
:10332000134343F0805343F40043C0F8003B0020B4
:1033300030BC7047D0F81C280D78AB409BB21343CB
:10334000C0F81C380C7800EB4410D0F8003913F4A6
:10335000004FECD1D0F800398A68C2F30A02C9786C
:1033600042EA814242EA8452134343F0805343F4D9
:103370000043C0F80039DAE738B54B78012B36D076
:103380000B78044600EB4313D3F8002B22F40042E1
:10339000C3F8002B0B7800EB43134FF00062C3F827
:1033A000002B0B7800EB43134FF08042C3F8002B47
:1033B000002201322B4B9A4252D80B7804EB431374
:1033C00003F530639B6813F0100FF2D1D0F8043886
:1033D00043F48063C0F80438D0F81C38097801221F
:1033E0008A4023EA0243C0F81C38002038BD0B781D
:1033F000044600EB4313D3F8002922F40042C3F83B
:1034000000290B7800EB43134FF00062C3F800294A
:103410000B7800EB43134FF08042C3F800290022E1
:103420000132104B9A4219D80B7804EB431303F581
:1034300010639B6813F0804FF2D10D4604461021B3
:10344000FFF704FFD4F81C28297801238B409BB296
:1034500022EA0303C4F81C380020C7E70320C5E7AD
:103460000320C3E7400D030070B582B04B78012BF9
:103470003ED00B7800EB4313D3F8104BE40CE4047C
:10348000C3F8104B0B7800EB4313D3F8104B24F028
:10349000FF5424F4C014C3F8104B4B69002B40F0C8
:1034A000D4800B7800EB4313D3F8104B8D68C5F331
:1034B00012052C43C3F8104B0B7800EB4313D3F8E1
:1034C000104B44F40024C3F8104B012A00F0DC80B8
:1034D000CB78012B00F0DF800B7800EB4310D0F8A5
:1034E000003B43F00443C0F8003B002002B070BD35
:1034F0004B696BBB0B7800EB4313D3F8104924F0F6
:10350000FF5424F4C014C3F810490B7800EB4313A4
:10351000D3F8104944F40024C3F810490B7800EBA9
:103520004313D3F81049E40CE404C3F81049012A0A
:1035300054D0CB78012B57D04B69002B54D0D0F806
:1035400034380E780124B4402343C0F834384BE0BB
:103550000B7800EB4313D3F81049E40CE404C3F8F0
:1035600010490B7800EB4313D3F8104924F0FF54B3
:1035700024F4C014C3F810490C7800EB4414D4F8B8
:1035800010594B698E683344013BB3FBF6F34E4E42
:1035900006EAC3432B43C4F810390B7800EB4313FE
:1035A000D3F810494D69C5F312052C43C3F81049EF
:1035B000CB78012BBBD10B7800EB4313D3F8104928
:1035C00024F0C044C3F810490B7800EB4313D3F840
:1035D000104944F00054C3F81049A8E70B7800EBF9
:1035E00043130C69C3F81449CB78012B14D00B7822
:1035F00000EB4313D3F8004944F00444C3F80049F6
:10360000CB78012B7FF471AF14468B8A0A78C96896
:10361000009400F00BF968E7D0F8083813F4807FC5
:1036200009D10B7800EB4313D3F8004944F0005460
:10363000C3F80049DBE70B7800EB4313D3F80049EC
:1036400044F08054C3F80049D1E78C682344013B1F
:10365000B3FBF4F30C7800EB4414D4F8105B1A4E6F
:1036600006EAC3463543C4F8105B0C7800EB4414FB
:10367000D4F8106B8D689BB205FB03F5C5F31205FA
:103680003543C4F8105B20E7CA680B7800EB43139E
:10369000C3F8142B1CE7D0F8083813F4807F09D145
:1036A0000B7800EB4313D3F8002B42F00052C3F821
:1036B000002B11E70B7800EB4313D3F8002B42F0FB
:1036C0008052C3F8002B07E70000F81F30B44B7896
:1036D000012B39D00B7800EB4313D3F8104BE40CDB
:1036E000E404C3F8104B0B7800EB4313D3F8104BF2
:1036F00024F0FF5424F4C014C3F8104B4B690BB1F1
:103700008B684B610B7800EB4313D3F8104B44F4F8
:103710000024C3F8104B0B7800EB4313D3F8104B85
:103720008D68C5F312052C43C3F8104B012A76D0DF
:103730000B7800EB4310D0F8003B43F00443C0F893
:10374000003B002030BC70474B699BBB0B7800EB03
:103750004313D3F8104924F0FF5424F4C014C3F8E1
:1037600010490B7800EB4313D3F8104944F40024BC
:10377000C3F810490B7800EB4313D3F81049E40C5D
:10378000E404C3F810490B7800EB4313D3F8004965
:1037900044F00444C3F80049012A39D04B69002B96
:1037A000CFD0D0F83438097801228A401343C0F8CA
:1037B0003438C6E70B7800EB4313D3F81049E40C18
:1037C000E404C3F810490B7800EB4313D3F8104915
:1037D00024F0FF5424F4C014C3F810494C698B68DA
:1037E0009C4200D94B610B7800EB4313D3F810498E
:1037F00044F40024C3F810490B7800EB4313D3F8CA
:1038000010494D69C5F312052C43C3F81049BAE7B6
:103810000B7800EB43100B69C0F8143991E7CA68C4
:103820000B7800EB4313C3F8142B81E770B49DF8B9
:103830000C4064B903339D0807E000EB023303F545
:10384000805351F8046B1E600134AC42F5D3002064
:1038500070BC704703329208002393420CD210B41C
:1038600000F58054246841F8044B01339342F7D3A8
:1038700008465DF8044B7047084670474B78012BAB
:1038800017D00B7800EB4313D3F8002B002A05DB8D
:10389000D3F8002B22F08042C3F8002B0B7800EB0A
:1038A0004310D0F8003B43F40013C0F8003B002065
:1038B00070470B7800EB4313D3F80029002A05DB8F
:1038C000D3F8002922F08042C3F800290B7800EBDE
:1038D0004310D0F8003943F40013C0F80039E6E78C
:1038E0004B78012B0FD00B7800EB4313D3F8002B50
:1038F00022F40012C3F8002BCB78023BDBB2012B81
:1039000019D9002070470B7800EB4313D3F8002936
:1039100022F40012C3F80029CB78023BDBB2012B62
:10392000EFD80B7800EB4310D0F8003943F0805308
:10393000C0F80039E5E70B7800EB4310D0F8003B06
:1039400043F08053C0F8003BDBE7D0F8003823F4A5
:10395000FE63C0F80038D0F80038090101F4FE61B8
:103960000B43C0F800380020704708B5D0F8043881
:1039700023F00203C0F804380320FCF73DFE0020CA
:1039800008BD08B5D0F8043843F00203C0F8043885
:103990000320FCF731FE002008BD42698069104019
:1039A0007047D0F8183800F50060C0691840000C66
:1039B0007047D0F8183800F50060C069184080B230
:1039C000704700EB4111D1F8082B00F50060406909
:1039D0001040704710B4D0F81048D0F83438CB40BD
:1039E000DB01DBB2234300EB411000F5106080687F
:1039F00018405DF8044B7047406900F001007047C3
:103A0000D0F8003923F4FF6323F00703C0F800392E
:103A100000F500639A6802F00602042A05D05A688D
:103A200042F480725A6000207047D0F8002942F0BA
:103A30000302C0F80029F2E710B40024C0F8104BCC
:103A4000D0F8104B44F40024C0F8104BD0F8104BC1
:103A500044F01804C0F8104BD0F8104B44F0C044A8
:103A6000C0F8104B012903D000205DF8044B7047CB
:103A7000C0F8142B4FF08023C0F8003BF4E700009F
:103A8000002301330C4A934211D80269002AF8DA64
:103A9000036943F00103036100230133064A9342A3
:103AA00007D8026912F0010FF7D1002070470320F8
:103AB00070470320704700BF400D0300D0F8183254
:103AC0001BB10020C3F8140270470220704710B5E4
:103AD000D0F81842D0F81C325BB194F80002FF28ED
:103AE00007D09B6894F8012221469847FF2384F869
:103AF0000032002010BD00004323038000487047BF
:103B00000000002043230380004870474400002049
:103B10004323038000487047880000200A23038065
:103B200000487047CC00002038B50446D0F8185241
:103B300003F04AFCC5F80C02D4F818324BB1D4F8A3
:103B40001C32DB6805F50371D5F8040298470020A4
:103B500038BD0220FCE7000070B505460C46D0F8E1
:103B600018620B7813F0600225D0202A07D1CA888A
:103B70003AB9D0F81C329B68002248789847002058
:103B800070BD13F0800F0BD0D0F81C329B6831460B
:103B900060789847E2883146284600F081FCEEE7DD
:103BA0004B7886F80032CB8886F80132CA883146D5
:103BB00000F08BFCE3E74B780A2BE0D101220249AD
:103BC00000F06EFCDBE700BFDC01002010B504460E
:103BD000812103F08EFB0121204603F08AFB822124
:103BE000204603F086FBD4F8183253B1D4F81C32C7
:103BF0005B689847D4F8180203F0E2FC0023C4F88D
:103C00001832002010BD38B50446037C73BB4FF456
:103C100000730222812103F05BFB4FF40073022248
:103C20000121204603F054FB082303228221204671
:103C300003F04EFB4FF4077003F0BAFC0546C4F8DE
:103C4000180248B3D4F81C321B6898470023C5F803
:103C50001432C5F81832237CA3B14023D5F80422CE
:103C60000121204603F0A2FB002038BD40230222A0
:103C7000812103F02DFB402302220121204603F085
:103C800027FBD1E74FF40073D5F804220121204629
:103C900003F08CFB0020E8E70120E6E719B1C0F84B
:103CA0001C120020704702207047D0F81832C3F869
:103CB0000812C3F8102200207047D0F81832C3F859
:103CC000041200207047D0F818228AB108B5D2F843
:103CD00014320BB1012008BD0123C2F81432B2F82E
:103CE0001032D2F80822812103F052FB0020F2E7C3
:103CF00002207047D0F818229AB108B5037C3BB176
:103D00004023D2F80422012103F050FB002008BD1B
:103D10004FF40073D2F80422012103F047FB002086
:103D2000F5E70220704798B108B50346D0F81402B1
:103D300010B10020C3F8140209B1C3F810121846DC
:103D4000012380F8FC31027003F07AFA002008BDEC
:103D50000220704719B1C0F81412002070470220E9
:103D6000704708B503F0A6FA002008BD08B5D0F8E2
:103D7000143233B11B68984708B9002008BD0220EF
:103D8000FCE70220FAE708B5D0F814325B689847E0
:103D9000002008BD38B5044600F50275284600F03D
:103DA0001DF90123C4F8F431B4F80E32C4F8F83127
:103DB00094F8081201F01F03012B0ED03BB1022B27
:103DC00010D001F08001204603F0A1FA03E029465B
:103DD000204600F07CFA002038BD2946204600F03D
:103DE0009AFAF8E72946204600F0B1FAF3E710B551
:103DF000044621BB1346D0F8F421032A01D0002049
:103E000010BDD0F80C11D0F8102191420CD8D0F888
:103E100014321B6923B190F8FC21032A00D1984782
:103E2000204600F069FBEAE7891AC0F80C118A42C3
:103E300028BF0A4692B2194600F056FBDFE70A4651
:103E4000D0F814329B69002BD9D090F8FC110329CB
:103E5000D5D111469847D2E710B50446002946D17E
:103E60001346D0F8F421022A05D094F80032012B31
:103E700039D0002010BDC169026A914219D8816908
:103E8000B1FBF2F302FB13132BB98A4203D8D0F82B
:103E9000F83199421AD3D4F81432DB682BB194F874
:103EA000FC21032A01D120469847204600F02FFB31
:103EB000DBE78A1AC26192B2194600F0FEFA0023CB
:103EC0001A461946204603F071FACEE70022114641
:103ED00000F0F3FA0021C4F8F8110B460A46204618
:103EE00003F064FAC1E7002384F80032C1E70A4610
:103EF000D0F814325B69002BBBD090F8FC11032979
:103F0000B7D111469847B4E738B50446402300229C
:103F1000114603F0DDF94025C4F810512B4600226C
:103F20008021204603F0D4F92562012384F8FC3176
:103F3000D4F818322BB1D4F814325B6821792046BA
:103F40009847002038BD01740020704790F8FC317C
:103F500080F8FD31042380F8FC310020704790F890
:103F6000FD3180F8FC310020704708B590F8FC3135
:103F7000032B01D0002008BDD0F81432DB69002BE0
:103F8000F8D09847F6E700207047002070470020DF
:103F9000704708B5012280F8FC21D0F8142252683D
:103FA00001799047002008BD002302E00133DBB215
:103FB00001300278002AF9D1184670474B88012B4E
:103FC0000BD110B50446C0F80432D0F814329B6807
:103FD0009847204600F090FA10BD70470B780370A8
:103FE0004B7843708B78CA7803EB022343800B79BC
:103FF0004A7903EB022383808B79CA7903EB02238E
:10400000C380704710B50446802103F080F9002179
:10401000204603F07CF910BD30B583B004460D4650
:104020004A88130A013B062B00F28180DFE803F087
:104030000413277F7F637000D0F810321B680DF1E6
:104040000601007C9847BDF8062012B1EB88002BD2
:1040500071D103B030BD037C43B9D0F814329B6AF0
:104060000DF10600984702234370ECE7D0F81432B4
:10407000DB6A0DF10600984702234370E3E7D2B2F2
:10408000052A34D8DFE802F0030B131B232BD0F8EA
:1040900010325B680DF10601007C9847D3E7D0F839
:1040A00010329B680DF10601007C9847CBE7D0F8F1
:1040B0001032DB680DF10601007C9847C3E7D0F8A9
:1040C00010321B690DF10601007C9847BBE7D0F860
:1040D00010325B690DF10601007C9847B3E7D0F818
:1040E00010329B690DF10601007C9847ABE7294629
:1040F000FFF788FFADE7037C33B9D0F814325B6B70
:104100000DF1060098479EE72946FFF77BFFA0E7E1
:10411000037C43B9D0F814321B6B0DF106009847AD
:10412000072343708FE72946FFF76CFF91E7294685
:10413000FFF768FF8DE79A4228BF1A46ADF80620C0
:104140000146204600F0ACF983E738B504468B8879
:10415000E3B9CB88D3B98D7805F07F0590F8FC31B1
:10416000032B0CD080F8FE51294603F003F92046BA
:1041700000F0C2F935B1022384F8FC3109E0FFF701
:1041800041FF06E0012384F8FC3102E02046FFF7FE
:1041900039FF38BD38B504460D468978254B19706E
:1041A000012909D890F8FC31022B09D0032B1CD02F
:1041B0002946FFF727FF02E02946FFF723FF38BD16
:1041C00081B14160032380F8FC31FFF7CFFD022865
:1041D00003D0204600F090F9F1E729462046FFF78A
:1041E00011FFECE700F088F9E9E789B143689942EB
:1041F0001DD0D9B2FFF7C7FD0E4B1978616020467C
:10420000FFF7B4FD02280DD0204600F075F9D6E77F
:10421000022380F8FC314160FFF7B5FD204600F035
:104220006BF9CCE729462046FFF7ECFEC7E700F024
:1042300063F9C4E7DD01002008B5CB88012B08D164
:1042400090F8FC31022B07D0032B0DD0FFF7DAFEDC
:1042500001E0FFF7D7FE08BD0146002341F8083F03
:10426000012200F01DF9F6E70122011D00F018F906
:10427000F1E708B590F8FC31023B012B0CD8012383
:10428000C360D0F804320BB10323C360022200F1F3
:104290000C0100F005F908BDFFF7B4FEFBE710B50F
:1042A000044690F8FC31023B012B0DD84B88012BC2
:1042B00009D10023C0F80432D0F814329B68984723
:1042C000204600F019F910BDFFF79CFEFBE708B58A
:1042D0004B78092B1CD8DFE803F012181B151B09BB
:1042E000051B0F0CFFF798FE002008BDFFF72DFF00
:1042F000FAE7FFF74FFFF7E7FFF79EFFF4E7FFF757
:10430000B8FFF1E7FFF75AFEEEE7FFF7C8FFEBE76C
:10431000FFF778FEE8E738B504460D4690F8FC3123
:10432000032B11D10B79012B0BD8D0F814329B68D9
:104330009847EB880BB1002038BD204600F0DCF830
:10434000F9E7FFF75FFEF6E7FFF75CFEF3E738B546
:1043500005460C468A880B7803F06003202B05D1B4
:10436000D0F814329B689847002038BDD1B26378EA
:10437000012B25D0002B47D0032BF5D190F8FC3131
:10438000022B05D0032B0AD02146FFF73BFEEBE7BB
:104390000029E9D08029E7D002F0B9FFE4E763887B
:1043A00023B919B1802901D002F0B1FFD5F8143238
:1043B0009B68214628469847284600F09DF8D3E799
:1043C00090F8FC31022B05D0032B0AD02146FFF7D1
:1043D00019FEC9E70029C7D08029C5D002F097FF90
:1043E000C2E76388002BBFD111F07F0F03D12846AD
:1043F00000F082F8B8E702F098FFD5F814329B6815
:10440000214628469847F2E790F8FC31022B05D068
:10441000032B09D02146FFF7F5FDA5E711F07F0F2B
:10442000A2D002F074FF9FE712F0800F11D101F0CB
:104430007F04103400EB04140434284602F083FF98
:1044400070B10123236002222146284600F028F89B
:104450008AE701F07F04013400EB04140434ECE734
:1044600000232360EFE7D0B170B50D461646044631
:10447000FFF79AFD0130400080B23080287003239E
:104480006B70022307E001345A1CD2B2E9540233A4
:10449000DBB20021A95421780029F4D170BD704706
:1044A00010B513460222C0F8F4218361C3610A46A5
:1044B000002102F06DFF002010BD08B513460A462A
:1044C000002102F065FF002008BD10B5134603224D
:1044D000C0F8F421C0F80831C0F80C310A460021B8
:1044E00002F064FF002010BD08B513460A46002103
:1044F00002F05CFF002008BD08B50423C0F8F431C9
:1045000000231A46194602F043FF002008BD08B5F3
:104510000523C0F8F43100231A46194602F046FF7D
:10452000002008BD10B44FF6FF7209E00378534035
:10453000DBB2074931F8133083EA122221460130F9
:104540004C1E0029F2D1D04380B25DF8044B704775
:104550005C7E00082DE9F84305460E4691461F464D
:10456000002405E0335D5B002B700134A4B20135FB
:104570000621304603F02AF98442F3D304E04023B5
:104580002B700134A4B20135052CF8D94FEA490942
:1045900009F01E0905F1010849F060032B700024A1
:1045A00007E0335D5B0088F800300134A4B208F105
:1045B00001080621384603F009F98442F1D306E0E8
:1045C000402388F800300134A4B208F10108052C1A
:1045D000F6D949F0610988F800900E20BDE8F8830B
:1045E000B2F5807F01D9002070472DE9F8434FF0E4
:1045F0007E34046044608460C460099C0E2C04D046
:104600001C2C02D00020BDE8F8831F4616468846C1
:10461000044600F11009099A0899484602F0D8FFAB
:10462000099B03F110050B9B013B012B01D90020D5
:10463000E9E70B9A0AA9601902F0CAFF0B9B1D4417
:104640001FB1032F01D02F4602E06F1CF0236355EA
:1046500032464146E01902F0BBFF3E44A6F110018C
:104660004846FFF75FFF731CA055B11C000AE054D9
:1046700062184FF07E33635053609360D36006F14D
:104680001200C0E7F0B506468C4600273C4608E01D
:1046900006EB040E1B4D03CD3051CEF80410083448
:1046A00001370F2FF4D90027384601E001372C4697
:1046B00003F100512039B7EBC10F14D202EBD7013F
:1046C000097C07F00705294101F0010141EA40009A
:1046D000C0B2651C315500F01F011F29E6D1002032
:1046E0007055A51CE2E7002206E03519054B03CB07
:1046F00030516960083401320F2AF6D9CCF80040F5
:104700000120F0BD5C800008F8B59646069F0026A3
:1047100002E07E2D22D00136B6EBC70F80F09180EB
:10472000F4081C5D06F007052C41E401057AE4B2AB
:1047300044EA5505057290F809C044EA5C044472E5
:104740000278012A12D0002AE3D0022A63D0002482
:1047500004704460847204724472DCE701240470C3
:1047600000244460847204724472D4E77E2D21D008
:1047700005F0FC0CBCF17C0F43D005F0FE05FE2DCE
:1047800042D0857A0135EDB28572082DC3D100255E
:104790008572456805F1010CC0F804C04C554468A9
:1047A000B4F5807FB7D90024047044608472047229
:1047B0004472B0E74468022C07D801240470002436
:1047C0004460847204724472A5E70E2C07D8022458
:1047D0000470002444608472047244729BE777463C
:1047E0000D46A61E31462846FFF79CFE2C4414F8C1
:1047F000012CAB5D43EA0223984225D13E600020A4
:1048000021E06400447286E70024047044608472EE
:10481000047244727FE77E2D0DD0847A0134E4B2B5
:104820008472272C7FF677AF002404704460847272
:10483000047244726FE7002444608472047244720C
:1048400069E76FF03700F8BD6FF03600FBE7000056
:10485000F0B58DB004460E4617460022059206922A
:104860000792089209920A920B921A4603B10E22FD
:10487000334905AD0023009301F5027301F504717E
:104880002846FFF767FE0123039303230293019059
:1048900000953A4631462B48FFF7A2FE0346002812
:1048A00047D02848024604A900F59E70FFF7EAFEAB
:1048B000012841D14FF49E720021224802F093FE5C
:1048C00000230CE0DD081F4AD11891F83C1103F0D9
:1048D000070001FA00F0515D014351550133049A7C
:1048E0009A42EFD812F0070301D0C3F108031A442B
:1048F0000492154D102300222121284601F064FF67
:10490000284601F06BFF049BDB080E4A214628462F
:1049100001F072FF002306E0E15C094A0A4492F8C4
:104920001422E25401330498C0089842F4D80DB020
:10493000F0BD4FF0FF30FAE74FF0FF30F7E700BF70
:104940005C7E0008E0010020DC750020F0B585B039
:104950000A9FCFB1002409E01E5D0D4D354495F846
:1049600014620C4D254485F81C6B0134BC42F3D312
:1049700014460097084B03AAFFF7C6FE10B9039B25
:104980002360002005B0F0BD6FF03700FAE700BFEC
:104990005C7E0008E0010020FC0C002070B505469C
:1049A0000E4614460621104602F010FF01280DD9CC
:1049B000B0420DD80023834206D2E95CE25CB2EB40
:1049C000510F07D10133F6E7012000E0002070BD50
:1049D0000020FCE70020FAE770B5049EA8B1044669
:1049E000B1B10E2B01D01C2B15D19D19954215D2BA
:1049F000022E16D820460135D41AA41B013C2246AB
:104A0000294402F0E5FD204670BD6FF03200FBE75F
:104A10006FF03200F8E76FF03500F5E76FF0350022
:104A2000F2E76FF03500EFE748B108B500234360C7
:104A30000370037283720C3001F0DAFE08BD4FF090
:104A4000FF30704770B584B00E4600230293B0F576
:104A50003C5F27D240F080008DF80C0000238DF8D9
:104A60000D300224144D00224FF400412846FCF77B
:104A700045FA41F288330093234602AA03A90F485E
:104A8000FDF7E9FF01224FF400412846FCF736FA12
:104A9000013C04AB1C4414F8083C33709DF808003A
:104AA00004B070BDAF238DF80C308DF80D000023DD
:104AB0008DF80E300324D5E700000240687B00200B
:104AC00010B586B000230493B0F53C5F31D32F239B
:104AD0008DF814308DF815008DF81610032400227F
:104AE0004FF400411648FCF709FA164B1B68164AAA
:104AF000A2FB03239B0C9B00029300230393039BC5
:104B000001330393039A029B9A42F8D341F288330C
:104B10000093234604AA05A90C48FDF79CFF012237
:104B20004FF400410648FCF7E9F99DF8100006B083
:104B300010BD8DF814008DF815100224CFE700BFCA
:104B4000000002401001002083DE1B43687B002030
:104B500010B584B08DF80F000D4C00224FF40041C9
:104B60002046FCF7CBF941F28833009301230DF185
:104B70000E020DF10F010748FDF76DFF01224FF402
:104B800000412046FCF7BAF99DF80E0004B010BDB4
:104B900000000240687B002030B585B00D46144609
:104BA000194B7F2103F8011B0146184602F010FD46
:104BB00000224FF400411548FCF7A0F9144B1B6884
:104BC000144AA2FB03239B0C9B0002930023039334
:104BD000039B01330393039A029B9A42F8D3631C0D
:104BE0004FF47A6200929BB22A4607490A48FDF7C1
:104BF00032FF044601224FF400410448FCF77EF9DD
:104C0000204605B030BD00BFFC0E00200000024071
:104C10001001002083DE1B43687B0020F0B587B0C5
:104C200005460F46002405940194029403940494CD
:104C300000F088FB00F09CFB3B20FFF789FF04227B
:104C40000DEB020105A8FFF7A7FF03E07068FBF773
:104C5000D3FC0134BC420FD205EBC40615F8343046
:104C6000002BF3D03520FFF773FF7068FBF7C4FC0F
:104C70003620FFF76DFFECE73620FFF769FF0A20CB
:104C8000FBF7BAFC3020FFF763FF00F047FB00F0B2
:104C90006FFB3620FFF75CFF3B20FFF759FF00203A
:104CA00007B0F0BD2DE9F04F93B002908946039212
:104CB0000593814B00221A70FF2914D940230493D5
:104CC00004992820FFF7FCFE5FFA89F12E20FFF7F8
:104CD000F7FEFBF78BFC83464E46012301934FF012
:104CE000000A55463AE000230493E9E7A9EB0504DE
:104CF000A4EB0A04422C28BF422422460399029BBB
:104D0000D819FFF749FF41E000212820FFF7D8FE1E
:104D10000023049344E0012313B9A2463D461DE05D
:104D2000664B1B68664AA2FB03239B0C4FF47A7206
:104D300002FB03F3099300230A930A9B01330A93AE
:104D40000A9A099B9A42F8D33620FFF701FF3B20CD
:104D5000FFF7FEFE6FF003008DE0254405EB0A0728
:104D60004F4545D2574B00221A70019B002BBDD0F6
:104D70004C46802C28BF8024224603990298FFF7D6
:104D80000BFF3520FFF7E4FE00230193361B0AEBEF
:104D90000408C8F58073B34202D9049B002BB3D139
:104DA000B8F13F0FD9D94C45D7D0002ED5D0059DAD
:104DB000FBF71CFCA0EB0B00A842ACD23F4B1B68DE
:104DC0003F4AA2FB03239B0C4FF4487202FB03F300
:104DD000079300230893089B01330893089A079BC5
:104DE0009A42F8D3374B1B78002BE1D0002393E78E
:104DF000059CFBF7FBFBA0EB0B00A0421ED22F4B48
:104E00001B682F4AA2FB03239B0C4FF4487202FB42
:104E100003F30B9300230C930C9B01330C930C9A1C
:104E20000B9B9A42F8D30DF1470142F6D670FFF77B
:104E300009FE9DF84730002BDBD100E00123EBB9E0
:104E40001E4B1B681E4AA2FB03239B0C4FF47A7275
:104E500002FB03F30F9300231093109B0133109375
:104E6000109A0F9B9A42F8D33620FFF771FE3B2031
:104E7000FFF76EFE384613B0BDE8F08F0F4B1B688E
:104E80000F4AA2FB03239B0C4FF47A7202FB03F33D
:104E90000D9300230E930E9B01330E930E9A0D9BE0
:104EA0009A42F8D33620FFF753FE3B20FFF750FE1F
:104EB0006FF00300DFE700BF612100201001002038
:104EC00083DE1B436021002030B589B00D460023EE
:104ED0000693B0F53C5F49D3AF238DF81C308DF8B5
:104EE0001D0000238DF81E30032400224FF40041E2
:104EF0002348FCF703F8234B1B68234AA2FB032338
:104F00009B0C9B00049300230593059B01330593A1
:104F1000059A049B9A42F8D341F2883300932346C2
:104F200006AA07A91948FDF796FD01224FF4004192
:104F30001348FBF7E3FF134B1B68134AA2FB032341
:104F40009B0C9B00029300230393039B0133039369
:104F5000039A029B9A42F8D3013C08AB1C4414F814
:104F6000083C2B709DF8180009B030BD40F080005F
:104F70008DF81C0000238DF81D300224B5E700BF1A
:104F8000001002401001002083DE1B434476002005
:104F900070B586B005460C46264E8222002106F1E9
:104FA000840002F020FBFF2386F8843000224FF4B7
:104FB00000412148FBF7A2FF204B1B68204AA2FBBF
:104FC00003239B0C9B00049300230593059B013353
:104FD0000593059A049B9A42F8D3631C15494FF434
:104FE0007A6200929BB201F5847284311548FDF714
:104FF00032FD0646114B1B68114AA2FB03239B0C92
:105000009B00029300230393039B01330393039AB2
:10501000029B9A42F8D301224FF400410648FBF765
:105020006DFF22460849284602F0D2FA304606B003
:1050300070BD00BFFC0E00200010024010010020D7
:1050400083DE1B43447600200510002000B589B0A4
:105050008DF81C0000224FF400411C48FBF74EFF66
:105060001B4B1B681B4AA2FB03239B0C9B00049356
:1050700000230593059B01330593059A049B9A42EF
:10508000F8D34FF47A630093012306AA07A91248C4
:10509000FDF7E1FC01224FF400410C48FBF72EFF25
:1050A0000B4B1B680B4AA2FB03239B0C9B00029338
:1050B00000230393039B01330393039A029B9A42B9
:1050C000F8D39DF8180009B05DF804FB0010024009
:1050D0001001002083DE1B434476002010B582B00F
:1050E0000DF1070142F69270FFF7EEFE9DF80730D2
:1050F00013F00C0F02D1012002B010BD3A20FFF7CF
:10510000A5FF3620FFF7A2FF0024054B1C70054BBE
:105110001C70054B1C703420FFF798FF2046EBE70E
:105120006221002063210020642100202DE9F0414C
:1051300086B0074615460023734A1370734A1370EE
:10514000734A1370FFF7CAFF002800F0DA80FBF7FC
:105150004DFA04460DF1160142F6D770FFF7B4FE82
:105160009DF81630012BF5D90DF11701BF20FFF77F
:10517000ABFE00260DE00123002B2FD14121B819F1
:10518000FFF706FF624B00221A7000283BD1413620
:10519000F6B2B0469DF817309B1B402B46DDFBF75F
:1051A00025FA001BA842E6D25A4B1B685A4AA2FBBA
:1051B00003239B0C4FF4487202FB03F3019300237B
:1051C0000293029B01330293029A019B9A42F8D305
:1051D0004F4B1B78002BE2D00023CDE73A20FFF79E
:1051E00035FF3620FFF732FF0023474A1370474A46
:1051F0001370474A13703420FFF728FF6FF0030045
:1052000006B0BDE8F0813A20FFF720FF3620FFF717
:105210001DFF00233C4A13703C4A13703C4A137034
:105220003420FFF713FF6FF00200E9E7FBF7DEF928
:10523000001BA84219D2374B1B68374AA2FB032335
:105240009B0C4FF4487202FB03F303930023049377
:10525000049B01330493049A039B9A42F8D32B4B8B
:105260001B78002BE2D0002300E00123E3B99DF876
:105270001710A1EB080101293CDDB819FFF788FEE2
:1052800028BB3A20FFF7E2FE3620FFF7DFFE0023BF
:105290001D4A13701D4A13701D4A13703420FFF706
:1052A000D5FE9DF81700ABE73A20FFF7CFFE36207A
:1052B000FFF7CCFE0023144A1370144A1370144AEB
:1052C00013703420FFF7C2FE6FF0050098E73A2014
:1052D000FFF7BCFE3620FFF7B9FE00230A4A137021
:1052E0000A4A13700A4A13703420FFF7AFFE6FF0BA
:1052F000020085E70129C4D1B919BF20FFF7E4FDF9
:10530000BFE76FF005007BE76221002063210020EA
:10531000642100201001002083DE1B4310B53020E3
:10532000FFF716FC002408E0054B03EBC4021179DB
:1053300033F83400FFF7C4FB01343C2CF4D910BD22
:105340007081000810B53020FFF702FC002409E04E
:10535000064B03EBC40393F8EC11B3F8E801FFF735
:10536000AFFB01342E2CF3D910BD00BF70810008B3
:1053700000B585B0002142F62570FFF7A1FB0DF1C5
:105380000F0142F61570FFF75DFB9DF80F1002311B
:10539000C9B242F61570FFF793FB3320FFF7D8FB35
:1053A0000DF1070142F67370FFF74CFB9DF80730D3
:1053B000412BF5D103A942F62570FFF743FB0DF110
:1053C0000D0142F62370FFF73DFB0DF10E0142F691
:1053D0001870FFF737FB002142F62570FFF770FBCE
:1053E0009DF80F1042F61570FFF76AFB3320FFF7A8
:1053F000AFFB0DF1070142F67370FFF723FB9DF839
:105400000730412BF5D102A942F62570FFF71AFBB0
:105410000DF1090142F62370FFF714FB0DF10A01AB
:1054200042F61870FFF70EFB9DF80C309DF808103F
:105430008B4212D842F62570FFF742FB9DF8091007
:1054400042F62370FFF73CFB9DF80A1042F61870F5
:10545000FFF736FB05B05DF804FB194642F62570F0
:10546000FFF72EFB9DF80D1042F62370FFF728FB87
:105470009DF80E1042F61870FFF722FBEAE70120B4
:105480007047000008B5FBF7B1F80346074A1079EA
:1054900048B11068984203D81B1A054A934203D9B1
:1054A0000020024B187108BD0120FCE73C7600206B
:1054B0008038010010B5034C2071FBF797F820608D
:1054C00010BD00BF3C760020F0B58BB0B1F5807FF9
:1054D00000F2828015460C460746414E4FF49E72FC
:1054E0000021304602F07FF82A46214606F59E70DC
:1054F00001F042F9041E09DC14F1370F02D02046F6
:105500000BB0F0BD374801F01CFCF8E7364A2146E5
:105510003648FFF743FA002838D0012300930E23C2
:10552000224632493846FFF757FA041EE7DD0C2CB5
:1055300048D909222E49384602F036F9002847D1C9
:10554000D7F809302B4A934226D02B4A934234D1C4
:105550002C2C27D9294D284601F0DAFA202207F110
:105560000D01284601F0FEFA02A9284601F01AFBB7
:1055700000231F2B1BD80AAA1A4412F8201C1A4A0F
:105580001A44127D914225D10133F2E7154801F00A
:10559000D3FB6FF00404B2E70121124801F0D6FBFF
:1055A000012310E00F4801F0DFFB00230BE0002196
:1055B0000C4801F0CBFB012305E00A4801F0D4FBC5
:1055C000002300E00023002B99D06FF0060496E73B
:1055D0000023F8E70023F6E76FF001048FE700BF30
:1055E00088100020F0750020D0840008C41100202D
:1055F000D8840008844E2616A3939D66E8120020E6
:105600002DE9F04182B0B1F5807F22D806460C46E4
:1056100017469846FFF733FF20B3144D4FF49E72A0
:105620000021284601F0DFFFCDF800803B462A46E6
:105630002146304601F0ACFC044602B20128D4BF3A
:10564000002101210A4801F069FB204602B0BDE8B3
:10565000F0816FF001020021054801F05FFB6FF05F
:105660000104F2E76FF00704EFE700BF88100020A5
:10567000F0750020B1F5807F0AD838B50C46054694
:10568000FFF7FDFE38B12146284601F0A3FC38BDE6
:105690006FF0010070476FF00700F8E738B5FFF7CB
:1056A000F1FE08B1002038BD1F4CFC22002104F59A
:1056B000357001F098FF552384F8D032502384F8D8
:1056C000D132532384F8D232412384F8D332542385
:1056D00084F8D432154D284600F028FB84F8D50212
:1056E000284600F0C2FB84F8D602284600F0FCF9F8
:1056F00084F8D702284600F023F984F8D802284617
:1057000000F089F984F8D902284600F0EFFA84F80D
:10571000DA02284600F02FFC84F8DB020C2104F5A5
:105720003470FFF7A7FFBEE788100020F075002057
:1057300038B5002800F0AE800446584B1B78DBB922
:105740000378002B34D14378002B4ED18378002B83
:1057500067D1FAF74BFF0446514BD3F8D034C31A44
:10576000B3F5FA7F79D84E4BD3F8D434E31AB3F5B6
:105770007A7F78D8002436E0484B00221A704FF424
:105780007A624FF480714748FFF79EFE041E05DCE5
:1057900022B20021444801F0B3FA24E00120FFF7CF
:1057A00089FE00220121404801F0AAFA06241AE0ED
:1057B0003E4D01224FF480512846FBF79FFB00220B
:1057C0004FF400512846FBF799FB00224FF480412B
:1057D0002846FBF793FB364800F0C0FF00232370F8
:1057E000FFF75CFF0446204638BD304D00224FF4E1
:1057F00080512846FBF782FB01224FF400512846D6
:10580000FBF77CFB00224FF480412846FBF776FB38
:10581000284800F0A3FF0020607001F03DFE044620
:10582000E1E7224D00224FF480512846FBF766FB4A
:1058300000224FF400512846FBF760FB01224FF491
:1058400080412846FBF75AFB1B4800F087FF0023E6
:10585000A37001F055FE0446C5E7114BC3F8D00410
:10586000FFF73CFC7FE70E4BC3F8D4440E4C2046B8
:1058700001F016FA2388092B02D8A388042B04D937
:105880000E48FBF722FF0024ADE70C48FBF71DFF95
:105890000024A8E76FF00204A5E700BF6221002002
:1058A0008810002058140020F0750020000C0240E1
:1058B00098860008A4860008B0860008207700209B
:1058C000F0B585B005468C4696460024264619E07C
:1058D000012005F8340005EBC400174F57F82110DC
:1058E0004160013401329DF80E10914209D904A99A
:1058F000114411F80C1C0129EAD9002005F83400E4
:10590000E9E701369E420FD21EF8061001EB410175
:1059100088000A4A024407CA04AF07E907009DF855
:105920000F2032B10022DEE7CCF80040002005B0A5
:10593000F0BD6FF03C00FAE7048500086015002018
:10594000A8B3C368ABB3012B35D9022B35D9032BD0
:1059500035D9042B35D9052B35D9072B35D9092B4A
:1059600035D90B2B35D90F2B35D9132B35D9172B0F
:1059700035D91D2B35D9232B35D92B2B35D9332BA5
:1059800035D93B2B35D9452B35D94F2B35D9592B0B
:1059900035D9632B35D9952B35D9C72B35D9B3F5E7
:1059A000967F34D3B3F5C87F33D259207047302067
:1059B0007047412070474220704743207047442081
:1059C0007047452070474620704747207047482061
:1059D0007047492070474A2070474B2070474C2041
:1059E00070474D2070474E2070474F207047502021
:1059F0007047512070475220704753207047542001
:105A000070475520704756207047572070475820E0
:105A100070475A20704798B303699BB3012B33D961
:105A2000022B33D9032B33D9042B33D9052B33D98C
:105A3000062B33D9072B33D9082B33D9092B33D96C
:105A40000A2B33D90B2B33D90D2B33D90F2B33D949
:105A5000112B33D9132B33D9172B33D91B2B33D914
:105A60001F2B33D9232B33D9272B33D92B2B33D9C6
:105A70002F2B33D9332B33D9372B33D859207047B9
:105A800030207047412070474220704743207047C4
:105A90004420704745207047462070474720704794
:105AA00048207047492070474A2070474B20704774
:105AB0004C2070474D2070474E2070474F20704754
:105AC0005020704751207047522070475320704734
:105AD0005420704755207047562070475720704714
