:020000040800F2
:1000000000000220451C0008951B0008971B0008F3
:10001000991B00089B1B00089D1B000800000000A6
:100020000000000000000000000000009F1B00080E
:10003000A11B000800000000A31B0008A51B00086E
:10004000951C0008951C0008951C0008951C0008CC
:10005000951C0008951C0008951C0008951C0008BC
:10006000951C0008951C0008951C0008951C0008AC
:10007000951C0008951C0008951C0008951C00089C
:10008000951C0008951C0008951C0008951C00088C
:10009000951C0008951C0008951C0008951C00087C
:1000A000951C0008951C0008951C0008951C00086C
:1000B000951C0008951C0008951C0008951C00085C
:1000C000951C0008951C0008951C0008951C00084C
:1000D000951C0008951C0008951C0008951C00083C
:1000E000951C0008951C0008951C0008951C00082C
:1000F000951C0008951C0008951C0008951C00081C
:10010000951C0008951C0008951C0008951C00080B
:10011000951C0008951C0008951C0008951C0008FB
:10012000951C0008951C0008951C0008951C0008EB
:10013000951C0008951C0008951C0008951C0008DB
:10014000951C0008951C0008951C0008951C0008CB
:10015000951C0008951C0008951C0008951C0008BB
:10016000951C0008951C0008951C0008951C0008AB
:10017000951C0008951C0008951C00080000000054
:08018000951C0008951C000805
:1001880010B5054C237833B9044B13B10448AFF3C9
:1001980000800123237010BD0C0000200000000027
:1001A800F01C000808B5034B1BB103490348AFF323
:1001B800008008BD0000000010000020F01C0008AE
:1001C80053B94AB9002908BF00281CBF4FF0FF31B6
:1001D8004FF0FF3000F072B9ADF1080C6DE904CEB4
:1001E80000F006F8DDF804E0DDE9022304B070470A
:1001F8002DE9F047089E04468846002B4BD18A42D9
:10020800154667D9B2FA82F24AB1C2F1200701FA5B
:1002180002F320FA07F7954047EA030894404FEAAB
:10022800154E230CB8FBFEF71FFA85FC0EFB17884A
:1002380043EA084307FB0CF1994209D9EB1807F187
:10024800FF3080F01B81994240F21881023F2B4415
:100258005B1AA4B2B3FBFEF00EFB103344EA03446E
:1002680000FB0CFCA44509D92C1900F1FF3380F0E0
:100278000781A44540F2048102382C4440EA074033
:10028800A4EB0C0400271EB1D4400023C6E90043A8
:100298003946BDE8F0878B4209D9002E00F0EB8083
:1002A8000027C6E9000138463946BDE8F087B3FAA9
:1002B80083F7002F47D18B4202D3824200F2FA80A3
:1002C800841A61EB030301209846002EE0D0C6E9AA
:1002D8000048DDE702B9FFDEB2FA82F2002A40F0F8
:1002E8008F80491B4FEA154E1FFA85F80127B1FB8D
:1002F800FEFC230C0EFB1C1143EA014308FB0CF126
:10030800994207D9EB180CF1FF3002D2994200F25A
:10031800CD808446591AA3B2B1FBFEF00EFB10142F
:1003280043EA044408FB00F8A04507D92C1900F15A
:10033800FF3302D2A04500F2B6801846A4EB0804A9
:1003480040EA0C409FE7C7F1200CBB4022FA0CFEA4
:100358004EEA030E01FA07F420FA0CF521FA0CF321
:100368004FEA1E482543B3FBF8F92C0C08FB193358
:100378001FFA8EFA44EA034309FB0AF49C4202FA84
:1003880007F200FA07F10BD91EEB030309F1FF305E
:1003980080F087809C4240F28480A9F1020973446E
:1003A8001B1BADB2B3FBF8F008FB103345EA03445E
:1003B80000FB0AFAA24508D91EEB040400F1FF333A
:1003C8006BD2A24569D90238744440EA0940A0FBBF
:1003D8000289A4EB0A044C45C2464B4654D351D07B
:1003E800002E69D0B1EB0A0564EB030404FA0CFC97
:1003F800FD40FC404CEA0505C6E90054002747E7E4
:10040800C2F1200320FA03F7954001FA02F021FA1D
:1004180003F34FEA154E3843010CB3FBFEF71FFAFE
:1004280085F80EFB173341EA034107FB08F38B42BB
:1004380004FA02F407D9691807F1FF3C2FD28B425E
:100448002DD9023F2944CB1A81B2B3FBFEF00EFB33
:10045800103341EA034100FB08F38B4207D96918BE
:1004680000F1FF3C17D28B4215D902382944C91A2A
:1004780040EA07473BE73746304609E70746E7E6DD
:100488001846FBE64145ABD2B8EB020A69EB0E020F
:1004980001381346A4E76046E9E7184695E767463A
:1004A800D1E781467CE702382C4447E7ACF1020CDF
:1004B8002B442FE7384608E73746E9E6704700BF80
:1004C80010B504460E4B18784FF47A73B3FBF0F36B
:1004D8000C4A1068B0FBF3F000F09CF868B90F2CD8
:1004E80001D901200AE0002221464FF0FF3000F038
:1004F8005DF8034B5C60002000E0012010BD00BFE8
:10050800000000200800002008B50B4B1A6842F4D0
:1005180000721A601A6842F480621A601A6842F41B
:1005280080721A60032000F02FF80020FFF7C8FF40
:1005380001F0BAFA002008BD003C0240034A1168E5
:10054800034B1B780B441360704700BF645E0020A8
:1005580000000020014B1868704700BF645E00204F
:1005680038B50446FFF7F6FF0546B4F1FF3F02D061
:10057800044B1B781C44FFF7EDFF401BA042FAD345
:1005880038BD00BF00000020074AD36823F4E063A9
:100598001B041B0C000200F4E060184340F0BF602D
:1005A80040F40030D060704700ED00E030B4174BE5
:1005B800DB68C3F30223C3F10704042C28BF042417
:1005C8001D1D062D18D9033B4FF0FF3505FA04F41D
:1005D80021EA0401994005FA03F322EA03031943C7
:1005E80000280BDB0901C9B200F1604000F5614049
:1005F80080F8001330BC70470023E5E700F00F00D7
:100608000901C9B2024B1954F4E700BF00ED00E03C
:1006180014ED00E00138B0F1807F0AD2064B586033
:10062800064AF02182F823100020986007221A60F9
:1006380070470120704700BF10E000E000ED00E0C7
:10064800042805D0054A136823F004031360704793
:10065800024A136843F004031360704710E000E097
:10066800704708B5FFF7FCFF08BD000000230F2BFB
:1006780000F2D780F0B482B039E0072200E000220F
:10068800B2403A430234674E46F82420664A14685A
:10069800EA4302EA04064F6817F4803F01D045EAAE
:1006A8000406614C2660646802EA04064F6817F481
:1006B800003F01D045EA04065B4C6660A46802EA84
:1006C80004064F6817F4801F01D045EA0406564C0B
:1006D800A660E46822404E6816F4001F01D045EA7F
:1006E8000402514CE26001330F2B00F29780012283
:1006F8009A400C6804EA0205AA42F4D14C68022C1C
:1007080001D0122C10D1DE08083650F826C003F0AC
:100718000704A7000F24BC402CEA040C0C69BC4059
:1007280044EA0C0440F8264004685F000326BE40F3
:10073800F64306EA040C4C6804F00304BC4044EA9F
:100748000C0404604C6804F1FF3CBCF1010F03D9B0
:10075800112C01D0122C10D1846806EA040CCC6844
:10076800BC4044EA0C048460446824EA02024C68F1
:10077800C4F300149C4014434460C26816408A685D
:10078800BA403243C2604A6812F0805FABD00022A0
:100798000192264A546C44F480445464526C02F426
:1007A80080420192019A9C08A61C1E4A52F82670A3
:1007B80003F0030296000F22B24027EA02071C4A00
:1007C80090423FF45CAF02F5806290421AD002F585
:1007D8008062904218D002F58062904216D002F5ED
:1007E8008062904214D002F58062904212D002F5E5
:1007F8008062904210D002F5806290423FF43DAF93
:1008080008223DE701223BE7022239E7032237E7C6
:10081800042235E7052233E7062231E702B0F0BCAF
:100828007047704700380140003C014000380240E2
:100838000000024012B90904816170478161704764
:10084800002800F0BB8170B582B00446036813F03D
:10085800010F3BD0A74B9B6803F00C03042B2CD053
:10086800A44B9B6803F00C03082B21D06368B3F5F5
:10087800803F4FD0B3F5A02F52D09E4B1A6822F478
:1008880080321A601A6822F480221A606368002B8A
:1008980050D0FFF75FFE0546964B1B6813F4003FE8
:1008A80014D1FFF757FE401B6428F5D903208AE1CD
:1008B800904B5B6813F4800FD8D08E4B1B6813F4F1
:1008C800003F03D06368002B00F07A81236813F09F
:1008D800020F55D0874B9B6813F00C0F3ED0854B09
:1008E8009B6803F00C03082B33D0E368002B68D017
:1008F800814B01221A60FFF72DFE05467D4B1B68D0
:1009080013F0020F54D1FFF725FE401B0228F5D93A
:10091800032058E1774A136843F480331360B5E73E
:10092800744B1A6842F480221A601A6842F48032C2
:100938001A60ABE7FFF70EFE05466E4B1B6813F413
:10094800003FC3D0FFF706FE401B6428F5D90320FB
:1009580039E1684B5B6813F4800FC6D1654B1B689F
:1009680013F0020F04D0E368012B01D001202AE123
:10097800604A136823F0F803216943EAC10313604E
:10098800236813F0080F40D0636963B35B4B0122FF
:100998001A60FFF7DFFD0546564B5B6F13F0020F39
:1009A80033D1FFF7D7FD401B0228F5D903200AE110
:1009B800504A136823F0F803216943EAC10313601E
:1009C800DEE74D4B00221A60FFF7C4FD0546494B90
:1009D8001B6813F0020FD3D0FFF7BCFD401B0228A1
:1009E800F5D90320EFE0454B00221A60FFF7B2FD6E
:1009F8000546404B5B6F13F0020F06D0FFF7AAFDC8
:100A0800401B0228F5D90320DDE0236813F0040F0A
:100A180079D0384B1B6C13F0805F33D100230193DE
:100A2800344B1A6C42F080521A641B6C03F08053EA
:100A38000193019B0125324B1B6813F4807F23D05F
:100A4800A368012B34D0052B38D02A4B1A6F22F01B
:100A580001021A671A6F22F004021A67A368002BB2
:100A680036D0FFF777FD0646224B1B6F13F0020FB7
:100A780048D1FFF76FFD801B41F288339842F3D9C4
:100A88000320A0E00025D6E71D4A136843F48073CD
:100A98001360FFF75FFD0646194B1B6813F4807F50
:100AA800CED1FFF757FD801B0228F5D903208AE035
:100AB800104A136F43F001031367CFE70D4B1A6F0A
:100AC80042F004021A671A6F42F001021A67C5E77A
:100AD800FFF740FD0646074B1B6F13F0020F11D0BE
:100AE800FFF738FD801B41F288339842F3D9032081
:100AF80069E000BF0038024000004742800E4742CC
:100B080000700040E5B9A369002B5BD0304A9268B9
:100B180002F00C02082A58D0022B17D02D4B0022C5
:100B28001A60FFF717FD0446294B1B6813F0007F76
:100B380042D0FFF70FFD001B0228F5D9032042E041
:100B4800234A136C23F080531364DCE7214B002203
:100B58001A60FFF7FFFC05461D4B1B6813F0007F6A
:100B680006D0FFF7F7FC401B0228F5D903202AE03E
:100B7800E369226A1343626A43EA8213A26A52084B
:100B8800013A43EA0243E26A43EA0263104A5360C5
:100B9800104B01221A60FFF7DDFC04460C4B1B6862
:100BA80013F0007F06D1FFF7D5FC001B0228F5D90A
:100BB800032008E0002006E0002004E00120704740
:100BC800012000E0002002B070BD0120FBE700BF5B
:100BD8000038024060004742264B9B6803F00C0334
:100BE800042B44D0082B01D0234870472DE9F04B43
:100BF800204B5A6802F03F025B6813F4800F13D051
:100C08001C4B5968C1F3881100231C48A1FB000143
:100C1800FFF7D6FA174B5B68C3F3014301335B0058
:100C2800B0FBF3F0BDE8F08B124B5B68C3F388139D
:100C38001E4600275C010025E41A65EB0705A9019B
:100C480041EA9461A001001B61EB0501CB0043EA76
:100C58005073C400A01943EB07018B0243EA905379
:100C68008402204619460023FFF7AAFAD2E7034870
:100C7800704700BF003802400024F40040787D012E
:100C8800002800F09D8070B504464F4B1B6803F0A8
:100C98000F038B4209D2CBB24B4A1370136803F08F
:100CA8000F038B4201D0012070BD236813F0020F9F
:100CB80017D013F0040F04D0444A936843F4E05368
:100CC8009360236813F0080F04D0404A936843F4F4
:100CD800604393603D4A936823F0F003A0680343A0
:100CE80093600D46236813F0010F32D06368012B1F
:100CF80021D09A1E012A25D9344A126812F0020F0F
:100D080060D032498A6822F0030213438B60FFF7F0
:100D180021FC06462D4B9B6803F00C036268B3EB7D
:100D2800820F16D0FFF716FC801B41F288339842D9
:100D3800F0D90320B8E7254A126812F4003FE0D141
:100D48000120B1E7214A126812F0007FD9D10120B1
:100D5800AAE71D4B1B6803F00F03AB4209D9EAB29F
:100D6800194B1A701B6803F00F03AB4201D0012026
:100D78009AE7236813F0040F06D0144A936823F403
:100D8800E053E1680B439360236813F0080F07D022
:100D98000E4A936823F46043216943EAC1039360D0
:100DA800FFF71AFF094B9B68C3F30313084AD35C88
:100DB800D840084B18600020FFF782FB002073E73B
:100DC8000120704701206FE7003C024000380240D4
:100DD8008020000808000020014B1868704700BFF9
:100DE80008000020F8B505460F4616461C463BE0AD
:100DF8002CB1FFF7AFFB069BC01AA04234D32A6878
:100E0800536823F0E00353606B68B3F5827F0BD01F
:100E1800AB6AB3F5005F14D0012385F85130002385
:100E280085F85030032027E0AB68B3F5004F02D0B7
:100E3800B3F5806FECD12A68136823F04003136080
:100E4800E6E72A68136823F400531B041B0C13609D
:100E58002A68136843F400531360DDE70123B342A3
:100E680009D0B4F1FF3FC3D12B689B6837EA03036D
:100E7800F4D00023F3E70020F8BD10B582B0044693
:100E880000920B4600228021FFF7ACFF034610B901
:100E9800184602B010BD636D43F020036365032359
:100EA800F6E700283BD010B504460023836290F88B
:100EB8005130002B2ED0022384F851302268136859
:100EC80023F0400313606368A2681343E268134386
:100ED8002269134362691343A26902F4007213433F
:100EE800E2691343226A1343A16A22680B43136021
:100EF800638B03F00403616A22680B435360226822
:100F0800D36923F40063D36100206065012384F86A
:100F1800513010BD80F8503000F010FECBE70120B2
:100F280070472DE9F04385B099460C9D90F85030F4
:100F3800012B00F0108104460F461646012380F865
:100F48005030FFF707FB804694F85130DBB26268F7
:100F5800012B15D0B2F5827F0AD00223012284F832
:100F68005120002284F85020184605B0BDE8F083CF
:100F7800A268002A40F0E780042B01D00223EDE7A5
:100F8800002F00F0E280002E00F0E180B9F1000FA0
:100F980000F0DF8094F85130DBB2012B2BD0002316
:100FA8006365A663A4F83E90A4F83C902763A4F870
:100FB8003690A4F834902364636423681A6812F0A6
:100FC800400F03D11A6842F040021A60E368B3F593
:100FD800006F14D063681BB1E38E9BB2012B07D15D
:100FE800236817F8012B1A73E38E013B9BB2E38643
:100FF8004FF0010961E0052384F85130CFE76368B9
:101008001BB1E38E9BB2012B07D1236837F8022B63
:10101800DA60E38E013B9BB2E3864FF0010913E0EF
:10102800E38F9BB26BB123689A6812F0010F08D066
:10103800DB6826F8023BE38F013B9BB2E3874FF066
:101048000109B5F1FF3F1CD1E38E9BB21BB9E38FB9
:101058009BB2002B55D0B9F1000FE1D0E38E9BB2C3
:10106800002BDDD023689A6812F0020FD8D037F829
:10107800022BDA60E38E013B9BB2E3864FF0000956
:10108800CEE7FFF767FAA0EB0800A842DCD30323FA
:1010980064E7E38F9BB26BB123689A6812F0010F83
:1010A80008D0DB683370E38F013B9BB2E3870136DE
:1010B8004FF00109B5F1FF3F1BD1E38E9BB213B985
:1010C800E38F9BB2EBB1B9F1000FE2D0E38E9BB294
:1010D800002BDED023689A6812F0020FD9D03A7834
:1010E8001A73E38E013B9BB2E38601374FF0000988
:1010F800CFE7FFF72FFAA0EB0800A842DDD30323C0
:101108002CE7CDF800802B46012202212046FFF76C
:1011180069FE08B1032321E7424629462046FFF726
:10112800ACFE034618B120236365012316E7A268C5
:10113800002A7FF413AF03922268D1680391926862
:101148000392039A0AE7022308E7012306E701232B
:1011580004E7012302E7022306E7000070B584B024
:101168000E4600230293B0F53C5F27D240F0800082
:101178008DF80C0000238DF80D300224144D002248
:101188004FF400412846FFF755FB41F2883300939E
:10119800234602AA03A90F48FFF7C3FE01224FF412
:1011A80000412846FFF746FB013C04AB1C4414F8F9
:1011B800083C33709DF8080004B070BDAF238DF86B
:1011C8000C308DF80D0000238DF80E300324D5E780
:1011D80000000240685E002010B586B0002304932A
:1011E800B0F53C5F31D32F238DF814308DF81500FE
:1011F8008DF81610032400224FF400411648FFF71B
:1012080019FB164B1B68164AA2FB03239B0C9B0079
:10121800029300230393039B01330393039A029BD6
:101228009A42F8D341F288330093234604AA05A9C9
:101238000C48FFF776FE01224FF400410648FFF7FD
:10124800F9FA9DF8100006B010BD8DF814008DF85D
:1012580015100224CFE700BF00000240080000205C
:1012680083DE1B43685E002010B584B08DF80F0044
:101278000D4C00224FF400412046FFF7DBFA41F203
:101288008833009301230DF10E020DF10F01074879
:10129800FFF747FE01224FF400412046FFF7CAFA44
:1012A8009DF80E0004B010BD00000240685E0020EA
:1012B800F8B505460F4600F041F83B20FFF7D4FF8C
:1012C800002403E07068FFF74BF90134BC420FD2E9
:1012D80005EBC40615F83430002BF3D03520FFF7A2
:1012E800C3FF7068FFF73CF93620FFF7BDFFECE756
:1012F8003620FFF7B9FF0A20FFF732F93020FFF751
:10130800B3FF3620FFF7B0FF3B20FFF7ADFF00200B
:10131800F8BD000010B53020FFF7A6FF002408E054
:10132800054B03EBC402117933F83400FFF754FF7F
:1013380001343C2CF4D910BD081D000810B530202C
:10134800FFF792FF002409E0064B03EBC40393F870
:10135800EC11B3F8E801FFF73FFF01342E2CF3D965
:1013680010BD00BF081D000810B582B00A248DF812
:1013780006400DF1070142F68F70FFF7EFFEC0B28D
:101388008DF80600FFF7C6FF2046FFF7E9F80DF1D4
:10139800070142F68F70FFF7E1FEC0B28DF8060034
:1013A8000DF1070142F68F70FFF7D8FE00F060F8E4
:1013B800FFF7D0F802B010BDB1F5807F03D808B5AB
:1013C80000F018FC08BD6FF00100704710B5074C1D
:1013D8004FF480720021204600F07EFC59232370D0
:1013E80001212046FFF7E8FF10BD00BF28000020BC
:1013F800F0B585B005468C4696460024264619E089
:10140800012005F8340005EBC400174F57F82110E8
:101418004160013401329DF80E10914209D904A9A6
:10142800114411F80C1C0129EAD9002005F83400F0
:10143800E9E701369E420FD21EF8061001EB410182
:1014480088000A4A024407CA04AF07E907009DF862
:101458000F2032B10022DEE7CCF80040002005B0B2
:10146800F0BD6FF03C00FAE7682000082801002072
:1014780038B5FE4C4FF440620021204600F02CFCA9
:10148800012284F81723042384F80D3384F80E23EB
:10149800022184F80F1384F8163384F8232384F880
:1014A800182384F8193384F81B3384F81D3384F81F
:1014B8001F13082084F8220384F82F2384F8242398
:1014C80084F8253384F8273384F8282384F82933CB
:1014D80084F82B1384F82E0384F83B2384F83023F4
:1014E80084F8313384F8333384F83513062584F8C7
:1014F8003A5384F8472384F83D1384F8461384F854
:10150800532384F8493384F84B3384F84C2384F804
:101518004D3384F84F1384F8520384F85F2384F81A
:10152800542384F8553384F8562384F8573384F8C1
:10153800591384F85E5384F86B2384F8613384F874
:10154800633384F8653384F8671384F86A0384F88E
:10155800772384F86D3384F86F1384F8763384F82E
:10156800832384F8793384F87A2384F87B3384F8E6
:101578007C2384F87D3384F87E2384F87F1384F8F1
:10158800820384F88F2384F8842384F8853384F8CD
:10159800873384F8882384F8891384F88E5384F871
:1015A8009B2384F8913384F8922384F8933384F846
:1015B800953384F8971384F89A0384F8A72384F85A
:1015C8009C2384F89D3384F89E2384F89F1384F821
:1015D800A63384F8B32384F8A82384F8A93384F8BD
:1015E800AB1384F8B23384F8BF2384F8B42384F8A7
:1015F800B53384F8B62384F8B73384F8B82384F86D
:10160800B91384F8BE5384F8CB2384F8C13384F823
:10161800C22384F8C33384F8C42384F8C53384F818
:10162800C71384F8CA0384F8D72384F8CC2384F832
:10163800CD3384F8CE2384F8CF3384F8D13384F8BB
:10164800D22384F8D31384F8D60384F8E32384F8E8
:10165800D93384F8DA2384F8DB3384F8DD1384F88B
:10166800E25384F8EF2384F8E53384F8E73384F809
:10167800E91384F8EE5384F8FB2384F8F02384F804
:10168800F11384F8FA1384F8072484F8FD3384F8F6
:10169800FF3384F8002484F8011484F8065484F88D
:1016A800132484F8093484F80B3484F80D3484F84E
:1016B8000E2484F80F1484F8120484F81F2484F884
:1016C800153484F8162484F8173484F8182484F818
:1016D800191484F81E5484F82B2484F8202484F8E0
:1016E800213484F8233484F8253484F8262484F8B3
:1016F800271484F82A0484F8372484F82C2484F8DE
:101708002D3484F82F3484F8302484F8313484F864
:10171800322484F8331484F8360484F8432484F893
:10172800382484F8393484F83A2484F83B3484F82B
:101738003D3484F83F1484F8420484F8572284F82E
:101748004D3284F84E2284F84F3284F8502284F8BF
:10175800513284F8522284F8533284F8542284F89F
:1017680055120A2084F8560284F8632284F8593204
:1017780084F85B3284F85C2284F85D3284F85E2257
:1017880084F85F3284F8602284F8611284F8620277
:1017980084F86F2284F8653284F8673284F86932F5
:1017A80084F86A2284F86B3284F86C2284F86D120B
:1017B80084F86E0284F87B2284F8713284F87332DC
:1017C80084F8753284F8773284F8782284F87912AC
:1017D80084F87A0284F8872284F87D3284F87F328C
:1017E80084F8813284F8833284F8851284F886027A
:1017F80084F8932284F8882284F8893284F88B321A
:1018080084F88D3284F88F3284F8911284F8920229
:1018180084F89F2284F8942284F8953284F89622DA
:1018280084F8973284F8993284F89B3284F89D12B0
:1018380084F89E0284F8AB2284F8A02284F8A132AE
:1018480084F8A22284F8A33284F8A42284F8A5326A
:1018580084F8A73284F8A91284F8AA0284F8B72277
:1018680084F8AC2284F8AD3202E000BF28010020E1
:1018780084F8AE2284F8AF32234684F8B0220421DB
:1018880084F8B11284F8B22284F8B312022483F8DF
:10189800B54283F8B60283F84B2283F8402283F8D6
:1018A800411283F8422283F8431283F8442283F8D2
:1018B800451283F8462283F8471283F8482283F8B2
:1018C800494283F84A0283F88B21032183F8801167
:1018D80083F88A2138BD00BFF0B589B0002401948F
:1018E800214B1A6B42F020021A631A6B02F0200295
:1018F8000192019A02941A6B42F001021A631B6B5F
:1019080003F001030293029B184E22460121304640
:10191800FEF790FF0125039504950594069403A905
:101928003046FEF7A3FEE0230393022704970595AC
:101938000323069305230793A6F5A05603A930466B
:10194800FEF794FE4FF400430393049503A9304631
:10195800FEF78CFE039704950595069403A9304677
:10196800FEF784FE09B0F0BD0038024000140240C2
:10197800FEE7000008B50E480E4B03604FF4827373
:10198800436000238360C360036143614FF40072C6
:101998008261C3610362436283620A23C362FFF701
:1019A80080FA00B908BDD5210348FFF7E1FF00BF61
:1019B800685E0020003001409820000800B595B00E
:1019C80000230193234A116C41F080511164126C79
:1019D80002F080520192019A02931F4A116841F461
:1019E80080411160126802F480420292029A022237
:1019F800089201220B9210220C920E9308A8FEF76F
:101A08001FFFF0B90F23039300210491059106915C
:101A1800079103A8FFF734F9B8B9FFF7DDF90F4BC1
:101A2800A3FB00308009FEF7F5FD0420FEF708FE51
:101A3800002211464FF0FF30FEF7B8FD15B05DF8F3
:101A480004FBA5210648FFF793FFB3210448FFF7DD
:101A58008FFF00BF0038024000700040D34D621075
:101A68009820000808B5FEF74FFDFFF7A7FFFFF71E
:101A780033FFFFF77FFF012202210948FEF7DAFE54
:101A880001224FF400410748FEF7D4FEFFF76CFC33
:101A9800FFF79CFC41F28830FEF762FDF8E700BFD3
:101AA80000000240000C024010B582B000240094EF
:101AB800214B5A6C42F480425A645A6C02F48042B8
:101AC8000092009A01941A6C42F080521A641B6CBE
:101AD80003F080530193019B0320FEF755FD224636
:101AE80021466FF00B00FEF761FD224621466FF09C
:101AF8000A00FEF75BFD224621466FF00900FEF75B
:101B080055FD224621466FF00400FEF74FFD2246A0
:101B180021466FF00300FEF749FD224621466FF08B
:101B28000100FEF743FD224621464FF0FF30FEF745
:101B38003DFD02B010BD00BF003802400268114BE5
:101B48009A4200D0704700B587B00021009103F594
:101B580084335A6C42F480525A645B6C03F48053A9
:101B68000093009BE0230193022302930391032334
:101B780004930523059301A90348FEF777FD07B0F1
:101B88005DF804FB00300140000002407047FEE7AA
:101B9800FEE7FEE7FEE770477047704708B5FEF7B7
:101BA800CDFCFEF75EFD08BD0F49D1F8883043F43F
:101BB8007003C1F888300D4B1A6842F001021A60B0
:101BC800002098601A6822F0847222F480321A6029
:101BD800074A5A601A6822F480221A60D8604FF0C7
:101BE80000638B60704700BF00ED00E000380240E2
:101BF80010300024A1B110B582B00C46B1F5807F39
:101C080011D802460B4601A90B48FFF7F1FB68B94A
:101C180001990948FFF74CFB58B9204602B010BD9E
:101C28006FF0020070476FF00100F7E76FF00400F3
:101C3800F4E76FF00400F1E7640E0020DFF834D019
:101C4800002103E00C4B5B58435004310B480C4B0C
:101C580042189A42F6D30B4A02E0002342F8043BAA
:101C6800094B9A42F9D3FFF79FFF00F011F8FFF7ED
:101C7800F9FE704700000220B8200008000000208C
:101C88000C0000200C000020C05E0020FEE70000D1
:101C980070B50D4E0D4CA41BA4100025A54209D10A
:101CA8000B4E0C4C00F020F8A41BA4100025A542F4
:101CB80005D170BD56F8253098470135EEE756F83E
:101CC800253098470135F2E7B0200008B020000819
:101CD800B0200008B420000802440346934200D113
:101CE800704703F8011BF9E7F8B500BFF8BC08BC5A
:101CF8009E467047F8B500BFF8BC08BC9E467047C2
:101D080000000000060000000100000002000000C2
:101D18000200000040000000030000004000000036
:101D280004000000000000000500000000000000A2
:101D3800060000007A000000070000000E00000006
:101D4800080000000B00000009000000030000006C
:101D58000C0000001C0000000D0000000000000046
:101D68000E0000000A00000010000000C60000007D
:101D7800110000000800000013000000050000002A
:101D8800140000007300000017000000200000008D
:101D980018000000190000001C000000A900000045
:101DA8001E0000003F0000002000000003000000AB
:101DB80021000000140000002700000000000000BF
:101DC80028000000000000002B0000002F00000089
:101DD8002D0000007D0000002E000000FF00000024
:101DE800002F000000000000012F0000220000006A
:101DF8000C2F00006C0000000D2F0000F100000007
:101E08000E2F00002F000000122F0000000000001D
:101E1800132F00005F000000162F00004000000094
:101E2800172F00000E000000192F0000030000000B
:101E38001B2F0000330000001D2F000017000000BA
:101E48001F2F000050000000202F00006E0000002F
:101E5800212F000014000000222F0000AC00000019
:101E6800232F000013000000262F0000AC00000004
:101E7800272F0000B4000000322F00000E000000E1
:101E8800362F000003000000692F0000F800000052
:101E98006A2F0000390000006B2F00000E000000C0
:101EA8006C2F00009B000000052F000000000000C0
:101EB8006D2F0000EF0000006E2F0000DE00000014
:101EC8006F2F000002000000702F00002F0000009C
:101ED8007B2F000013000000912F0000100000006D
:101EE8000B0000000B00000000000000B000000024
:101EF800010000000800000002000000B00000001F
:101F08000300000009000000080000000B000000AA
:101F18000A000000260000000B0000000500000079
:101F28000C000000130000000D000000000000007D
:101F38000E00000033000000100000000000000048
:101F4800110000000300000013000000040000005E
:101F5800170000003000000018000000EC0000002E
:101F68001A000000D10000001B0000003F00000024
:101F78001C000000320000001D0000009F0000004F
:101F88001E000000000000002100000014000000F6
:101F980026000000060000002700000000000000E6
:101FA80028000000400000002B0000006400000032
:101FB8002D0000004C000000002F00000000000071
:101FC800012F000000000000022F00000A0000009E
:101FD800052F0000010000000C2F00006C0000001D
:101FE8000D2F0000F10000000E2F00002F00000050
:101FF800122F000000000000132F00005F000000F7
:10200800162F000040000000172F00000E000000EF
:10201800192F0000030000001B2F000033000000F0
:102028001D2F0000170000001F2F000050000000A7
:10203800202F00006E000000212F00001400000077
:10204800222F0000AC000000272F0000B400000081
:10205800322F00000E000000362F000003000000A1
:102068003C000000B4000000B4000000F0000000D4
:102078003C0000000000000000000000000000001C
:102088000102030406070809000000000102030416
:102098002E2E2F5372632F6D61696E2E6300000020
:0820A80050E1FF7F0100000080
:0420B000AD01000876
:0420B4008901000896
:0C20B80001000000100000000024F400F3
:0400000508001C458E
:00000001FF
