:020000040800F2
:1000000000000220D15A00087D5400087F540008E7
:100010008154000883540008855400080000000043
:1000200000000000000000000000000087540008ED
:1000300089540008000000008B5400088D5400080B
:10004000215B0008215B0008215B0008215B0008A0
:10005000215B0008215B0008215B0008215B000890
:1000600099540008A3540008215B0008215B000894
:10007000215B0008215B0008215B0008215B000870
:10008000215B0008215B0008215B0008215B000860
:10009000215B0008215B0008215B0008AD540008CB
:1000A000215B0008215B0008215B0008215B000840
:1000B000215B0008215B0008215B0008215B000830
:1000C000215B0008215B0008215B0008215B000820
:1000D000215B0008215B0008215B0008215B000810
:1000E000215B0008215B0008215B0008215B000800
:1000F000215B0008215B0008215B0008D95400083F
:10010000215B0008215B0008215B0008215B0008DF
:10011000215B0008E9540008215B0008215B00080E
:10012000215B0008215B0008215B0008B95400082E
:10013000215B0008215B0008215B0008215B0008AF
:10014000215B0008215B0008215B0008C9540008FE
:10015000215B0008215B0008215B0008215B00088F
:10016000215B0008215B0008215B0008215B00087F
:10017000215B0008215B0008215B000800000000F3
:08018000215B0008215B00086F
:1001900010B5054C237833B9044B13B10448AFF3C1
:1001A00000800123237010BDC80100200000000062
:1001B000FC63000808B5034B1BB103490348AFF3C8
:1001C000008008BD00000000CC010020FC63000896
:1001D00053B94AB9002908BF00281CBF4FF0FF31AE
:1001E0004FF0FF3000F072B9ADF1080C6DE904CEAC
:1001F00000F006F8DDF804E0DDE9022304B0704702
:100200002DE9F047089E04468846002B4BD18A42D0
:10021000154667D9B2FA82F24AB1C2F1200701FA53
:1002200002F320FA07F7954047EA030894404FEAA3
:10023000154E230CB8FBFEF71FFA85FC0EFB178842
:1002400043EA084307FB0CF1994209D9EB1807F17F
:10025000FF3080F01B81994240F21881023F2B440D
:100260005B1AA4B2B3FBFEF00EFB103344EA034466
:1002700000FB0CFCA44509D92C1900F1FF3380F0D8
:100280000781A44540F2048102382C4440EA07402B
:10029000A4EB0C0400271EB1D4400023C6E90043A0
:1002A0003946BDE8F0878B4209D9002E00F0EB807B
:1002B0000027C6E9000138463946BDE8F087B3FAA1
:1002C00083F7002F47D18B4202D3824200F2FA809B
:1002D000841A61EB030301209846002EE0D0C6E9A2
:1002E0000048DDE702B9FFDEB2FA82F2002A40F0F0
:1002F0008F80491B4FEA154E1FFA85F80127B1FB85
:10030000FEFC230C0EFB1C1143EA014308FB0CF11D
:10031000994207D9EB180CF1FF3002D2994200F252
:10032000CD808446591AA3B2B1FBFEF00EFB101427
:1003300043EA044408FB00F8A04507D92C1900F152
:10034000FF3302D2A04500F2B6801846A4EB0804A1
:1003500040EA0C409FE7C7F1200CBB4022FA0CFE9C
:100360004EEA030E01FA07F420FA0CF521FA0CF319
:100370004FEA1E482543B3FBF8F92C0C08FB193350
:100380001FFA8EFA44EA034309FB0AF49C4202FA7C
:1003900007F200FA07F10BD91EEB030309F1FF3056
:1003A00080F087809C4240F28480A9F10209734466
:1003B0001B1BADB2B3FBF8F008FB103345EA034456
:1003C00000FB0AFAA24508D91EEB040400F1FF3332
:1003D0006BD2A24569D90238744440EA0940A0FBB7
:1003E0000289A4EB0A044C45C2464B4654D351D073
:1003F000002E69D0B1EB0A0564EB030404FA0CFC8F
:10040000FD40FC404CEA0505C6E90054002747E7DB
:10041000C2F1200320FA03F7954001FA02F021FA15
:1004200003F34FEA154E3843010CB3FBFEF71FFAF6
:1004300085F80EFB173341EA034107FB08F38B42B3
:1004400004FA02F407D9691807F1FF3C2FD28B4256
:100450002DD9023F2944CB1A81B2B3FBFEF00EFB2B
:10046000103341EA034100FB08F38B4207D96918B6
:1004700000F1FF3C17D28B4215D902382944C91A22
:1004800040EA07473BE73746304609E70746E7E6D5
:100490001846FBE64145ABD2B8EB020A69EB0E0207
:1004A00001381346A4E76046E9E7184695E7674632
:1004B000D1E781467CE702382C4447E7ACF1020CD7
:1004C0002B442FE7384608E73746E9E6704700BF78
:1004D000034613F8012B002AFBD1181A0138704784
:1004E00001F0FF01102A2BDB10F0070F08D010F8E5
:1004F000013B013A8B422DD010F0070F42B3F6D1E9
:10050000F0B441EA012141EA014122F007047FF001
:1005100000070023F0E80256083C85EA010586EA58
:10052000010685FA47F5A3FA87F586FA47F6A5FA94
:1005300087F68EB9EED1F0BC01F0FF0102F00702A0
:1005400032B110F8013B013A83EA010313B1F8D14B
:100550000020704701387047002D06BF354603382C
:10056000073815F0010F07D1013015F4807F02BF65
:10057000013015F4C03F0130F0BC0138704700BFB6
:1005800010B504460E4B18784FF47A73B3FBF0F3B2
:100590000C4A1068B0FBF3F000F0A8F868B90F2C13
:1005A00001D901200AE0002221464FF0FF3000F07F
:1005B0005DF8034B5C60002000E0012010BD00BF2F
:1005C000000000201C01002008B50B4B1A6842F403
:1005D00000721A601A6842F480621A601A6842F463
:1005E00080721A60032000F02FF80020FFF7C8FF88
:1005F00004F02EFE002008BD003C0240034A1168B2
:10060000034B1B780B441360704700BF147000202D
:1006100000000020014B1868704700BF14700020D4
:1006200038B50446FFF7F6FF0546B4F1FF3F02D0A8
:10063000044B1B781C44FFF7EDFF401BA042FAD38C
:1006400038BD00BF00000020074AD36823F4E063F0
:100650001B041B0C000200F4E060184340F0BF6074
:1006600040F40030D060704700ED00E030B4174B2C
:10067000DB68C3F30223C3F10704042C28BF04245E
:100680001D1D062D18D9033B4FF0FF3505FA04F464
:1006900021EA0401994005FA03F322EA030319430E
:1006A00000280BDB0901C9B200F1604000F5614090
:1006B00080F8001330BC70470023E5E700F00F001E
:1006C0000901C9B2024B1954F4E700BF00ED00E084
:1006D00014ED00E000F01F02400901239340024A9C
:1006E00042F82030704700BF00E100E00138B0F16F
:1006F000807F0AD2064B5860064AF02182F8231008
:100700000020986007221A6070470120704700BFE0
:1007100010E000E000ED00E0042805D0054A136871
:1007200023F0040313607047024A136843F0040384
:100730001360704710E000E0704708B5FFF7FCFF5A
:1007400008BD00000268D3B2103B0B49A1FB0313A4
:100750001B090A49C95CC165032B06D822F47F72C4
:1007600022F003028265806D704722F47F7222F0CE
:10077000030204328265F6E7ABAAAAAA1464000851
:10078000836A826992B9012B0AD01BB1022B01D076
:1007900000207047C36A13F0807F2CD1002070477F
:1007A000C36AB3F1C07F28D000207047B2F5005F64
:1007B00005D0022B29D9032B15D000207047032B1D
:1007C00003D8DFE803F01C041C0A00207047C36A4A
:1007D00013F0807F15D100207047C36AB3F1C07F4A
:1007E00011D000207047C36A13F0807F01D0012030
:1007F000704700207047012070470120704701209A
:1008000070470120704701207047012070470000A9
:1008100070B50446FFF7FEFE002C5BD005460023B2
:1008200084F83430022384F835302268136823F0CA
:100830000103136023681A6812F0010F0AD0FFF752
:10084000E9FE401B0528F5D920236365032084F8C1
:10085000350070BD1A68204810406168A2680A43DC
:10086000E1680A4321690A4361690A43A1690A43AD
:10087000E1690A43216A0A430243616A04291ED0DE
:100880001A602668756925F00705636A1D43042B05
:1008900007D1A36A1D43E36A1BB12046FFF770FF2F
:1008A00090B975612046FFF74DFFE26D3F239340FD
:1008B000836000206065012384F83530C9E7E16A70
:1008C000206B01430A43DBE740236365012084F882
:1008D0003500BEE70120BCE73F8010F0F0B583B0E3
:1008E000044600230193724B1D68724BA3FB053530
:1008F000AD0A876D3E68C26D08239340334210D025
:1009000003681A6812F0040F0BD01A6822F0040270
:100910001A60C26D08239340BB60436D43F001032E
:100920004365E26D01239340334209D02268526946
:1009300012F0800F04D0BB60636D43F00203636567
:10094000E26D04239340334209D02268126812F00A
:10095000020F04D0BB60636D43F004036365E26D76
:1009600010239340334224D02268126812F0080FFB
:100970001FD0BB6023681A6812F4802F0DD01B684B
:1009800013F4002F04D1236C9BB12046984710E04C
:10099000A36C73B1204698470BE01A6812F4807F6D
:1009A00003D11A6822F008021A60236C0BB12046AA
:1009B0009847E26D20239340334255D02268126855
:1009C00012F0100F50D0BB6094F83530DBB2052B1D
:1009D0000ED023681A6812F4802F33D01B6813F4EA
:1009E000002F2AD1636C002B3ED0204698473BE075
:1009F0002268136823F0160313602268536923F0FA
:100A000080035361236CA3B12268136823F00803A9
:100A10001360E26D3F239340BB60002384F83430C1
:100A2000012384F83530236D002B3FD020469847B2
:100A30003CE0A36C002BE7D1EBE7E36BA3B12046CE
:100A4000984711E01A6812F4807F09D11A6822F0E1
:100A500010021A60002384F83430012384F8353002
:100A6000E36B0BB120469847636DFBB1636D13F0E8
:100A7000010F17D0052384F835302268136823F05E
:100A800001031360019B01330193AB4204D8236837
:100A90001B6813F0010FF5D1002384F834300123D3
:100AA00084F83530E36C0BB12046984703B0F0BDB5
:100AB0001C010020B5814E1B00230F2B00F2D780B4
:100AC000F0B482B039E0072200E00022B2403A439D
:100AD0000234674E46F82420664A1468EA4302EA64
:100AE00004064F6817F4803F01D045EA0406614CC4
:100AF0002660646802EA04064F6817F4003F01D0DC
:100B000045EA04065B4C6660A46802EA04064F6886
:100B100017F4801F01D045EA0406564CA660E4682D
:100B200022404E6816F4001F01D045EA0402514CE1
:100B3000E26001330F2B00F2978001229A400C688B
:100B400004EA0205AA42F4D14C68022C01D0122C0E
:100B500010D1DE08083650F826C003F00704A700BD
:100B60000F24BC402CEA040C0C69BC4044EA0C0481
:100B700040F8264004685F000326BE40F64306EABC
:100B8000040C4C6804F00304BC4044EA0C04046008
:100B90004C6804F1FF3CBCF1010F03D9112C01D0CA
:100BA000122C10D1846806EA040CCC68BC4044EADC
:100BB0000C048460446824EA02024C68C4F3001404
:100BC0009C4014434460C26816408A68BA4032436D
:100BD000C2604A6812F0805FABD000220192264AC0
:100BE000546C44F480445464526C02F48042019288
:100BF000019A9C08A61C1E4A52F8267003F00302B4
:100C000096000F22B24027EA02071C4A90423FF4A6
:100C10005CAF02F5806290421AD002F58062904289
:100C200018D002F58062904216D002F580629042A0
:100C300014D002F58062904212D002F58062904298
:100C400010D002F5806290423FF43DAF08223DE7AC
:100C500001223BE7022239E7032237E7042235E786
:100C6000052233E7062231E702B0F0BC7047704737
:100C700000380140003C01400038024000000240C2
:100C80000369194201D1002070470120704712B951
:100C900009048161704781617047000008B5054B08
:100CA0005B69034200D108BD024B586104F08AF829
:100CB000F9E700BF003C014008B338B504460368BB
:100CC0004CF6CC421A60036845F255521A6003682C
:100CD00042685A60036882689A60FFF79BFC054689
:100CE0002368DA6832B1FFF795FC401B3028F7D94A
:100CF000032003E04AF6AA221A60002038BD012032
:100D0000704703684AF6AA221A60002070472DE94E
:100D1000F04383B007460D46D0F80080CA00521A4F
:100D200093000344DE6C1A6DB61A1B6C9E4200D908
:100D30001E4606F103094FEA990915E006F1030979
:100D40004FEA9909EB005B1B9C003C44616C3B7CC7
:100D50000093B3B2EAB2404602F0C8F8636C334481
:100D60006364236D33442365414608EB451303F563
:100D700010639B699BB24B4512D9EA00521B93004A
:100D80003B441A6DDB6C9A420AD24BB19E1AC5EBFA
:100D9000C50293003B441B6C9E42CFD91E46CDE753
:100DA0003EB90123AB40D1F8345825EA0305C1F818
:100DB0003458002003B0BDE8F08300286BD0F0B5B4
:100DC0008BB00446032380F8B93304F07DFC20681F
:100DD00001F0D8FC254655F8107B6E460FCD0FC6A6
:100DE0000FCD0FC695E8030086E80300231D0ECB48
:100DF000384601F083FC0021206801F0C9FC002284
:100E000010E0D100891A8B002344012183F83910A6
:100E100083F83820DA87002183F83B10196459647D
:100E2000D96401320E2AECD9002218E0D100891AC7
:100E30008B002344002183F8F91183F8F821DA8725
:100E400083F8FB11C3F80012C3F80412C3F80C12A4
:100E5000236802F1400003EB8003596001320E2A3F
:100E6000E4D9254655F8107B6E460FCD0FC60FCD41
:100E70000FC695E8030086E80300231D0ECB384615
:100E800001F09CFC012384F8B933206802F0D9F802
:100E900000200BB0F0BD0120704790F8B833012B53
:100EA0000ED010B50446012380F8B833006802F074
:100EB000BCF8206801F060FC002084F8B80310BD85
:100EC000022070472DE9F04704460568284602F0E5
:100ED000F3F808B1BDE8F0870646206802F0BDF8D7
:100EE0000028F7D0206802F0B8F810F0020F04D004
:100EF0002268536903F002035361206802F0ADF8E1
:100F000010F4002F75D13746206802F0A6F810F4CF
:100F1000802F40F0D280206802F09FF80028C0F2B5
:100F20003E81206802F099F810F4006F0AD0D5F8DD
:100F3000083813F0010F40F041812268536903F42F
:100F400000635361206802F088F810F4805F40F07D
:100F50003981206802F081F810F4005F40F082814E
:100F6000206802F07AF810F0100F14D0226893690C
:100F700023F0100393612E6A06F00F08C6F3434373
:100F8000022B00F00382062B00F021822268936975
:100F900043F010039361206802F05FF810F0080F2F
:100FA00040F02982206802F058F810F4801F40F0C9
:100FB0002B82206802F051F810F4001F40F02E82BE
:100FC000206802F04AF810F0804F40F0318220682B
:100FD00002F043F810F0040F3FF47CAF23685D6823
:100FE00015F0040F40F02D82226853682B435360A4
:100FF00070E7206802F035F88046374621E0F900B6
:10100000C91B8A002244D2F800121B69C3F31203E1
:10101000C91AC2F81012D2F80012D2F804320B44E6
:10102000C2F8043228E019F0080F3DD119F0100F72
:1010300004D005EB47131022C3F8082B01374FEA01
:101040005808B8F1000F3FF45FAF18F0010FF5D06A
:101050005FFA87FA5146206802F013F8814610F0D3
:10106000010FE0D005EB47130122C3F8082B03F56D
:1010700030632269012AC2D05146204604F060FB49
:101080002369012BCFD1002FCDD1C7EBC70293002D
:101090002344D3F80C32002BC5D104F56F72012123
:1010A000206802F029F8BEE7204604F041FB05EB7A
:1010B00047130822C3F8082BB8E7206801F0D9FFCE
:1010C000804637462EE0FA00D21B93002344196C69
:1010D0005A6C0A445A6446E019F0080F04D005EB34
:1010E00047130822C3F8082919F0100F04D005EBA4
:1010F00047131022C3F8082919F0400F04D005EB5C
:1011000047134022C3F8082919F0020F04D005EB59
:1011100047130222C3F8082919F0800F3AD101378A
:101120004FEA5808B8F1000F3FF4F5AE18F0010F80
:10113000F5D05FFA87FA5146206801F0ABFF81468F
:1011400010F0010FC8D0012202FA07F0D5F83438A8
:1011500023EA0003C5F8343805EB4713C3F8082920
:1011600023699342AFD05146204604F0F5FA236933
:10117000012BB1D1002FAFD1C7EBC702930023449D
:10118000DB6C002BA8D104F56F720121206801F0FF
:10119000B3FFA1E739462046FFF7B9FDBFE7D5F811
:1011A000043823F00103C5F80438204604F00EFB90
:1011B0002268536903F000435361B2E6204604F00D
:1011C000EDFABAE6A94605F50068D8F8043023F030
:1011D0000103C8F804301021206801F097FB07E0F4
:1011E00009EB4613FF22C3F80829C3F8082B013680
:1011F0006368B342F4D84FF0FF33C8F81830D8F81A
:101200001C3043F00113C8F81C30236BEBB1D8F845
:10121000843043F00B03C8F88430D8F8443043F0EE
:101220000B03C8F84430D5F8003823F4FE63C5F842
:10123000003804F56F72217C206801F05DFF2268A0
:10124000536903F48053536183E6D8F8143043F0B4
:101250000B03C8F81430D8F8103043F00B03C8F86B
:101260001030E0E7206801F02BFF2268D36823F4F8
:101270007053D360206801F076FB90B90023E360DF
:101280004FF4007363612268D36843F41053D36052
:10129000204604F072FA2268536903F40053536144
:1012A0005EE60323E3604023636100F027FD674BA4
:1012B0000344674A934205D82268D36843F47053C5
:1012C000D360E5E7634B0344634A934205D8226841
:1012D000D36843F46053D360DAE7A0F57403A3F551
:1012E00010535E4A934205D82268D36843F45053A2
:1012F000D360CDE7A0F18373A3F5E743584A934247
:1013000005D82268D36843F44053D360C0E7554BF7
:101310000344554A934205D82268D36843F43053B6
:10132000D360B5E7514B0344514A934205D8226834
:10133000D36843F42053D360AAE74E4B03444E4A8C
:10134000934205D82268D36843F41053D3609FE7D3
:10135000A0F1B773A3F55853484A934205D82268C1
:10136000D36843F40053D36092E7454B0344454AA6
:10137000934205D82268D36843F4E053D36087E7EB
:101380002268D36843F4C053D36081E747F6F07313
:101390001E423FF4FBAD36094FEAC80AAAEB080328
:1013A0004FEA8309A144C6F30A02D9F80412284679
:1013B00001F0B0FDC6F30A06D9F804323344C9F887
:1013C0000432D9F810321E44C9F81062DEE5082252
:1013D00004F56F71284601F09DFDC6F30A164FEA29
:1013E000C803A3EB08018A002244D2F810321E443D
:1013F000C2F81062CAE5204604F0B9F922685369C0
:1014000003F008035361CDE5F9B2204604F0EAF990
:101410002268536903F480135361CAE5F9B2204688
:1014200004F0DAF92268536903F400135361C7E545
:10143000204604F0DDF92268536903F080435361CC
:10144000C5E5204604F0DAF9CEE500BF405327FF9A
:10145000FF340C00401E1BFF3F420F007F4F120065
:101460001FD6130060B6E5FE5FE3160000D3CEFE84
:101470003F771B00C05BB3FEBF9121001F75380092
:10148000E05459FEDF9C410090F8B833012B0BD09B
:1014900010B50446012380F8B833006801F0B5FDAB
:1014A000002084F8B80310BD0220704770B54DB21B
:1014B000002D22DB01F07F06C6EBC606B40004F562
:1014C000FC74044401F07F012170ED0F6570A2608F
:1014D000E37005B1E180022B17D090F8B833012BEF
:1014E00016D00546012380F8B8332146006801F084
:1014F0005AFA002085F8B80370BD01F07F06C6EBEC
:10150000C606B40038340444DCE700232371E4E762
:101510000220F1E710B54AB2002A1CDB01F07F047B
:10152000C4EBC404A30003F5FC73034401F07F0182
:101530001970D20F5A7090F8B823012A13D00446BC
:10154000012280F8B8231946006801F075FA0020DE
:1015500084F8B80310BD01F07F04C4EBC404A300F9
:1015600038330344E2E70220F4E770B501F07F0668
:10157000F500A91B8C0004F5FC740119AD1BAC002F
:101580000444C4F80422C4F80C320023C4F8103216
:1015900084F8F93184F8F8610369012B06D066B14B
:1015A000DAB2006801F0C0FA002070BDC6EBC605D3
:1015B000AC000444C4F80822F1E7DAB2006801F094
:1015C000E5FBF1E701F00F01C1EBC1018B0018440D
:1015D000B0F81002704770B501F07F06F500A91B46
:1015E0008C0038340119AD1BAC0004446264E36420
:1015F00000232365012384F8393084F838600369B7
:10160000012B06D05EB1DAB2006801F08DFA00203D
:1016100070BDC6EBC605AC000444A264F2E7DAB2C2
:10162000006801F0B3FBF2E738B54AB2002A1DDBCF
:10163000C1EBC104A30003F5FC73034401249C70B7
:1016400001F07F041C70D20F5A7090F8B823012A61
:101650001BD00546012280F8B8231946006801F026
:101660006DFC5CB1002085F8B80338BD01F07F0443
:10167000C4EBC404A30038330344DFE705F56F72FD
:10168000297C286801F038FDECE70220EDE710B571
:101690004AB2002A1CDBC1EBC104A30003F5FC73B2
:1016A000034400249C7001F07F011970D20F5A701E
:1016B00090F8B823012A13D00446012280F8B823F9
:1016C0001946006801F06CFC002084F8B80310BDD6
:1016D00001F07F04C4EBC404A30038330344E0E703
:1016E0000220F4E730B40468606A29B10D46A36AA9
:1016F00000EB134000230CE040EA0240A06212E03D
:1017000003F1400104EB8101496800EB1140013312
:10171000DBB2691E8B42F3DB40EA024005F13F0178
:1017200004EB81014860002030BC704703685962B7
:1017300000207047002800F0BB8170B582B00446DD
:10174000036813F0010F3BD0A74B9B6803F00C0319
:10175000042B2CD0A44B9B6803F00C03082B21D046
:101760006368B3F5803F4FD0B3F5A02F52D09E4BA6
:101770001A6822F480321A601A6822F480221A60F1
:101780006368002B50D0FEF745FF0546964B1B685B
:1017900013F4003F14D1FEF73DFF401B6428F5D938
:1017A00003208AE1904B5B6813F4800FD8D08E4BF6
:1017B0001B6813F4003F03D06368002B00F07A81AC
:1017C000236813F0020F55D0874B9B6813F00C0F62
:1017D0003ED0854B9B6803F00C03082B33D0E368A5
:1017E000002B68D0814B01221A60FEF713FF0546DB
:1017F0007D4B1B6813F0020F54D1FEF70BFF401B0B
:101800000228F5D9032058E1774A136843F480335E
:101810001360B5E7744B1A6842F480221A601A68A4
:1018200042F480321A60ABE7FEF7F4FE05466E4BD9
:101830001B6813F4003FC3D0FEF7ECFE401B642886
:10184000F5D9032039E1684B5B6813F4800FC6D1EA
:10185000654B1B6813F0020F04D0E368012B01D025
:1018600001202AE1604A136823F0F803216943EA62
:10187000C1031360236813F0080F40D0636963B39A
:101880005B4B01221A60FEF7C5FE0546564B5B6FA7
:1018900013F0020F33D1FEF7BDFE401B0228F5D92D
:1018A00003200AE1504A136823F0F803216943EA50
:1018B000C1031360DEE74D4B00221A60FEF7AAFE5B
:1018C0000546494B1B6813F0020FD3D0FEF7A2FE6A
:1018D000401B0228F5D90320EFE0454B00221A6097
:1018E000FEF798FE0546404B5B6F13F0020F06D0E3
:1018F000FEF790FE401B0228F5D90320DDE02368A7
:1019000013F0040F79D0384B1B6C13F0805F33D188
:1019100000230193344B1A6C42F080521A641B6C02
:1019200003F080530193019B0125324B1B6813F494
:10193000807F23D0A368012B34D0052B38D02A4BCD
:101940001A6F22F001021A671A6F22F004021A6756
:10195000A368002B36D0FEF75DFE0646224B1B6FB8
:1019600013F0020F48D1FEF755FE801B41F2883379
:101970009842F3D90320A0E00025D6E71D4A13685A
:1019800043F480731360FEF745FE0646194B1B684F
:1019900013F4807FCED1FEF73DFE801B0228F5D9DF
:1019A00003208AE0104A136F43F001031367CFE767
:1019B0000D4B1A6F42F004021A671A6F42F00102CF
:1019C0001A67C5E7FEF726FE0646074B1B6F13F0A6
:1019D000020F11D0FEF71EFE801B41F288339842A1
:1019E000F3D9032069E000BF0038024000004742FD
:1019F000800E474200700040E5B9A369002B5BD020
:101A0000304A926802F00C02082A58D0022B17D0F4
:101A10002D4B00221A60FEF7FDFD0446294B1B6882
:101A200013F0007F42D0FEF7F5FD001B0228F5D928
:101A3000032042E0234A136C23F080531364DCE755
:101A4000214B00221A60FEF7E5FD05461D4B1B6881
:101A500013F0007F06D0FEF7DDFD401B0228F5D90C
:101A600003202AE0E369226A1343626A43EA82138D
:101A7000A26A5208013A43EA0243E26A43EA026375
:101A8000104A5360104B01221A60FEF7C3FD044652
:101A90000C4B1B6813F0007F06D1FEF7BBFD001B4B
:101AA0000228F5D9032008E0002006E0002004E029
:101AB00001207047012000E0002002B070BD01202D
:101AC000FBE700BF0038024060004742324B9B6892
:101AD00003F00C03042B5CD0082B01D02F48704777
:101AE0002DE9F04B2C4B5A6802F03F025B6813F46F
:101AF000800F2BD0284B5B68C3F388131E4600274A
:101B00005C010025E41A65EB0705A90141EA94612F
:101B1000A001001B61EB0501CB0043EA5073C40038
:101B2000A01943EB07014B0243EAD053440220467D
:101B300019460023FEF74CFB174B5B68C3F30143C8
:101B400001335B00B0FBF3F0BDE8F08B124B5B6838
:101B5000C3F388131E4600275C010025E41A65EBD9
:101B60000705A90141EA9461A001001B61EB050191
:101B7000CB0043EA5073C400A01943EB07018B026A
:101B800043EA90538402204619460023FEF720FBC7
:101B9000D2E70348704700BF003802400024F40039
:101BA00000127A00002800F09D8070B504464F4B6B
:101BB0001B6803F00F038B4209D2CBB24B4A137060
:101BC000136803F00F038B4201D0012070BD23681E
:101BD00013F0020F17D013F0040F04D0444A936897
:101BE00043F4E0539360236813F0080F04D0404A95
:101BF000936843F4604393603D4A936823F0F00395
:101C0000A068034393600D46236813F0010F32D0A0
:101C10006368012B21D09A1E012A25D9344A126803
:101C200012F0020F60D032498A6822F00302134397
:101C30008B60FEF7EFFC06462D4B9B6803F00C0310
:101C40006268B3EB820F16D0FEF7E4FC801B41F212
:101C500088339842F0D90320B8E7254A126812F475
:101C6000003FE0D10120B1E7214A126812F0007F65
:101C7000D9D10120AAE71D4B1B6803F00F03AB422B
:101C800009D9EAB2194B1A701B6803F00F03AB4273
:101C900001D001209AE7236813F0040F06D0144AFC
:101CA000936823F4E053E1680B439360236813F0D7
:101CB000080F07D00E4A936823F46043216943EA72
:101CC000C1039360FFF702FF094B9B68C3F3031343
:101CD000084AD35CD840084B18600020FEF750FC3F
:101CE000002073E70120704701206FE7003C0240AD
:101CF00000380240886B00081C010020014B186866
:101D0000704700BF1C01002008B5FFF7F7FF044B28
:101D10009B68C3F38223034AD35CD84008BD00BF4D
:101D200000380240986B000808B5FFF7E7FF044B46
:101D30009B68C3F34233034AD35CD84008BD00BF5D
:101D400000380240986B0008F8B505460F46164665
:101D50001C463BE02CB1FEF75DFC069BC01AA0427E
:101D600034D32A68536823F0E00353606B68B3F5FB
:101D7000827F0BD0AB6AB3F5005F14D0012385F8E6
:101D80005130002385F85030032027E0AB68B3F5CD
:101D9000004F02D0B3F5806FECD12A68136823F0AE
:101DA00040031360E6E72A68136823F400531B041A
:101DB0001B0C13602A68136843F400531360DDE7BB
:101DC0000123B34209D0B4F1FF3FC3D12B689B6814
:101DD00037EA0303F4D00023F3E70020F8BD10B581
:101DE00082B0044600920B4600228021FFF7ACFF30
:101DF000034610B9184602B010BD636D43F02003CE
:101E000063650323F6E700283BD010B504460023A2
:101E1000836290F85130002B2ED0022384F8513089
:101E20002268136823F0400313606368A2681343B9
:101E3000E26813432269134362691343A26902F4FF
:101E400000721343E2691343226A1343A16A2268B2
:101E50000B431360638B03F00403616A22680B4336
:101E600053602268D36923F40063D3610020606566
:101E7000012384F8513010BD80F8503003F032FA5D
:101E8000CBE7012070472DE9F04385B099460C9DC2
:101E900090F85030012B00F0108104460F46164692
:101EA000012380F85030FEF7B5FB804694F851309E
:101EB000DBB26268012B15D0B2F5827F0AD0022313
:101EC000012284F85120002284F85020184605B0E1
:101ED000BDE8F083A268002A40F0E780042B01D01F
:101EE0000223EDE7002F00F0E280002E00F0E180F9
:101EF000B9F1000F00F0DF8094F85130DBB2012B14
:101F00002BD000236365A663A4F83E90A4F83C9010
:101F10002763A4F83690A4F834902364636423689C
:101F20001A6812F0400F03D11A6842F040021A609A
:101F3000E368B3F5006F14D063681BB1E38E9BB206
:101F4000012B07D1236817F8012B1A73E38E013B8D
:101F50009BB2E3864FF0010961E0052384F851301C
:101F6000CFE763681BB1E38E9BB2012B07D12368D7
:101F700037F8022BDA60E38E013B9BB2E3864FF029
:101F8000010913E0E38F9BB26BB123689A6812F0EA
:101F9000010F08D0DB6826F8023BE38F013B9BB2C0
:101FA000E3874FF00109B5F1FF3F1CD1E38E9BB2EF
:101FB0001BB9E38F9BB2002B55D0B9F1000FE1D0D4
:101FC000E38E9BB2002BDDD023689A6812F0020FDB
:101FD000D8D037F8022BDA60E38E013B9BB2E38660
:101FE0004FF00009CEE7FEF715FBA0EB0800A84272
:101FF000DCD3032364E7E38F9BB26BB123689A6859
:1020000012F0010F08D0DB683370E38F013B9BB205
:10201000E38701364FF00109B5F1FF3F1BD1E38E95
:102020009BB213B9E38F9BB2EBB1B9F1000FE2D0D1
:10203000E38E9BB2002BDED023689A6812F0020F69
:10204000D9D03A781A73E38E013B9BB2E38601370D
:102050004FF00009CFE7FEF7DDFAA0EB0800A84239
:10206000DDD303232CE7CDF800802B46012202218B
:102070002046FFF769FE08B1032321E742462946BF
:102080002046FFF7ACFE034618B120236365012309
:1020900016E7A268002A7FF413AF03922268D16882
:1020A000039192680392039A0AE7022308E7012347
:1020B00006E7012304E7012302E7022306E790F87D
:1020C0003930DBB2212B2AD18368B3F5805F16D07B
:1020D000036A5A1C02621A7803685A60C38C013B77
:1020E0009BB2C384EBB90268D36823F08003D3604A
:1020F0000268D36843F04003D36000207047036A4E
:102100001B880268C3F30803536003691BB9036AA1
:1021100002330362E2E7036A01330362DEE702206F
:1021200070470020704700002DE9F843044601681D
:102130000A6922F44052C36813430B610168CA68FC
:1021400022F4164222F00C0283680069034360699E
:102150000343E06903431343CB6021684A6922F4D7
:102160004072A36913434B61E369B3F5004F60D03C
:102170002368B84A934200F0148102F580629342CA
:1021800000F00F81FFF7C0FD00EB800000EB800046
:102190006568AD00B0FBF5F5AF4FA7FB05356D09E0
:1021A0002E01FFF7B1FD00EB800000EB80006568B9
:1021B000AD00B0FBF5F9FFF7A7FD00EB800000EBE9
:1021C00080006568AD00B0FBF5F5A7FB05356D092E
:1021D0004FF0640808FB15952D013235A7FB053536
:1021E0006D0905F0F0053544FFF78EFD00EB80002A
:1021F00000EB80006668B600B0FBF6F6FFF784FDE2
:1022000000EB800000EB800063689B00B0FBF3F004
:10221000A7FB0030400908FB10684FEA081808F1D6
:102220003208A7FB0837C7F3431723682F449F6082
:102230000DE12368874A93425BD002F580629342A6
:1022400057D0FFF761FD00EB800000EB8000656870
:102250006D00B0FBF5F5804FA7FB05356D092E012C
:10226000FFF752FD00EB800000EB800065686D0019
:10227000B0FBF5F9FFF748FD00EB800000EB8000B4
:1022800065686D00B0FBF5F5A7FB05356D094FF0EE
:10229000640808FB1595ED003235A7FB05356D097F
:1022A0006D0005F4F8753544FFF72EFD00EB800056
:1022B00000EB800066687600B0FBF6F6FFF724FDC1
:1022C00000EB800000EB800063685B00B0FBF3F381
:1022D000A7FB03235B0908FB13684FEAC80808F152
:1022E0003208A7FB0837C7F3421723682F449F60C3
:1022F000ADE0FFF719FD00EB800000EB80006568A2
:102300006D00B0FBF5F5544FA7FB05356D092E01A7
:10231000FFF70AFD00EB800000EB800065686D00B0
:10232000B0FBF5F9FFF700FD00EB800000EB80004B
:1023300065686D00B0FBF5F5A7FB05356D094FF03D
:10234000640808FB1595ED003235A7FB05356D09CE
:102350006D0005F4F8753544FFF7E6FC00EB8000EE
:1023600000EB800066687600B0FBF6F6FFF7DCFC59
:1023700000EB800000EB800063685B00B0FBF3F3D0
:10238000A7FB03235B0908FB13684FEAC80808F1A1
:102390003208A7FB0837C7F3421723682F449F6012
:1023A00055E0FFF7C1FC00EB800000EB80006568A2
:1023B000AD00B0FBF5F5284FA7FB05356D092E01E3
:1023C000FFF7B2FC00EB800000EB80006568AD0019
:1023D000B0FBF5F9FFF7A8FC00EB800000EB8000F4
:1023E0006568AD00B0FBF5F5A7FB05356D094FF04D
:1023F000640808FB15952D013235A7FB05356D09DD
:1024000005F0F0053544FFF78FFC00EB800000EB92
:1024100080006668B600B0FBF6F6FFF785FC00EBBF
:10242000800000EB800063689B00B0FBF3F0A7FB2B
:102430000030400908FB10684FEA081808F132081C
:10244000A7FB0837C7F3431723682F449F60BDE8F5
:10245000F88300BF001001401F85EB5158B310B541
:10246000044690F839300BB3242384F839302268BD
:10247000D36823F40053D3602046FFF755FE22684B
:10248000136923F4904313612268536923F02A03EC
:1024900053612268D36843F40053D3600020E063A3
:1024A000202384F8393084F83A3010BD80F8383071
:1024B00002F062FFD8E70120704790F83A30DBB2B3
:1024C000202B23D121B32AB390F83830012B23D00D
:1024D000012380F8383081628285C2850023C3637E
:1024E000222280F83A200168CA6842F48072CA60E9
:1024F00001684A6942F001024A6180F83830016897
:10250000CA6842F02002CA6018467047022070472D
:10251000012070470120704702207047704708B5BE
:102520000168CB6823F04003CB60202380F839306A
:10253000FFF7F4FF002008BD10B5054CCE22054979
:10254000204603F015FC012384F8CE3010BD00BFF7
:10255000ACB800201C70002008B590F83A30DBB20F
:10256000222B45D18368B3F5805F0ED0036903BB8E
:1025700003685A68836A591C81621A70C38D013BD3
:102580009BB2C385F3B1002033E0826A036943B98B
:1025900003685B68C3F308031380836A02338362B2
:1025A000ECE703685B68DBB21380836A0133836204
:1025B000E4E703685B68826A511C816203F07F0371
:1025C0001370DBE70268D36823F02003D36002684E
:1025D000D36823F48073D3600268536923F0010346
:1025E0005361202380F83A30FFF7A6FF002000E077
:1025F000022008BD704710B584B00446036819680E
:10260000DA6811F0010F0DD002F4807252B100228D
:1026100000921A6800925A680092009AC26B42F0C7
:102620000102C26319685A6902F0010211F0020F37
:102630000BD052B1002201921A6801925A6801929D
:10264000019AE26B42F00402E26319685A6902F0EF
:10265000010211F0040F0BD052B1002202921A684D
:1026600002925A680292029AE26B42F00202E2631C
:1026700019685A6902F0010211F0080F0BD052B12B
:10268000002203921A6803925A680392039AE26B3B
:1026900042F00802E2631A68DB6803F0200312F0DC
:1026A000200F00D0ABB923681A68DB6803F0800301
:1026B00012F0800F00D083B923681A68DB6803F03A
:1026C000400312F0400F00D05BB9E36B6BB904B06C
:1026D00010BD2046FFF740FFE5E72046FFF7EFFC7F
:1026E000EAE72046FFF71BFFEFE7202384F83930A5
:1026F00084F83A302046FFF77DFFE8E784B010B554
:10270000044603A880E80E00089B012B20D1A36B90
:1027100023F48033A363E36823F4840323F04003AA
:10272000E360E36823F44013E3600F9B012B0AD0BE
:10273000204600F005FD069B012B14D00020BDE8CB
:10274000104004B07047E36843F48013E360EFE7A0
:10275000E36843F04003E360204600F0F1FC4FF4EF
:102760008033A363E7E7A36843F00603A360A3688D
:1027700043F02003A360E1E7836843F00103836033
:1027800000207047836823F00103836000207047B6
:1027900008B5C36823F0C043C360012909D019B943
:1027A000C36843F08043C3603220FDF739FF002047
:1027B00008BDC36843F00053C360F5E784B0F8B5C3
:1027C000044607A880E80E00119FBFB9A36B43F42D
:1027D0000013A36325460023C4F8003E04F50066F9
:1027E000D4F80038C4F800380C9B012B10D1099B99
:1027F0004BB90021204600F0AFF80DE0A36B43F485
:102800000023A363E6E70121204600F0A5F803E0DA
:102810000321204600F0A0F81021204600F076F8B1
:10282000204600F087F80023336173614FF0FF32D8
:10283000B261F36108E04FF09040C2F80009002255
:102840000A61FF228A600133079999420BD905EB8F
:10285000431202F51061D2F800090028EBDB0020DA
:10286000C2F80009EBE7002308E04FF0904CC2F8F3
:1028700000CB00220261FF228260013399420DD910
:1028800005EB431202F53060D2F800CBBCF1000F2B
:10289000EBDB4FF0000CC2F800CBEAE7336923F41E
:1028A000807333610A9B012B1AD00022A2616FF062
:1028B000804262611BB9A36943F01003A361A2695E
:1028C000104B1343A3610D9B1BB1A36943F0080395
:1028D000A361012F0ED00020BDE8F84004B070477E
:1028E000094A3263326B42F4803242F003023263AF
:1028F000326BDAE7A36943F0804343F00403A3613A
:10290000E9E700BF00383C8000018000890141F008
:102910002001016100230133054A934205D8026971
:1029200012F0200FF7D1002070470320704700BF3E
:10293000400D03001023036100230133054A934235
:1029400005D8026912F0100FF7D10020704703205C
:10295000704700BF400D0300D0F800381943C0F89D
:10296000001800207047D0F8083800F5006013F018
:10297000060F10D0836803F00603022B0DD0836886
:1029800003F00603062B0AD0836803F00603042B2A
:1029900007D00020704700207047032070470320B5
:1029A00070470220704730B44B78012B22D0D0F80A
:1029B0001C380D780122AA4043EA0243C0F81C38B3
:1029C0000B7800EB4310D0F8003B13F4004F0ED10E
:1029D000D0F8003B8A68C2F30A02C97842EA814211
:1029E000134343F0805343F40043C0F8003B0020FE
:1029F00030BC7047D0F81C280D78AB409BB2134315
:102A0000C0F81C380C7800EB4410D0F8003913F4EF
:102A1000004FECD1D0F800398A68C2F30A02C978B5
:102A200042EA814242EA8452134343F0805343F422
:102A30000043C0F80039DAE738B54B78012B36D0BF
:102A40000B78044600EB4313D3F8002B22F400422A
:102A5000C3F8002B0B7800EB43134FF00062C3F870
:102A6000002B0B7800EB43134FF08042C3F8002B90
:102A7000002201322B4B9A4252D80B7804EB4313BD
:102A800003F530639B6813F0100FF2D1D0F80438CF
:102A900043F48063C0F80438D0F81C380978012268
:102AA0008A4023EA0243C0F81C38002038BD0B7866
:102AB000044600EB4313D3F8002922F40042C3F884
:102AC00000290B7800EB43134FF00062C3F8002994
:102AD0000B7800EB43134FF08042C3F8002900222B
:102AE0000132104B9A4219D80B7804EB431303F5CB
:102AF00010639B6813F0804FF2D10D4604461021FD
:102B0000FFF704FFD4F81C28297801238B409BB2DF
:102B100022EA0303C4F81C380020C7E70320C5E7F6
:102B20000320C3E7400D030070B582B04B78012B42
:102B30003ED00B7800EB4313D3F8104BE40CE404C5
:102B4000C3F8104B0B7800EB4313D3F8104B24F071
:102B5000FF5424F4C014C3F8104B4B69002B40F011
:102B6000D4800B7800EB4313D3F8104B8D68C5F37A
:102B700012052C43C3F8104B0B7800EB4313D3F82A
:102B8000104B44F40024C3F8104B012A00F0DC8001
:102B9000CB78012B00F0DF800B7800EB4310D0F8EE
:102BA000003B43F00443C0F8003B002002B070BD7E
:102BB0004B696BBB0B7800EB4313D3F8104924F03F
:102BC000FF5424F4C014C3F810490B7800EB4313EE
:102BD000D3F8104944F40024C3F810490B7800EBF3
:102BE0004313D3F81049E40CE404C3F81049012A54
:102BF00054D0CB78012B57D04B69002B54D0D0F850
:102C000034380E780124B4402343C0F834384BE004
:102C10000B7800EB4313D3F81049E40CE404C3F839
:102C200010490B7800EB4313D3F8104924F0FF54FC
:102C300024F4C014C3F810490C7800EB4414D4F801
:102C400010594B698E683344013BB3FBF6F34E4E8B
:102C500006EAC3432B43C4F810390B7800EB431347
:102C6000D3F810494D69C5F312052C43C3F8104938
:102C7000CB78012BBBD10B7800EB4313D3F8104971
:102C800024F0C044C3F810490B7800EB4313D3F889
:102C9000104944F00054C3F81049A8E70B7800EB42
:102CA00043130C69C3F81449CB78012B14D00B786B
:102CB00000EB4313D3F8004944F00444C3F800493F
:102CC000CB78012B7FF471AF14468B8A0A78C968E0
:102CD000009400F00BF968E7D0F8083813F4807F0F
:102CE00009D10B7800EB4313D3F8004944F00054AA
:102CF000C3F80049DBE70B7800EB4313D3F8004936
:102D000044F08054C3F80049D1E78C682344013B68
:102D1000B3FBF4F30C7800EB4414D4F8105B1A4EB8
:102D200006EAC3463543C4F8105B0C7800EB441444
:102D3000D4F8106B8D689BB205FB03F5C5F3120543
:102D40003543C4F8105B20E7CA680B7800EB4313E7
:102D5000C3F8142B1CE7D0F8083813F4807F09D18E
:102D60000B7800EB4313D3F8002B42F00052C3F86A
:102D7000002B11E70B7800EB4313D3F8002B42F044
:102D80008052C3F8002B07E70000F81F30B44B78DF
:102D9000012B39D00B7800EB4313D3F8104BE40C24
:102DA000E404C3F8104B0B7800EB4313D3F8104B3B
:102DB00024F0FF5424F4C014C3F8104B4B690BB13A
:102DC0008B684B610B7800EB4313D3F8104B44F442
:102DD0000024C3F8104B0B7800EB4313D3F8104BCF
:102DE0008D68C5F312052C43C3F8104B012A76D029
:102DF0000B7800EB4310D0F8003B43F00443C0F8DD
:102E0000003B002030BC70474B699BBB0B7800EB4C
:102E10004313D3F8104924F0FF5424F4C014C3F82A
:102E200010490B7800EB4313D3F8104944F4002405
:102E3000C3F810490B7800EB4313D3F81049E40CA6
:102E4000E404C3F810490B7800EB4313D3F80049AE
:102E500044F00444C3F80049012A39D04B69002BDF
:102E6000CFD0D0F83438097801228A401343C0F813
:102E70003438C6E70B7800EB4313D3F81049E40C61
:102E8000E404C3F810490B7800EB4313D3F810495E
:102E900024F0FF5424F4C014C3F810494C698B6823
:102EA0009C4200D94B610B7800EB4313D3F81049D7
:102EB00044F40024C3F810490B7800EB4313D3F813
:102EC00010494D69C5F312052C43C3F81049BAE700
:102ED0000B7800EB43100B69C0F8143991E7CA680E
:102EE0000B7800EB4313C3F8142B81E770B49DF803
:102EF0000C4064B903339D0807E000EB023303F58F
:102F0000805351F8046B1E600134AC42F5D30020AD
:102F100070BC704703329208002393420CD210B465
:102F200000F58054246841F8044B01339342F7D3F1
:102F300008465DF8044B7047084670474B78012BF4
:102F400017D00B7800EB4313D3F8002B002A05DBD6
:102F5000D3F8002B22F08042C3F8002B0B7800EB53
:102F60004310D0F8003B43F40013C0F8003B0020AE
:102F700070470B7800EB4313D3F80029002A05DBD8
:102F8000D3F8002922F08042C3F800290B7800EB27
:102F90004310D0F8003943F40013C0F80039E6E7D5
:102FA0004B78012B0FD00B7800EB4313D3F8002B99
:102FB00022F40012C3F8002BCB78023BDBB2012BCA
:102FC00019D9002070470B7800EB4313D3F8002980
:102FD00022F40012C3F80029CB78023BDBB2012BAC
:102FE000EFD80B7800EB4310D0F8003943F0805352
:102FF000C0F80039E5E70B7800EB4310D0F8003B50
:1030000043F08053C0F8003BDBE7D0F8003823F4EE
:10301000FE63C0F80038D0F80038090101F4FE6101
:103020000B43C0F800380020704708B5D0F80438CA
:1030300023F00203C0F804380320FDF7F1FA002062
:1030400008BD08B5D0F8043843F00203C0F80438CE
:103050000320FDF7E5FA002008BD426980691040B1
:103060007047D0F8183800F50060C0691840000CAF
:103070007047D0F8183800F50060C069184080B279
:10308000704700EB4111D1F8082B00F50060406952
:103090001040704710B4D0F81048D0F83438CB4006
:1030A000DB01DBB2234300EB411000F510608068C8
:1030B00018405DF8044B7047406900F0010070470C
:1030C000D0F8003923F4FF6323F00703C0F8003978
:1030D00000F500639A6802F00602042A05D05A68D7
:1030E00042F480725A6000207047D0F8002942F004
:1030F0000302C0F80029F2E710B40024C0F8104B16
:10310000D0F8104B44F40024C0F8104BD0F8104B0A
:1031100044F01804C0F8104BD0F8104B44F0C044F1
:10312000C0F8104B012903D000205DF8044B704714
:10313000C0F8142B4FF08023C0F8003BF4E70000E8
:10314000002301330C4A934211D80269002AF8DAAD
:10315000036943F00103036100230133064A9342EC
:1031600007D8026912F0010FF7D100207047032041
:1031700070470320704700BF400D0300D0F818329D
:103180001BB10020C3F8140270470220704710B52D
:10319000D0F81842D0F81C325BB194F80002FF2836
:1031A00007D09B6894F8012221469847FF2384F8B2
:1031B0000032002010BD0000432303800048704708
:1031C0000800002043230380004870474C00002083
:1031D0004323038000487047900000200A230380A7
:1031E00000487047D400002038B50446D0F8185283
:1031F00002F0CEFBC5F80C02D4F818324BB1D4F86B
:103200001C32DB6805F50371D5F8040298470020ED
:1032100038BD0220FCE7000070B505460C46D0F82A
:1032200018620B7813F0600225D0202A07D1CA88D3
:103230003AB9D0F81C329B680022487898470020A1
:1032400070BD13F0800F0BD0D0F81C329B68314654
:1032500060789847E2883146284600F081FCEEE726
:103260004B7886F80032CB8886F80132CA8831461E
:1032700000F08BFCE3E74B780A2BE0D101220249F6
:1032800000F06EFCDBE700BFE401002010B504464F
:10329000812102F012FB0121204602F00EFB822167
:1032A000204602F00AFBD4F8183253B1D4F81C328D
:1032B0005B689847D4F8180202F066FC0023C4F853
:1032C0001832002010BD38B50446037C73BB4FF4A0
:1032D00000730222812102F0DFFA4FF40073022210
:1032E0000121204602F0D8FA082303228221204639
:1032F00002F0D2FA4FF4077002F03EFC0546C4F823
:10330000180248B3D4F81C321B6898470023C5F84C
:103310001432C5F81832237CA3B14023D5F8042217
:103320000121204602F026FB002038BD4023022266
:10333000812102F0B1FA402302220121204602F04D
:10334000ABFAD1E74FF40073D5F8042201212046EF
:1033500002F010FB0020E8E70120E6E719B1C0F811
:103360001C120020704702207047D0F81832C3F8B2
:103370000812C3F8102200207047D0F81832C3F8A2
:10338000041200207047D0F818228AB108B5D2F88C
:1033900014320BB1012008BD0123C2F81432B2F877
:1033A0001032D2F80822812102F0D6FA0020F2E78A
:1033B00002207047D0F818229AB108B5037C3BB1BF
:1033C0004023D2F80422012102F0D4FA002008BDE3
:1033D0004FF40073D2F80422012102F0CBFA00204E
:1033E000F5E70220704798B108B50346D0F81402FB
:1033F00010B10020C3F8140209B1C3F81012184626
:10340000012380F8FC31027002F0FEF9002008BDB3
:103410000220704719B1C0F8141200207047022032
:10342000704708B502F02AFA002008BD08B5D0F8A8
:10343000143233B11B68984708B9002008BD022038
:10344000FCE70220FAE708B5D0F814325B68984729
:10345000002008BD38B5044600F50275284600F086
:103460001DF90123C4F8F431B4F80E32C4F8F83170
:1034700094F8081201F01F03012B0ED03BB1022B70
:1034800010D001F08001204602F025FA03E0294621
:10349000204600F07CFA002038BD2946204600F086
:1034A0009AFAF8E72946204600F0B1FAF3E710B59A
:1034B000044621BB1346D0F8F421032A01D0002092
:1034C00010BDD0F80C11D0F8102191420CD8D0F8D2
:1034D00014321B6923B190F8FC21032A00D19847CC
:1034E000204600F069FBEAE7891AC0F80C118A420D
:1034F00028BF0A4692B2194600F056FBDFE70A469B
:10350000D0F814329B69002BD9D090F8FC11032914
:10351000D5D111469847D2E710B50446002946D1C7
:103520001346D0F8F421022A05D094F80032012B7A
:1035300039D0002010BDC169026A914219D8816951
:10354000B1FBF2F302FB13132BB98A4203D8D0F874
:10355000F83199421AD3D4F81432DB682BB194F8BD
:10356000FC21032A01D120469847204600F02FFB7A
:10357000DBE78A1AC26192B2194600F0FEFA002314
:103580001A461946204602F0F5F9CEE70022114608
:1035900000F0F3FA0021C4F8F8110B460A46204661
:1035A00002F0E8F9C1E7002384F80032C1E70A46D7
:1035B000D0F814325B69002BBBD090F8FC110329C2
:1035C000B7D111469847B4E738B5044640230022E6
:1035D000114602F061F94025C4F810512B46002233
:1035E0008021204602F058F92562012384F8FC313D
:1035F000D4F818322BB1D4F814325B682179204604
:103600009847002038BD01740020704790F8FC31C5
:1036100080F8FD31042380F8FC310020704790F8D9
:10362000FD3180F8FC310020704708B590F8FC317E
:10363000032B01D0002008BDD0F81432DB69002B29
:10364000F8D09847F6E70020704700207047002028
:10365000704708B5012280F8FC21D0F81422526886
:1036600001799047002008BD002302E00133DBB25E
:1036700001300278002AF9D1184670474B88012B97
:103680000BD110B50446C0F80432D0F814329B6850
:103690009847204600F090FA10BD70470B780370F1
:1036A0004B7843708B78CA7803EB022343800B7905
:1036B0004A7903EB022383808B79CA7903EB0223D7
:1036C000C380704710B50446802102F004F9002140
:1036D000204602F000F910BD30B583B004460D4617
:1036E0004A88130A013B062B00F28180DFE803F0D1
:1036F0000413277F7F637000D0F810321B680DF130
:103700000601007C9847BDF8062012B1EB88002B1B
:1037100071D103B030BD037C43B9D0F814329B6A39
:103720000DF10600984702234370ECE7D0F81432FD
:10373000DB6A0DF10600984702234370E3E7D2B23B
:10374000052A34D8DFE802F0030B131B232BD0F833
:1037500010325B680DF10601007C9847D3E7D0F882
:1037600010329B680DF10601007C9847CBE7D0F83A
:103770001032DB680DF10601007C9847C3E7D0F8F2
:1037800010321B690DF10601007C9847BBE7D0F8A9
:1037900010325B690DF10601007C9847B3E7D0F861
:1037A00010329B690DF10601007C9847ABE7294672
:1037B000FFF788FFADE7037C33B9D0F814325B6BB9
:1037C0000DF1060098479EE72946FFF77BFFA0E72B
:1037D000037C43B9D0F814321B6B0DF106009847F7
:1037E000072343708FE72946FFF76CFF91E72946CF
:1037F000FFF768FF8DE79A4228BF1A46ADF806200A
:103800000146204600F0ACF983E738B504468B88C2
:10381000E3B9CB88D3B98D7805F07F0590F8FC31FA
:10382000032B0CD080F8FE51294602F087F8204681
:1038300000F0C2F935B1022384F8FC3109E0FFF74A
:1038400041FF06E0012384F8FC3102E02046FFF747
:1038500039FF38BD38B504460D468978254B1970B7
:10386000012909D890F8FC31022B09D0032B1CD078
:103870002946FFF727FF02E02946FFF723FF38BD5F
:1038800081B14160032380F8FC31FFF7CFFD0228AE
:1038900003D0204600F090F9F1E729462046FFF7D3
:1038A00011FFECE700F088F9E9E789B14368994234
:1038B0001DD0D9B2FFF7C7FD0E4B197861602046C5
:1038C000FFF7B4FD02280DD0204600F075F9D6E7C9
:1038D000022380F8FC314160FFF7B5FD204600F07F
:1038E0006BF9CCE729462046FFF7ECFEC7E700F06E
:1038F00063F9C4E7E501002008B5CB88012B08D1A6
:1039000090F8FC31022B07D0032B0DD0FFF7DAFE25
:1039100001E0FFF7D7FE08BD0146002341F8083F4C
:10392000012200F01DF9F6E70122011D00F018F94F
:10393000F1E708B590F8FC31023B012B0CD80123CC
:10394000C360D0F804320BB10323C360022200F13C
:103950000C0100F005F908BDFFF7B4FEFBE710B558
:10396000044690F8FC31023B012B0DD84B88012B0B
:1039700009D10023C0F80432D0F814329B6898476C
:10398000204600F019F910BDFFF79CFEFBE708B5D3
:103990004B78092B1CD8DFE803F012181B151B0904
:1039A000051B0F0CFFF798FE002008BDFFF72DFF49
:1039B000FAE7FFF74FFFF7E7FFF79EFFF4E7FFF7A0
:1039C000B8FFF1E7FFF75AFEEEE7FFF7C8FFEBE7B6
:1039D000FFF778FEE8E738B504460D4690F8FC316D
:1039E000032B11D10B79012B0BD8D0F814329B6823
:1039F0009847EB880BB1002038BD204600F0DCF87A
:103A0000F9E7FFF75FFEF6E7FFF75CFEF3E738B58F
:103A100005460C468A880B7803F06003202B05D1FD
:103A2000D0F814329B689847002038BDD1B2637833
:103A3000012B25D0002B47D0032BF5D190F8FC317A
:103A4000022B05D0032B0AD02146FFF73BFEEBE704
:103A50000029E9D08029E7D001F03DFFE4E7638841
:103A600023B919B1802901D001F035FFD5F81432FE
:103A70009B68214628469847284600F09DF8D3E7E2
:103A800090F8FC31022B05D0032B0AD02146FFF71A
:103A900019FEC9E70029C7D08029C5D001F01BFF56
:103AA000C2E76388002BBFD111F07F0F03D12846F6
:103AB00000F082F8B8E701F01CFFD5F814329B68DB
:103AC000214628469847F2E790F8FC31022B05D0B2
:103AD000032B09D02146FFF7F5FDA5E711F07F0F75
:103AE000A2D001F0F8FE9FE712F0800F11D101F093
:103AF0007F04103400EB04140434284601F007FF5F
:103B000070B10123236002222146284600F028F8E4
:103B10008AE701F07F04013400EB04140434ECE77D
:103B200000232360EFE7D0B170B50D46164604467A
:103B3000FFF79AFD0130400080B2308028700323E7
:103B40006B70022307E001345A1CD2B2E9540233ED
:103B5000DBB20021A95421780029F4D170BD70474F
:103B600010B513460222C0F8F4218361C3610A46EE
:103B7000002101F0F1FE002010BD08B513460A46F1
:103B8000002101F0E9FE002008BD10B51346032214
:103B9000C0F8F421C0F80831C0F80C310A46002101
:103BA00001F0E8FE002010BD08B513460A460021CA
:103BB00001F0E0FE002008BD08B50423C0F8F43190
:103BC00000231A46194601F0C7FE002008BD08B5BB
:103BD0000523C0F8F43100231A46194601F0CAFE45
:103BE000002008BD10B44FF6FF7209E0037853407F
:103BF000DBB2074931F8133083EA12222146013043
:103C00004C1E0029F2D1D04380B25DF8044B7047BE
:103C10001C6400082DE9F84305460E4691461F46F0
:103C2000002405E0335D5B002B700134A4B2013544
:103C30000621304602F0B1F88442F3D304E0402379
:103C40002B700134A4B20135052CF8D94FEA49098B
:103C500009F01E0905F1010849F060032B700024EA
:103C600007E0335D5B0088F800300134A4B208F14E
:103C700001080621384602F090F88442F1D306E0AC
:103C8000402388F800300134A4B208F10108052C63
:103C9000F6D949F0610988F800900E20BDE8F88354
:103CA000B2F5807F01D9002070472DE9F8434FF02D
:103CB0007E34046044608460C460099C0E2C04D08F
:103CC0001C2C02D00020BDE8F8831F46164688460B
:103CD000044600F11009099A0899484601F05CFF72
:103CE000099B03F110050B9B013B012B01D900201F
:103CF000E9E70B9A0AA9601901F04EFF0B9B1D44DE
:103D00001FB1032F01D02F4602E06F1CF023635533
:103D100032464146E01901F03FFF3E44A6F1100152
:103D20004846FFF75FFF731CA055B11C000AE05422
:103D300062184FF07E33635053609360D36006F196
:103D40001200C0E7F0B506468C4600273C4608E066
:103D500006EB040E1B4D03CD3051CEF80410083491
:103D600001370F2FF4D90027384601E001372C46E0
:103D700003F100512039B7EBC10F14D202EBD70188
:103D8000097C07F00705294101F0010141EA4000E3
:103D9000C0B2651C315500F01F011F29E6D100207B
:103DA0007055A51CE2E7002206E03519054B03CB50
:103DB00030516960083401320F2AF6D9CCF800403E
:103DC0000120F0BD1C6600082DE9F043A7B00446B1
:103DD000884691461F460DAD414E0FCE0FC50FCE02
:103DE0000FC533682B70432200210DF1550001F0FF
:103DF000DEFE0DA801F060F90023069307930893F7
:103E000009930A930B930C9307B10E27354906AD1E
:103E10000023009301F51B733A4601F51D712846F6
:103E2000FFF7F8FE0123039303230293019000950B
:103E30004A4641462C48FFF733FF0346002848D046
:103E40002948024605A900F59E70FFF77BFF01286F
:103E500042D14FF49E720021234801F0A8FE0023B6
:103E60000CE0DD08204AD11891F83C1103F007005E
:103E700001FA00F0515D014351550133059A9A4210
:103E8000EFD812F0070301D0C3F108031A440592DA
:103E9000164D102300222121284601F01AF9284648
:103EA00001F021F9059BDB080F4A2146284601F065
:103EB00024F9002306E0E15C0A4A0A4492F87822D9
:103EC000E25401330598C0089842F4D827B0BDE801
:103ED000F0834FF0FF30F9E74FF0FF30F6E700BF17
:103EE000246600081C640008E801002038B800209F
:103EF00070B584B00E4600230293B0F53C5F27D224
:103F000040F080008DF80C0000238DF80D30022465
:103F1000144D00224FF400412846FCF7B8FE41F250
:103F200088330093234602AA03A90F48FDF7ABFF8D
:103F300001224FF400412846FCF7A9FE013C04ABE6
:103F40001C4414F8083C33709DF8080004B070BDA0
:103F5000AF238DF80C308DF80D0000238DF80E3056
:103F60000324D5E700000240BCBC002010B586B099
:103F700000230493B0F53C5F31D32F238DF8143028
:103F80008DF815008DF81610032400224FF400411F
:103F90001648FCF77CFE164B1B68164AA2FB03234F
:103FA0009B0C9B00029300230393039B0133039319
:103FB000039A029B9A42F8D341F288330093234636
:103FC00004AA05A90C48FDF75EFF01224FF4004149
:103FD0000648FCF75CFE9DF8100006B010BD8DF899
:103FE00014008DF815100224CFE700BF0000024036
:103FF0001C01002083DE1B43BCBC002010B584B034
:104000008DF80F000D4C00224FF400412046FCF7C4
:104010003EFE41F28833009301230DF10E020DF1B3
:104020000F010748FDF72FFF01224FF40041204602
:10403000FCF72DFE9DF80E0004B010BD00000240FC
:10404000BCBC002030B585B00D461446194B7F210D
:1040500003F8011B0146184601F09EFD00224FF4B3
:1040600000411548FCF713FE144B1B68144AA2FBD1
:1040700003239B0C9B00029300230393039B0133B8
:104080000393039A029B9A42F8D3631C4FF47A621B
:1040900000929BB22A4607490A48FDF7F4FE0446FF
:1040A00001224FF400410448FCF7F1FD204605B021
:1040B00030BD00BF040F0020000002401C010020A2
:1040C00083DE1B43BCBC0020F8B505460F4600F05C
:1040D000F7F83B20FFF792FF174B1B78BBB100248A
:1040E00003E07068FCF79CFA0134BC420FD205EB88
:1040F000C40615F83430002BF3D03520FFF77EFFCF
:104100007068FCF78DFA3620FFF778FFECE7362071
:10411000FFF774FF0A20FCF783FA3020FFF76EFFE9
:1041200000F0BAF800F0E2F83620FFF767FF3B2016
:10413000FFF764FF0020F8BD180100202DE9F043CF
:1041400089B080460E4691461D4600212820FFF783
:104150000DFFFF212E20FFF709FF7F224946404631
:10416000FFF770FFFCF756FA04463520FFF746FFCD
:1041700013E0464B1B68464AA2FB03239B0C4FF4FB
:10418000487202FB03F3009300230193019B013368
:104190000193019A009B9A42F8D304A942F6D67083
:1041A000FFF7A6FE9DF81070002FE2D107A942F696
:1041B0007370FFF79DFE06A942F6D370FFF798FED5
:1041C00005A942F6D570FFF793FE04A942F6D67012
:1041D000FFF78EFE7F22494608EB0200FFF732FF11
:1041E00007A942F67370FFF783FE06A942F6D37063
:1041F000FFF77EFE05A942F6D570FFF779FE04A908
:1042000042F6D670FFF774FEFCF704FA001BA842D2
:1042100018D21E4B1B681E4AA2FB03239B0C4FF4B3
:10422000487202FB03F3029300230393039B0133C1
:104230000393039A029B9A42F8D3164B1B78002BE8
:10424000E2D000E0012707A942F67370FFF750FEA5
:1042500006A942F6D370FFF74BFE05A942F6D570CA
:10426000FFF746FE04A942F6D670FFF741FE36205E
:10427000FFF7C4FE3B20FFF7C1FE1FB9304609B06F
:10428000BDE8F0836FF00300F9E700BF1C010020D8
:1042900083DE1B43CC1D002010B53020FFF7AEFE9F
:1042A000002408E0054B03EBC402117933F8340015
:1042B000FFF75CFE01343F2CF4D910BD9467000871
:1042C00010B53020FFF79AFE002409E0064B03EBFF
:1042D000C40393F80412B3F80002FFF747FE013459
:1042E0002E2CF3D910BD00BF9467000800B585B02F
:1042F000002142F62570FFF739FE0DF10F0142F65D
:104300001570FFF7F5FD9DF80F100231C9B242F6A6
:104310001570FFF72BFE3320FFF770FE0DF107013C
:1043200042F67370FFF7E4FD9DF80730412BF5D19D
:1043300003A942F62570FFF7DBFD0DF10D0142F6F2
:104340002370FFF7D5FD0DF10E0142F61870FFF74F
:10435000CFFD002142F62570FFF708FE9DF80F10F3
:1043600042F61570FFF702FE3320FFF747FE0DF10E
:10437000070142F67370FFF7BBFD9DF80730412B34
:10438000F5D102A942F62570FFF7B2FD0DF1090142
:1043900042F62370FFF7ACFD0DF10A0142F61870EA
:1043A000FFF7A6FD9DF80C309DF808108B4212D83F
:1043B00042F62570FFF7DAFD9DF8091042F62370EA
:1043C000FFF7D4FD9DF80A1042F61870FFF7CEFDF6
:1043D00005B05DF804FB194642F62570FFF7C6FDEF
:1043E0009DF80D1042F62370FFF7C0FD9DF80E10EA
:1043F00042F61870FFF7BAFDEAE7012070470000A7
:1044000008B5FCF707F90346074A107948B1106868
:10441000984203D81B1A054A934203D90020024B45
:10442000187108BD0120FCE798B800208038010011
:1044300010B5034C2071FCF7EDF8206010BD00BFF3
:1044400098B800202DE9F04182B0B1F5807F22D8E4
:1044500006460C4617469846FFF7CFFF20B3144D8B
:104460004FF49E720021284601F0A1FBCDF8008098
:104470003B462A462146304601F082F8044602B205
:104480000128D4BF002101210A4800F0D3FE2046B4
:1044900002B0BDE8F0816FF001020021054800F094
:1044A000C9FE6FF00104F2E76FF00704EFE700BF09
:1044B000880F00204CB80020B1F5807F0AD838B5AD
:1044C0000C460546FFF799FF38B12146284601F012
:1044D00079F838BD6FF0010070476FF00700F8E71A
:1044E00010B5FFF78DFF08B1002010BD0D4CFC2268
:1044F000002104F5A07001F05AFB552384F83C31EB
:10450000502384F83D31532384F83E31412384F80D
:104510003F31542384F84031052104F59E70FFF7A4
:10452000CBFFE2E7880F0020002800F0828038B53A
:104530000446434B1B78002B7ED1037843BB437862
:10454000002B40D18378002B58D1FCF763F83D4B0A
:10455000D3F83C32C31AB3F5FA7F02D9394BC3F80A
:104560003C02384BD3F84032C31AB3F57A7F65D991
:10457000344BC3F84002344B1B88092B03D8324B11
:104580009B88042B50D93148FCF7BBFB002054E03A
:104590002F4D01224FF480512846FCF778FB002272
:1045A0004FF400512846FCF772FB00224FF4804183
:1045B0002846FCF76CFB274800F07EFD00232370A3
:1045C000FFF78EFF39E0224D00224FF4805128463C
:1045D000FCF75DFB01224FF400512846FCF757FB26
:1045E00000224FF480412846FCF751FB1A4800F0A6
:1045F00063FD0020607001F033FA1EE0144D0022CC
:104600004FF480512846FCF742FB00224FF4005142
:104610002846FCF73CFB01224FF480412846FCF77A
:1046200036FB0020A07008E00848FCF76AFB002079
:1046300003E06FF002007047002038BD0020FCE767
:10464000CE1D0020880F00204CB80020A0B800200C
:10465000000C0240A06B0008AC6B000810B582B0E3
:104660000A248DF806400DF1070142F68F70FFF71E
:104670003FFC8DF80600FFF70FFE2046FBF7D0FF4A
:104680000DF1070142F68F70FFF732FC8DF806003E
:104690000DF1070142F68F70FFF72AFC00F04EF88B
:1046A000FBF7B8FF044BC3F84002C3F83C020020FC
:1046B000FFF7BEFE02B010BD880F0020F0B585B038
:1046C00005468C4696460024264619E0012005F84A
:1046D000340005EBC400174F57F821104160013436
:1046E00001329DF80E10914209D904A9114411F824
:1046F0000C1C0129EAD9002005F83400E9E701364D
:104700009E420FD21EF8061001EB410188000A4AB2
:10471000024407CA04AF07E907009DF80F2032B131
:104720000022DEE7CCF80040002005B0F0BD6FF0BD
:104730003C00FAE70C6B0008CC11002038B5FE4CA9
:104740004FF440620021204601F031FA012284F842
:104750001723042384F80D3384F80E23022184F8F0
:104760000F1384F8163384F8232384F8182384F86D
:10477000193384F81B3384F81D3384F81F13082081
:1047800084F8220384F82F2384F8242384F8253323
:1047900084F8273384F8282384F8293384F82B13EA
:1047A00084F82E0384F83B2384F8302384F83133D3
:1047B00084F8333384F83513062584F83A5384F8A3
:1047C000472384F83D1384F8461384F8532384F870
:1047D000493384F84B3384F84C2384F84D3384F800
:1047E0004F1384F8520384F85F2384F8542384F829
:1047F000553384F8562384F8573384F8591384F8D2
:104800005E5384F86B2384F8613384F8633384F84F
:10481000653384F8671384F86A0384F8772384F88F
:104820006D3384F86F1384F8763384F8832384F827
:10483000793384F87A2384F87B3384F87C2384F8F2
:104840007D3384F87E2384F87F1384F8820384F810
:104850008F2384F8842384F8853384F8873384F89D
:10486000882384F8891384F88E5384F89B2384F872
:10487000913384F8922384F8933384F8953384F841
:10488000971384F89A0384F8A72384F89C2384F868
:104890009D3384F89E2384F89F1384F8A63384F80C
:1048A000B32384F8A82384F8A93384F8AB1384F8DD
:1048B000B23384F8BF2384F8B42384F8B53384F882
:1048C000B62384F8B73384F8B82384F8B91384F88E
:1048D000BE5384F8CB2384F8C13384F8C22384F810
:1048E000C33384F8C42384F8C53384F8C71384F829
:1048F000CA0384F8D72384F8CC2384F8CD3384F812
:10490000CE2384F8CF3384F8D13384F8D22384F8CB
:10491000D31384F8D60384F8E32384F8D93384F8D6
:10492000DA2384F8DB3384F8DD1384F8E25384F867
:10493000EF2384F8E53384F8E73384F8E91384F847
:10494000EE5384F8FB2384F8F02384F8F11384F801
:10495000FA1384F8072484F8FD3384F8FF3384F8CD
:10496000002484F8011484F8065484F8132484F88D
:10497000093484F80B3484F80D3484F80E2484F858
:104980000F1484F8120484F81F2484F8153484F872
:10499000162484F8173484F8182484F8191484F839
:1049A0001E5484F82B2484F8202484F8213484F8BD
:1049B000233484F8253484F8262484F8271484F8D2
:1049C0002A0484F8372484F82C2484F82D3484F8BD
:1049D0002F3484F8302484F8313484F8322484F875
:1049E000331484F8360484F8432484F8382484F893
:1049F000393484F83A2484F83B3484F83D3484F81C
:104A00003F1484F8420484F8572284F84D3284F825
:104A10004E2284F84F3284F8502284F8513284F8C0
:104A2000522284F8533284F8542284F855120A2012
:104A300084F8560284F8632284F8593284F85B3291
:104A400084F85C2284F85D3284F85E2284F85F3258
:104A500084F8602284F8611284F8620284F86F227C
:104A600084F8653284F8673284F8693284F86A22FF
:104A700084F86B3284F86C2284F86D1284F86E022C
:104A800084F87B2284F8713284F8733284F87532AA
:104A900084F8773284F8782284F8791284F87A02DC
:104AA00084F8872284F87D3284F87F3284F881325A
:104AB00084F8833284F8851284F8860284F893227D
:104AC00084F8882284F8893284F88B3284F88D3215
:104AD00084F88F3284F8911284F8920284F89F222D
:104AE00084F8942284F8953284F8962284F89732D8
:104AF00084F8993284F89B3284F89D1284F89E02DF
:104B000084F8AB2284F8A02284F8A13284F8A2228F
:104B100084F8A33284F8A42284F8A53284F8A7325A
:104B200084F8A91284F8AA0284F8B72284F8AC2287
:104B300084F8AD3202E000BFCC11002084F8AE2230
:104B400084F8AF32234684F8B022042184F8B112ED
:104B500084F8B22284F8B312022483F8B54283F8B1
:104B6000B60283F84B2283F8402283F8411283F87F
:104B7000422283F8431283F8442283F8451283F8D3
:104B8000462283F8471283F8482283F8494283F883
:104B90004A0283F88B21032183F8801183F88A214C
:104BA00038BD00BF50B110B41F2B0AD8016042605D
:104BB000C260836000205DF8044B70474FF0FF3007
:104BC00070474FF0FF30F6E710B4C4680268224027
:104BD000530803F05533D21A02F03333920802F02F
:104BE0003332134403EB131303F00F3303EB0323AC
:104BF00003EB034381EA136303F0010381688B40F5
:104C000043EA5403C36004F001005DF8044B7047AD
:104C100018B14268C260002070474FF0FF30704703
:104C2000F8B50446E023036002274760012585604C
:104C30000323C360052303610B4E01463046FBF797
:104C40003BFF4FF400432360656021463046FBF78D
:104C500033FF27606560A5600023E360214630468E
:104C6000FBF72AFFF8BD00BF0000024030B58BB053
:104C700000240094334B1A6B42F020021A631A6B23
:104C800002F020020092009A01941A6B42F0800216
:104C90001A631A6B02F080020192019A02941A6B55
:104CA00042F001021A631A6B02F001020292029AA8
:104CB00003941A6B42F004021A631A6B02F00402A6
:104CC0000392039A04941A6B42F008021A631B6B56
:104CD00003F008030493049B1B4D22460121284640
:104CE000FBF7D5FF0123059306930794089405A9C4
:104CF0002846FBF7E1FE4FF486730593134B0693AA
:104D0000079405A91248FBF7D7FE05A8FFF788FF0F
:104D1000224621460820FBF7A9FC0820FBF7DAFC15
:104D2000224621460920FBF7A1FC0920FBF7D2FC13
:104D3000224621461720FBF799FC1720FBF7CAFCF7
:104D40000BB030BD003802400014024000002110BA
:104D50000000024010B582B000240094124B1A6B80
:104D600042F400121A631A6B02F400120092009AC5
:104D700001941A6B42F480021A631B6B03F48003E4
:104D80000193019B224621463B20FBF76FFC3B2011
:104D9000FBF7A0FC224621462F20FBF767FC2F20C3
:104DA000FBF798FC02B010BD0038024008B54FF484
:104DB000805202490248FDF780FB08BD1C700020AC
:104DC0007CBA002008B5082810D009D9B0F5007FBA
:104DD00010D0B0F5805F0CD10D4B01221A7108E0A4
:104DE000042806D10A4B01225A7002E0084B012226
:104DF0001A7008BD4FF400710648FBF741FF18B167
:104E0000034B01229A70F4E7014B0122DA70F0E7BC
:104E1000CC1D00200010024008B500F02BFC08BD9E
:104E2000FEE7000008B50F480F4B03604FF4827394
:104E3000436000238360C360036143614FF40072E9
:104E400082611822C2610362436283620A23C362E1
:104E5000FCF7D9FF00B908BD4FF4E7710348FFF72D
:104E6000DFFF00BFBCBC002000300140B86B000871
:104E700008B50848084B03600623436040F6FF73FB
:104E80008360FBF719FF00B908BD4FF4DB710348DD
:104E9000FFF7C6FFA0B8002000300040B86B000844
:104EA00008B50B480B4B03604FF4165343600023C7
:104EB0008360C36003610C2242618361C361FDF7BB
:104EC000CDFA00B908BD40F2F1110348FFF7A8FF81
:104ED0007CBA002000500040B86B000800B595B0C7
:104EE000002101912C4B1A6C42F080521A641B6C09
:104EF00003F080530193019B0291284B1A6842F4FE
:104F000080421A601B6803F480430293029B0923CA
:104F100008934FF48033099301230D9302230E93DA
:104F20004FF480020F9204221092A8221192129341
:104F30000723139308A8FCF7FDFB10BB0F23039373
:104F400002210491802305934FF48053069300239C
:104F5000079303A8FCF726FEC0B9FCF7CFFE104B61
:104F6000A3FB00308009FBF7C1FB0420FBF7D4FB57
:104F7000002211464FF0FF30FBF778FB15B05DF8CB
:104F800004FB4FF4C8710748FFF74AFF4FF4CF7195
:104F90000448FFF745FF00BF0038024000700040A2
:104FA000D34D6210B86B00082DE9F0439BB0FFF7BA
:104FB000FDFE3C4B01AC0FCB07C424F8023B1B0C9D
:104FC0002370552200210DF1130000F0F0FDFBF7D6
:104FD000FBFAFFF783FFFFF749FEFFF7BBFEFFF782
:104FE00021FF00F013FBFFF743FFFFF759FF0122FA
:104FF00002212D48FBF74BFEFFF730FBFBF70AFBC6
:1050000081460026ADF800608DF802600746B04684
:105010000AE00746A5EB090241F288339A4221D8FB
:105020006846FFF781FA013601AC2B4632461F492C
:10503000204600F07DFE2046FBF74AFA22181C4B62
:1050400019889B7821529370204600F035F8FBF7C1
:10505000E1FA05468742DCD8C21B164B9A42D9D9E1
:105060000746D7E70023ADF800308DF8023018F07E
:10507000010F08D101238DF8003008F1010808F074
:105080000708A946CCE7482323FA08F313F0010FD9
:1050900003D001238DF80130EFE701238DF80130B3
:1050A000EBE700BF246B000800000240C86B00085B
:1050B000E06B0008A086010010B504460A20FBF74B
:1050C000AFFA2046FBF704FA81B2204600F0D2FA8C
:1050D00010BD28B110B500240474FFF763FD10BDA6
:1050E0004FF0FF30704728B108B500230374FFF775
:1050F0008FFD08BD4FF0FF307047002800F097800B
:105100002DE9F8430446984691460E46002588E06E
:1051100019F80570FF43FFB207F00101237CC9189D
:1051200001F0010148BF4942C9B221742046FFF78E
:105130004BFD7055C7F34001237CC91801F00101F4
:1051400048BF4942C9B221742046FFF73DFD735D57
:1051500043EA40007055C7F38001237CC91801F071
:10516000010148BF4942C9B221742046FFF72CFD16
:10517000735D43EA80007055C7F3C001237CC918F2
:1051800001F0010148BF4942C9B221742046FFF72E
:105190001BFD735D43EAC0007055C7F30011237C0B
:1051A000C91801F0010148BF4942C9B22174204623
:1051B000FFF70AFD735D43EA00107055C7F3401115
:1051C000237CC91801F0010148BF4942C9B22174CA
:1051D0002046FFF7F9FC735D43EA40107055C7F3B2
:1051E0008011237CC91801F0010148BF4942C9B2AE
:1051F00021742046FFF7E8FC735D43EA8010705588
:10520000217C11EBD71101F0010148BF4942C9B21D
:1052100021742046FFF7D8FC735D43EAC010705537
:1052200001354545FFF474AF0020BDE8F8834FF029
:10523000FF307047034628B129B100228280DA8806
:105240000132DA8070478188013181800285F6E77A
:1052500010B582B000240094214B5A6C42F4804275
:105260005A645A6C02F480420092009A01941A6CBB
:1052700042F080521A641B6C03F080530193019B2F
:105280000320FBF7E1F9224621466FF00B00FBF704
:10529000EDF9224621466FF00A00FBF7E7F92246B6
:1052A00021466FF00900FBF7E1F9224621466FF035
:1052B0000400FBF7DBF9224621466FF00300FBF701
:1052C000D5F9224621466FF00100FBF7CFF92246BF
:1052D00021464FF0FF30FBF7C9F902B010BD00BF07
:1052E0000038024002681F4B9A4200D0704730B528
:1052F00087B004460025009503F584335A6C42F4C8
:1053000080525A645B6C03F480530093009BE0234B
:10531000019302230293039503230493052305932A
:1053200001A91148FBF7C8FB1048114B03604FF06F
:10533000C063436040238360C5604FF480630361B2
:1053400045618561C56105624562FBF761FA20B977
:10535000064BA3649C6307B030BD85210548FFF769
:105360005FFDF5E7003001400000024018BD00205D
:1053700058640240E46B00082DE9F04389B0002333
:10538000039304930593069307930268354B9A425F
:1053900002D009B0BDE8F08304460025009503F56E
:1053A000F4331A6C42F480121A641A6C02F48012FC
:1053B0000092009A01951A6B42F004021A631A6B6C
:1053C00002F004020192019A02951A6B42F008025F
:1053D0001A631B6B03F008030293029B4FF4805384
:1053E00003934FF00209CDF810904FF00108CDF86B
:1053F0001480032706970826079603A91A48FBF787
:105400005BFB04230393CDF81090CDF8148006972E
:10541000079603A91548FBF74FFB1548154B03608A
:105420004FF00063436040238360C5604FF48063A6
:10543000036145618561C56105624562FBF7E8F975
:1054400058B90B4B23639C63002211463520FBF7B0
:105450000DF93520FBF73EF99BE7E0210648FFF701
:10546000DFFCEEE70050004000080240000C024064
:1054700078BD0020B8600240E46B00087047FEE78A
:10548000FEE7FEE7FEE770477047704708B5FBF799
:10549000B5F8FBF752F908BD08B50420FBF7FEFB91
:1054A00008BD08B50820FBF7F9FB08BD08B54FF4A7
:1054B0008070FBF7F3FB08BD08B50248FBF70EFA56
:1054C00008BD00BF18BD002008B50248FBF7FAFC74
:1054D00008BD00BFFCCF002008B50248FBF7FEF96D
:1054E00008BD00BF78BD002008B50248FDF783F86D
:1054F00008BD00BF7CBA002008B503460B4A1268FD
:1055000042B10A4A106803446A46934206D8074AE1
:10551000136008BD054A06491160F2E700F002FB7E
:105520000C2303604FF0FF30F3E700BFD41D0020D1
:10553000F0D500200F49D1F8883043F47003C1F84A
:1055400088300D4B1A6842F001021A600020986002
:105550001A6822F0847222F480321A60074A5A6074
:105560001A6822F480221A60D8604FF000638B60C2
:10557000704700BF00ED00E000380240103000240A
:10558000A9B138B50C46B1F5807F13D81546014650
:1055900022460B48FEF718FC011E0EDD049B2A462E
:1055A0000748FEF7CBFD002800DD204638BD6FF030
:1055B000020070476FF00100F8E76FF00200F5E7B6
:1055C000DC1D0020A1B110B582B00C46B1F5807F82
:1055D00011D802460B4601A90B48FFF76FF868B9CE
:1055E00001990948FEF770FD58B9204602B010BD78
:1055F0006FF0020070476FF00100F7E76FF00400F2
:10560000F4E76FF00400F1E7181F002010B5094C13
:10561000002209492046FDF7E6FE08492046FDF72D
:10562000F9FE07492046FDF799FE2046FDF7F9FEF1
:1056300010BD00BFD8BD002048010020E0000020C0
:1056400020010020002070470020704710B5064C54
:10565000002206492046FDF788FE05492046FDF751
:105660008CFE002010BD00BFD8BD0020FCC700206C
:10567000FCBF0020094BD3F81832D3F814320BB119
:105680000120704710B50A460146044C2046FDF73C
:105690006CFE2046FDF777FE10BD00BFD8BD002090
:1056A00070B504460E46074D01462846FDF765FED7
:1056B0002846FDF77FFE31682046FFF7ADFB00204E
:1056C00070BD00BFD8BD00200368B3F1A04F00D06B
:1056D000704710B586B04FF4C05301930223029374
:1056E00000240394032304930A23059301A90E487D
:1056F000FBF7E2F90D4B5A6B42F080025A630094BB
:105700005A6C42F480425A645B6C03F48043009309
:10571000009B224621464320FAF7A8FF4320FAF7D0
:10572000D9FF06B010BD00BF0000024000380240A3
:1057300008B500F56F71D0F8EC03FDF78BFE08BDDE
:1057400008B5C1EBC10293000344D3F80422D0F89A
:10575000EC03FDF7ACFE08BD08B5C1EBC102930038
:1057600003445A6CD0F8EC03FDF7D6FE08BD08B52B
:10577000D0F8EC03FDF759FF08BD10B50446C36827
:105780004BB10121D4F8EC03FDF73DFFD4F8EC0355
:10579000FDF71AFF10BD0021F4E7000010B5044624
:1057A000D0F8EC03FDF732FF2268D2F8003E43F058
:1057B0000103C2F8003E236A23B1034A136943F090
:1057C0000603136110BD00BF00ED00E008B5D0F87E
:1057D000EC03FDF724FF08BD08B5D0F8EC03FDF796
:1057E00034FF08BD08B5D0F8EC03FDF72CFF08BD69
:1057F00008B5D0F8EC03FDF72AFF08BD08B5D0F8CE
:10580000EC03FDF726FF08BD03780BB100207047BD
:1058100010B503461748C0F8EC33C3F820024FF028
:10582000A0430360042343600222C260002303619B
:1058300043618261C36103624362C3620363FBF736
:10584000BCFA80B90B4C80212046FBF76FFF402249
:1058500000212046FBF746FF802201212046FBF76E
:1058600041FF002010BD4FF4A7710348FFF7D8FA9D
:10587000E8E700BFFCCF0020006C000808B5D0F8B6
:105880002002FBF70AFB18B1022803D0022008BD52
:105890000020FCE70120FAE710B51C46134622461B
:1058A000D0F82002FBF702FE18B1022803D0022034
:1058B00010BD0020FCE70120FAE708B5D0F820026F
:1058C000FBF728FE18B1022803D0022008BD0020F3
:1058D000FCE70120FAE708B5D0F82002FBF7A4FEA8
:1058E00018B1022803D0022008BD0020FCE70120E7
:1058F000FAE708B5D0F82002FBF7C9FE18B1022874
:1059000003D0022008BD0020FCE70120FAE7D0F810
:10591000203211F0800F08D101F07F01C1EBC101ED
:105920008A00134493F8FA01704701F07F01C1EB3C
:10593000C1018A00134493F83A00704708B5D0F8C3
:105940002002FBF7A1FD18B1022803D0022008BDF8
:105950000020FCE70120FAE708B5D0F82002FBF7A9
:105960003AFE18B1022803D0022008BD0020FCE74F
:105970000120FAE708B5D0F82002FBF7F6FD18B1D0
:10598000022803D0022008BD0020FCE70120FAE72E
:1059900008B5D0F82002FBF715FE08BD12230B80D6
:1059A000004870473001002004230B8000487047F6
:1059B0004401002008B50A4628B105490548FEF70C
:1059C000B2F8034808BD02490248FEF7ACF8F8E710
:1059D000ECD30020146C000810B5044C0A46214694
:1059E0000348FEF7A0F8204610BD00BFECD300200E
:1059F0002C6C000808B50A4628B105490548FEF791
:105A000092F8034808BD02490248FEF78CF8F8E70F
:105A1000ECD30020406C000808B50A4628B10549BF
:105A20000548FEF780F8034808BD02490248FEF722
:105A30007AF8F8E7ECD30020506C000808B50A4665
:105A400028B105490548FEF76EF8034808BD02492C
:105A50000248FEF768F8F8E7ECD300205C6C000819
:105A6000194B93F8CE30012B01D000207047F0B5D0
:105A7000BFB0F4273A46002101A800F098F8CE25DF
:105A80003B9501268DF8F460E8220F4901A800F04B
:105A90006FF90E4C3A4601A9204600F07DF84FF40C
:105AA0007A63324629462046FEF7CCFC002804DD06
:105AB000D4F8EC303344C4F8EC30034B002283F8C4
:105AC000CE203FB0F0BD00BFACB80020186F002062
:105AD000DFF834D0002103E00C4B5B584350043115
